:020000040000fa
:080000000002040000000000f2
:020000040000fa
:040008007a03000077
:020000040000fa
:04000c007a03000073
:020000040000fa
:040010007a0300006f
:020000040000fa
:040014007a0300006b
:020000040000fa
:040018007a03000067
:020000040000fa
:04001c007a03000063
:020000040000fa
:040020007a0300005f
:020000040000fa
:040024007a0300005b
:020000040000fa
:040028007a03000057
:020000040000fa
:04002c007a03000053
:020000040000fa
:040030007a0300004f
:020000040000fa
:0400340002030000c3
:020000040000fa
:040038007a03000047
:020000040000fa
:04003c007a03000043
:020000040000fa
:040040007a0300003f
:020000040000fa
:040044007a0300003b
:020000040000fa
:04004800fa020000b8
:020000040000fa
:04004c007a03000033
:020000040000fa
:040050007a0300002f
:020000040000fa
:040054007a0300002b
:020000040000fa
:040058007a03000027
:020000040000fa
:04005c004c03000051
:020000040000fa
:040060007a0300001f
:020000040000fa
:040064007a0300001b
:020000040000fa
:040068007a03000017
:020000040000fa
:04006c007a03000013
:020000040000fa
:040070007a0300000f
:020000040000fa
:040074007a0300000b
:020000040000fa
:040078007a03000007
:020000040000fa
:04007c007a03000003
:020000040000fa
:040080007a030000ff
:020000040000fa
:040084007a030000fb
:020000040000fa
:040088007a030000f7
:020000040000fa
:04008c007a030000f3
:020000040000fa
:040090007a030000ef
:020000040000fa
:040094002203000043
:020000040000fa
:040098007a030000e7
:020000040000fa
:04009c007a030000e3
:020000040000fa
:0400a0007a030000df
:020000040000fa
:0400a4007a030000db
:020000040000fa
:0400a8007a030000d7
:020000040000fa
:0400ac007a030000d3
:020000040000fa
:0400b0007a030000cf
:020000040000fa
:0400b4007a030000cb
:020000040000fa
:0400b8007a030000c7
:020000040000fa
:0400bc007a030000c3
:020000040000fa
:0400c0007a030000bf
:020000040000fa
:0400c4007a030000bb
:020000040000fa
:0400c8007a030000b7
:020000040000fa
:0400cc007a030000b3
:020000040000fa
:0400d0007a030000af
:020000040000fa
:0400d4007a030000ab
:020000040000fa
:0400d8007a030000a7
:020000040000fa
:0400dc007a030000a3
:020000040000fa
:0400e0007a0300009f
:020000040000fa
:0400e4007a0300009b
:020000040000fa
:0400e8007a03000097
:020000040000fa
:0400ec007a03000093
:020000040000fa
:0400f0007a0300008f
:020000040000fa
:0400f4007a0300008b
:020000040000fa
:0400f8007a03000087
:020000040000fa
:0400fc007a03000083
:020000040000fa
:040100007a0300007e
:020000040000fa
:040104007a0300007a
:020000040000fa
:040108007a03000076
:020000040000fa
:04010c007a03000072
:020000040000fa
:040110007a0300006e
:020000040000fa
:040114007a0300006a
:020000040000fa
:040118007a03000066
:020000040000fa
:04011c007a03000062
:020000040000fa
:040120007a0300005e
:020000040000fa
:040124007a0300005a
:020000040000fa
:040128007a03000056
:020000040000fa
:04012c007a03000052
:020000040000fa
:040130007a0300004e
:020000040000fa
:040134007a0300004a
:020000040000fa
:040138007a03000046
:020000040000fa
:04013c007a03000042
:020000040000fa
:040140007a0300003e
:020000040000fa
:040144007a0300003a
:020000040000fa
:040148007a03000036
:020000040000fa
:04014c007a03000032
:020000040000fa
:040150007a0300002e
:020000040000fa
:040154007a0300002a
:020000040000fa
:040158007a03000026
:020000040000fa
:04015c007a03000022
:020000040000fa
:040160007a0300001e
:020000040000fa
:040164007a0300001a
:020000040000fa
:040168007a03000016
:020000040000fa
:04016c007a03000012
:020000040000fa
:040170007a0300000e
:020000040000fa
:040174007a0300000a
:020000040000fa
:040178007a03000006
:020000040000fa
:04017c007a03000002
:020000040000fa
:040180007a030000fe
:020000040000fa
:040184007a030000fa
:020000040000fa
:040188007a030000f6
:020000040000fa
:04018c007a030000f2
:020000040000fa
:040190007a030000ee
:020000040000fa
:040194007a030000ea
:020000040000fa
:040198007a030000e6
:020000040000fa
:04019c007a030000e2
:020000040000fa
:0401a0007a030000de
:020000040000fa
:0401a4007a030000da
:020000040000fa
:0401a8007a030000d6
:020000040000fa
:0401ac007a030000d2
:020000040000fa
:0401b0007a030000ce
:020000040000fa
:0401b4007a030000ca
:020000040000fa
:0401b8007a030000c6
:020000040000fa
:0401bc007a030000c2
:020000040000fa
:0401c0007a030000be
:020000040000fa
:0401c4007a030000ba
:020000040000fa
:0401c8007a030000b6
:020000040000fa
:0401cc007a030000b2
:020000040000fa
:0401d0007a030000ae
:020000040000fa
:0401d4007a030000aa
:020000040000fa
:0401d8007a030000a6
:020000040000fa
:0401dc007a030000a2
:020000040000fa
:0401e0007a0300009e
:020000040000fa
:0401e4007a0300009a
:020000040000fa
:0401e8007a03000096
:020000040000fa
:0401ec007a03000092
:020000040000fa
:0401f0007a0300008e
:020000040000fa
:0401f4007a0300008a
:020000040000fa
:0401f8007a03000086
:020000040000fa
:0401fc007a03000082
:020000040000fa
:040200007a0300007d
:020000040000fa
:040204007a03000079
:020000040000fa
:040208007a03000075
:020000040000fa
:04020c007a03000071
:020000040000fa
:040210007a0300006d
:020000040000fa
:040214007a03000069
:020000040000fa
:040218007a03000065
:020000040000fa
:04021c007a03000061
:020000040000fa
:040220007a0300005d
:020000040000fa
:040224007a03000059
:020000040000fa
:040228007a03000055
:020000040000fa
:04022c007a03000051
:020000040000fa
:040230007a0300004d
:020000040000fa
:040234007a03000049
:020000040000fa
:040238007a03000045
:020000040000fa
:04023c007a03000041
:020000040000fa
:040240007a0300003d
:020000040000fa
:040244007a03000039
:020000040000fa
:040248007a03000035
:020000040000fa
:04024c007a03000031
:020000040000fa
:040250007a0300002d
:020000040000fa
:040254007a03000029
:020000040000fa
:040258007a03000025
:020000040000fa
:04025c007a03000021
:020000040000fa
:040260007a0300001d
:020000040000fa
:040264007a03000019
:020000040000fa
:040268007a03000015
:020000040000fa
:04026c007a03000011
:020000040000fa
:040270007a0300000d
:020000040000fa
:040274007a03000009
:020000040000fa
:040278007a03000005
:020000040000fa
:04027c007a03000001
:020000040000fa
:040280007a030000fd
:020000040000fa
:100400006f0521000eff2c000e0188000000000087
:10041000000020000000e000020032000001200087
:100420002002880014000700b40007000000e0006c
:1004300003003a0060342100010020000200370070
:100440000000200001002000810f70000100320038
:100450000f000700000020000000e0000200320052
:100460000000020000000000620c0200000000001a
:100470000040da000000fe00200020000000e00044
:1004800002003200100020009001880000000600e9
:10049000a1028800800478000000eb001f003700f4
:1004a000e284440054a0b4009905ba00e2844400f8
:1004b00054a0b4009906ba00e284440054a0b400e9
:1004c0000006eb00476fde00fd07b200ae018800ba
:1004d000636ce10003003a000ad801000000eb0061
:1004e0000e003700606ce10008003a00004deb00a0
:1004f0000a05e800020039003420ec000af0a000f0
:100500008b05e900f9ff3e00040037006168e10057
:10051000010032000086eb000b00070019c7ba008b
:100520000e04e0001905ba0003003a000a00e000da
:10053000dbff3a0000000600fe07b200ae028800b2
:100540008a047800f5ff37000cd0a300e20f4d00bd
:100550001c00390089027800354dba000a05e80010
:10056000020039003420ec000af0a0008b05e900fd
:100570000f003200254dba000a05e80002003900dc
:100580003420ec000af0a0008b05e90008003200de
:100590000c00e0000600320015cdba000a05e800a4
:1005a000020039003420ec000af0a0008b05e900bd
:1005b0008984e80054a0b4000b00e000e2ff3a0098
:1005c000000006009902ba00055d78008b05e9007d
:1005d000f7ff3200c82ade00055d78008b05e900d0
:1005e000f3ff32000c00e000f1ff320019ddba0029
:1005f000eeff37000000fa000108a9000080fa00b1
:10060000004006003600f800809fbe00829fbe00ba
:10061000849fbe00869fbe000000fa000068a9000b
:10062000df070700610607000080fa004f03be00e5
:100630004f02be004f01be004f00be003600f90061
:10064000004006003600f800809fbe00829fbe007a
:10065000849fbe00869fbe000000fa000368a900c8
:10066000a0808000b180800061004000e0804800f0
:10067000a0808800b1808800030207000080fa0093
:100680004f03be004f02be004f01be004f00be0030
:100690003600f90000400600809fbe000000fa000e
:1006a00001a8a9000118800020002100010878009d
:1006b00011188000200021001100980021188000ee
:1006c0002000210021009800311880002000210026
:1006d000310098004118800020002100410098005e
:1006e00010c0b3000af0b7000080fa004f00be004f
:1006f000004006000040da000000fe000000050097
:1007000003f0a200889fbe008a9fbe008c1f780065
:100710001b010700220133006450e1004f0032004a
:100720006420e1005200320003826c0007003b00ad
:100730000905d0000306d000820f54000c065d00ae
:1007400002003900020032008901780003067800b7
:100750008582550004003d000003fd008103fd007b
:100760008502ea008b854200840f720002003b0084
:1007700060001000e08018006011b8000005eb0078
:100780007a28e1000a00390006007800c75ddd0024
:10079000f707b200878075002d0037008281710055
:1007a0000a017800610560008180d1000080d300db
:1007b0008502e900f9ff3b000604400087844800f9
:1007c00002003b0060041400e0841c000988a300c0
:1007d000070032008a81710082817100610164002a
:1007e0008904d1000884d3008b05e8001700370086
:1007f0000978a30013003a000b00e0001300340056
:100800008b05e9000804440089844c000a44740004
:100810000978a3000d003a000b00e0000700340047
:100820008b05e9000804440089844c0001003a006b
:100830000b0020000978a300f7ff32000001eb0055
:1008400002003700828171000a01780091000700e0
:100850000cf0a70001f0a000da0037006420e100ee
:1008600002003a00838f6c00da0033000801be00fa
:100870000200be00d3003700889fbe008a9fbe00e2
:100880008c1f7800be000700c500330003866c0093
:100890006450e1002e0032006420e1003300320099
:1008a0006150e1002f0032006120e1003100320090
:1008b00085855500eb07b0000900200008042000e2
:1008c000050037000804440089844c000a00310008
:1008d0000603430087834b000001530081815b00c6
:1008e000f8ff33000203be000800a0000804440023
:1008f00089844c00f6ff3900c639dd00830173009e
:1009000001003200130020008904d1000884d300c4
:100910000998a300050032000800a7000300a0000a
:100920008904d1000884d3008b05e8008904d10034
:100930000884d3000001eb000281d20055000700bb
:1009400001f0a1000cf0a70001f0a0009d0037000d
:100950006420e1009f0032000801be000200be00da
:10096000f7ff37006120e1009a0032006000b80014
:10097000f3ff37000000200001f82700f0ff3700e8
:1009800014002000ca003700f4ff2f00c800370011
:100990000001be00650007000470a70003f0a1007d
:1009a0006509b100160032000d0035006828e1002d
:1009b00006003500f0ff2f00f1ff27000300e000e4
:1009c00013003b000100280000000500000040006b
:1009d000818048008502e900fcff3a0008003700ea
:1009e000f88f420002003c008000eb000000050090
:1009f0008100d1000080d3008502e800fcff3a00ae
:100a00000300e00002003b0060001000e0801800de
:100a1000000006000001be00440007000470a700ab
:100a200003f0a10003f8a30013003a006509b10028
:100a300010003200090035006928e100020035008d
:100a400001002800000005000000400081804800ef
:100a50008502e900fcff3a0000000600f88f420022
:100a6000050035008100d1000080d3008502e80038
:100a7000fcff3a00000006008000eb0000000500cb
:100a80004f89de0082017800a40037006011b800b1
:100a9000b200370081002000618055000b003d004e
:100aa0000b00200061fe2f000100e1001d0034005a
:100ab00082817100610164008904d1000884d3003f
:100ac0000000e800faff3a007100200061006400b5
:100ad000030070000200600009003200610444005d
:100ae000e0844c000988a500050032008b05e80071
:100af0006808e10002003a008904d1000884d300ac
:100b0000f20f20000258e10005003d00c75ddd0046
:100b1000f907b2008980750008007800000006001f
:100b20000bf827008b00780000000500c70ade00e4
:100b3000f107b200f50fb20008003200e1cf420029
:100b4000020032000170a00024000500810f700037
:100b5000010032000408050044000500810f700008
:100b600002003a00140005008502e9000000400080
:100b700081c04800fcff3b000170a000240005007c
:100b80000004be00e9ff07000003be000405be002c
:100b90000200be00e5ff0700844f7500000006005c
:100ba0000200be006450e100050036006420e10050
:100bb000020036000968a30001003a000800be00e8
:100bc0000160a0004f0678004f05be004f04be0034
:100bd00000000600f0ff2f00f1ff2700f9ff3700ab
:100be000889fbe008a9fbe008c1f7800e4ff07002c
:100bf000ebff330003866c006450e10024003200f8
:100c00006420e100270032006150e1002200320040
:100c10006120e100210032008b854200eb07b1002a
:100c20000134b800003ab8000804420089844a0040
:100c3000013ab8000030b8008880400009014a003d
:100c40000400330000004000818048000201490098
:100c50008b05e900c909dd00830170000100320045
:100c600013002000c814de004814dd004709de0030
:100c70001200b200c808de000884700085ff07007b
:100c800001f0a1000cf0a70001f0a000cdff37009b
:100c90006120e100cfff32000801be000200be006b
:100ca000f7ff37006150e100fcff3a00c9ff370051
:100cb000889fbe008a9fbe00841f7800b0ff070097
:100cc0004f00780011003300f0ff2f00838f6c007d
:100cd00006003b00040565000a00a7000800370075
:100ce00009f0a6001000200008003700820f540011
:100cf000838f5c00030039001000200001003e00db
:100d00000000200009f0a7000000ea004f05be0027
:100d10004f04be000000e00000000600881f7800bd
:100d2000030478000300e00007003d0060001000ad
:100d3000e080180060011900e081190002003b000a
:100d400001f02d00030037000400070008f0a700a1
:100d500001f0a0004f04780000000600889fbe004c
:100d60008a9fbe000082700004027100048271003c
:100d7000260032000004be000200be006011b80070
:100d80006b092000950220000182cf000a00390083
:100d90000541b1000082cf00070039000541b100d4
:100da0000982cf00040039000541b1000882cf005c
:100db000010039000541b100054252001200320025
:100dc0000a003b0082817100610164008100d10052
:100dd0000080d3008984d3000884d3008b05e80009
:100de0000442e800f7ff3a00070037000804440017
:100df00089844c0000004800818048008b05e90090
:100e00000442e900f9ff3a0022ff07004f05be0047
:080e10004f04be0000000600c3
:020000040000fa
:100e18000200fa00004f78001e4078000004e0004d
:100e28000d003a0010708000610060000000e000d2
:100e3800090032000041eb0000002000010a2c00ec
:100e48000305070012c0b3000000200001172400aa
:100e5800ff040700080037000041eb0000002000f5
:100e680001172400fa04070012c0b3000000200094
:100e7800010a2c00f60407000080fa0000000600b2
:100e88000000fa0010708000610060000000e000bf
:100e9800af00320018d0bf000080fb00cf80de001a
:100ea8000201200003002000820f5000838f5800a9
:100eb800a5003e00000601001000370019003700a9
:100ec8002200370031003700320037004200370077
:100ed8004300370053003700540037007b003700c9
:100ee8007c003700890037009700370096003700ec
:100ef8009500370094003700860037001430ef0063
:100f08001630ef000041eb006000b800d004070085
:100f180012c0b3006000b800cd04070010c0b300d1
:100f280018f0b700a2808000b3808000803e2000c7
:100f380001002000800f5100818f59008f0036007a
:100f480020c0b30018f0b7008d0037006080800023
:100f5800cf80de00c8fe07000041eb00bc0407009c
:100f680060808000cf80de00c3fe070012c0b3009f
:100f7800b704070030c0b30018f0b70064eea8004b
:100f8800254ea90064cea9007d0037007e00070029
:100f98007b00370070808000cf80de00b6fe07003f
:100fa8000041eb00aa040700808080000000ea00ee
:100fb800cf80de00b0fe070012c0b300a404070013
:100fc80050c0b30018f0b70064eea900254ea90080
:100fd80064cea8006a0037006b000700680037007d
:100fe800808080000000ea00cf80de00a2fe0700bb
:100ff8000041eb009604070070808000cf80de007f
:101008009dfe070012c0b3009104070070c0b30032
:1010180018f0b70064eea900254ea80064cea90018
:10102800570037005800070055003700a08080009f
:10103800b180800000007800610060000040780006
:101048000004e0000400320070808000cf80de00e1
:1010580089fe070004003700708080000000ea0065
:10106800cf80de0084fe07000041eb007804070013
:10107800a0808000b18080000000780061006000de
:10108800004078000004e000050032007080800015
:101098000000ea00cf80de0077fe0700030037007b
:1010a80070808000cf80de0073fe070012c0b3009e
:1010b8006704070090c0b30018f0b70064eea800fa
:1010c800254ea80064cea8002d0037002e0007008a
:1010d8002b003700708080000000ea00cf80de001f
:1010e80065fe07000041eb0059040700708080008e
:1010f800cf80de0060fe070012c0b3005404070072
:10110800b0c0b30018f0b7001d0037001e0007007c
:101118001b00370090808000cf80de0056fe07005d
:1011280012c0b3004a04070090808000cf80de0020
:1011380051fe07000041eb004504070012000700bc
:10114800000000000e0037001870ef000c00370098
:101158000041eb006000b8003d04070012c0b30076
:101168006000b8003a0407001430ef001630ef00b2
:1011780020c0b30018f0b7000100370000000000dd
:101188000080fa00000006000200fa00889fbe00f6
:101198008a1f78000040eb00004f7800d88180005b
:1011a800e9818000408280006c005000cf80de0022
:1011b80031fe07001ac0b3000001be000800be00df
:1011c800edfd07000000e000010035000045eb00e0
:1011d8000a04e0003200320098818000a981800072
:1011e800208280006c005000cf80de0022fe0700c5
:1011f8001ac0b3000001be000800be00defd0700f3
:101208000000e000010035000045eb000a04e000a2
:1012180023003200b8818000c981800030828000bc
:101228006c005000cf80de0013fe07001ac0b30028
:101238000001be000800be00cffd07000000e0006e
:10124800010035000045eb000a04e000030032000d
:1012580030c0b300004f78006f013700d4818000a0
:10126800e581800090818000a181800018c0b300d2
:101278000001be000400be00bffd07000000e00042
:10128800010035000044eb00084078000004a2008b
:101298000080fb0000407800ddfe07005e0137009b
:1012a800b8818000c981800030828000cf80de0054
:1012b800f1fd07001ac0b3000001be000800be001f
:1012c800adfd07000000e000010035000045eb001f
:1012d8000a04e0000300320030c0b300004f780079
:1012e8004d013700d8818000e9818000408280006c
:1012f800cf80de00e0fd07001ac0b3000001be0089
:101308000800be009cfd07000000e0000100350059
:101318000045eb000a04e0002a003a00f88180004a
:101328000982800050828000cf80de00d2fd070055
:101338001ac0b3000001be000800be008efd070001
:101348000000e000010035000045eb000a04e00061
:101358001c003a00b8818000c9818000308280007a
:10136800cf80de00c4fd07001ac0b3000001be0034
:101378000800be0080fd07000000e0000100350005
:101388000045eb000a04e00011003200f8818000fb
:101398000982800050828000cf80de00b6fd070001
:1013a8001ac0b3000001be000800be0072fd0700ad
:1013b8000000e000010035000045eb000a04e000f1
:1013c8000300320010c0b300004f7800120137004c
:1013d80098818000a981800020828000cf80de0073
:1013e800a5fd07001ac0b3000001be000800be003a
:1013f80061fd07000000e000010035000045eb003a
:101408000a04e0002a003a0078818000898180007f
:1014180010828000cf80de0097fd07001ac0b3005d
:101428000001be000800be0053fd07000000e000f8
:10143800010035000045eb000a04e0001c003a00fa
:10144800788180008981800010828000cf80de0052
:1014580089fd07001ac0b3000001be000800be00e5
:1014680045fd07000000e000010035000045eb00e5
:101478000a04e00011003200b8818000c9818000b0
:1014880030828000cf80de007bfd07001ac0b300e9
:101498000001be000800be0037fd07000000e000a4
:1014a800010035000045eb000a04e00003003200ab
:1014b80020c0b300004f7800d70037007881800043
:1014c8008981800060828000cf80de006afd07008d
:1014d8001ac0b3000001be000800be0026fd0700c8
:1014e8000000e000010035000045eb000a04e000c0
:1014f8000e0032007881800089818000108280008f
:10150800cf80de005cfd07001ac0b3000001be00fa
:101518000800be001afd07000000e00001003c00c2
:101528000045eb000a04e00070003a009881800052
:10153800a981800070828000cf80de004efd070008
:101548001ac0b3000001be000800be000afd070073
:101558000000e000010035000045eb000a04e0004f
:101568000e00320098818000a981800020828000ce
:10157800cf80de0040fd07001ac0b3000001be00a6
:101588000800be00fefc07000000e00001003c006f
:101598000045eb000a04e00054003a00b8818000de
:1015a800c981800080828000cf80de0032fd070084
:1015b8001ac0b3000001be000800be00eefc070020
:1015c8000000e000010035000045eb000a04e000df
:1015d8000e003200b8818000c9818000308280000e
:1015e800cf80de0024fd07001ac0b3000001be0052
:1015f8000800be00e2fc07000000e00001003c001b
:101608000045eb000a04e00038003a00d881800069
:10161800e981800090828000cf80de0016fd0700ff
:101628001ac0b3000001be000800be00d2fc0700cb
:101638000000e000010035000045eb000a04e0006e
:101648000e003200d8818000e9818000408280004d
:10165800cf80de0008fd07001ac0b3000001be00fd
:101668000800be00c6fc07000000e00001003c00c6
:101678000045eb000a04e0001c003a00f8818000f5
:1016880009828000a0828000cf80de00fafc07007b
:101698001ac0b3000001be000800be00b6fc070077
:1016a8000000e000010035000045eb000a04e000fe
:1016b80011003200f8818000098280005082800089
:1016c800cf80de00ecfc07001ac0b3000001be00aa
:1016d8000800be00aafc07000000e00001003c0072
:1016e8000045eb000a04e0000300320040c0b300ec
:1016f800004f780048003700788180008981800099
:1017080060828000cf80de00dbfc07001ac0b300d7
:101718000001be000800be0099fc07000000e000c0
:1017280001003c000045eb000a04e0003a003200ea
:1017380098818000a981800070828000cf80de00bf
:10174800cdfc07001ac0b3000001be000800be00af
:101758008bfc07000000e00001003c000045eb00a6
:101768000a04e0002c003200b8818000c9818000a2
:1017780080828000cf80de00bffc07001ac0b30063
:101788000001be000800be007dfc07000000e0006c
:1017980001003c000045eb000a04e0001e00320096
:1017a800d8818000e981800090828000cf80de00af
:1017b800b1fc07001ac0b3000001be000800be005b
:1017c8006ffc07000000e00001003c000045eb0052
:1017d8000a04e00010003200f881800009828000cd
:1017e800a0828000cf80de00a3fc07001ac0b300ef
:1017f8000001be000800be0061fc07000000e00018
:1018080001003c000045eb000a04e0000200320041
:101818000040eb00004f78001e4078000004e00014
:1018280003003a0020c0b30019f0b70016003700d3
:101838001e407800e24f500003003a0040c0b30059
:1018480019f0b700100037001e407800e14f500033
:1018580003003a0060c0b30019f0b7000a0037006f
:101868001e407800e34f500003003a0080c0b300e8
:1018780019f0b7000400370040c0b300004f7800eb
:1018880000c1b30019f0b70019d0bf008080fb0079
:1018980018d0bf000080fb000000e900808f5000d6
:1018a8000200320019d0bf0018f0b7004f057800c9
:1018b8004f04be000080fa00000006000200fa0093
:1018c800450307007f0007000b0107008e01070092
:1018d8008d03070097010700f50207000100370094
:1018e80000000000340307000004e000fcff3200a1
:1018f800350307002c030700000f78001e0078004e
:10190800100078008000eb005efc070032332300f3
:1019180033052400b0fc070002002000035824000f
:10192800d3fb0700d2cc2c00c3042400aafc070078
:101938000001be000000200081202400ccfb07002d
:1019480002002000030a24006bfb07007081880056
:10195800818188001e80e800100078008000eb007c
:1019680048fc070032332300330524009afc0700a3
:101978000200200003582400bdfb0700d2cc2c0035
:10198800c304240094fc07000001be0000002000ee
:1019980081202400b6fb070002002000030a24006f
:1019a80055fb070090818800a18188009e0078007f
:1019b80064804000100078008000eb0031fc0700d4
:1019c800323323003305240083fc07000200200083
:1019d80003582400a6fb0700d2cc2c00c304240023
:1019e8007dfc07000001be000000200081202400cb
:1019f8009ffb070002002000030a24003efb0700ab
:101a0800b0818800c18188009e007800668040000f
:101a1800100078008000eb001afc07003233230026
:101a2800330524006cfc0700020020000358240042
:101a38008ffb0700d2cc2c00c304240066fc0700ef
:101a48000001be00000020008120240088fb070060
:101a580002002000030a240027fb0700d081880029
:101a6800e18188009e0078006880400010007800be
:101a78008000eb0003fc0700323323003305240009
:101a880055fc0700020020000358240078fb0700db
:101a9800d2cc2c00c30424004ffc07000001be0078
:101aa800000020008120240071fb070002002000b4
:101ab800030a240010fb0700f081880001828800d7
:101ac80088ff37000000fa0013e1a90011e1a9001e
:101ad8001061a8001021a90081088000f0fc2f00e7
:101ae80000806000800888000a21ef000621ef00ce
:101af800202620007008880000a0250060088800c3
:101b08002142800080ff2f00008060000000a000bc
:101b1800204288000108a9002108a80011e1a800b6
:101b28000080fa00000006000400fa00881f780010
:101b3800008fbe0021088000f0fc2f0000806000ac
:101b4800200888001e0178009e0190000068290086
:101b580081c1240046fb070018c0b30002f02f0023
:101b6800f377240086fb07000000e00001003c003a
:101b78000044eb000804e000540032002108800013
:101b8800f0fc2f00008060000040a00020088800c2
:101b98001e0178009e0190000068290081c1240080
:101ba80033fb0700020020000310240030fb07006d
:101bb80018c0b30002f02f00f377240070fb070071
:101bc8000000e00001003c000044eb000804e000d5
:101bd8003200320021088000f0fc2f0000806000f5
:101be8000050a000200888001e0178009e01900087
:101bf8000068290081c124001dfb070002002000a5
:101c0800032824001afb070018c0b30002f02f00b5
:101c1800f37724005afb07000000e00001003c00b5
:101c28000044eb000804e0001000320021088000a6
:101c38000003200001007000200888001e017800c1
:101c48009e0190000068290081c1240008fb07005c
:101c5800020020000338240005fb07004afb0700a8
:101c68000000780010088800200037001e01780066
:101c78009e0190000068290081c12400fcfa070039
:101c88000200200003282400f9fa07003efb0700a1
:101c98000000780010088800140037001e01780042
:101ca8009e0190000068290081c12400f0fa070015
:101cb8000200200003102400edfa070032fb0700a1
:101cc8000000780010088800080037001e0178001e
:101cd8009e0190000068290081c12400e4fa0700f1
:101ce80029fb070000007800100888004f047800de
:101cf8000080fa00000006000000fa0005e1a900d3
:101d080021088000f0fc2f00008060000050a00037
:101d1800200888000421a90000002000812c24004c
:101d280081ff07000068a9002068a80005e1a80055
:101d38000080fa00000006000400fa00881f7800fe
:101d4800008fbe00f1088000f0fc2f0000806000ca
:101d5800f00888001e0178009e01900000682900a4
:101d680081c12400c2fa070018c0b30002f02f0096
:101d7800f377240002fb07000000e00001003c00ac
:101d88000044eb000804e00054003200f108800031
:101d9800f0fc2f00008060000040a000f0088800e0
:101da8001e0178009e0190000068290081c124006e
:101db800affa07000200200003102400acfa070065
:101dc80018c0b30002f02f00f3772400ecfa0700e4
:101dd8000000e00001003c000044eb000804e000c3
:101de80032003200f1088000f0fc2f000080600013
:101df8000050a000f00888001e0178009e019000a5
:101e08000068290081c1240099fa07000200200017
:101e18000328240096fa070018c0b30002f02f0028
:101e2800f3772400d6fa07000000e00001003c0028
:101e38000044eb000804e00010003200f1088000c4
:101e48000003200001007000f00888001e017800df
:101e58009e0190000068290081c1240084fa0700cf
:101e6800020020000338240081fa0700c6fa0700a0
:101e78000000780010088800200037001e01780054
:101e88009e0190000068290081c1240078fa0700ab
:101e9800020020000328240075fa0700bafa070098
:101ea8000000780010088800140037001e01780030
:101eb8009e0190000068290081c124006cfa070087
:101ec800020020000310240069fa0700aefa070098
:101ed8000000780010088800080037001e0178000c
:101ee8009e0190000068290081c1240060fa070063
:101ef800a5fa070000007800100888004f04780051
:101f08000080fa00000006000000fa001fe1a900a6
:101f18001e21a90000002000a147240086ff070019
:101f28000368a9002368a8001fe1a8000080fa0040
:101f3800000006000000fa001160800080ff2f00fa
:101f4800008060001060880000fa2000206088008f
:101f580023aca800238ca80011618000f03f2f005b
:101f68000080600000a0a000106188003000200000
:101f780020618800c3aca800c38ca800116680004b
:101f8800f03f2f000080600000a0a00010668800cd
:101f9800300020002066880001eca8000080fa00cc
:101fa800000006000000fa00889fbe008a9fbe005d
:101fb80054818000658180003081800041818000eb
:101fc80018c0b3000001be000400be006afa070092
:101fd8000000e000010035000044eb000804e000c8
:101fe8000f00320038818000498180005a818000ca
:101ff8006b8180001ad0bf000080fb00cf80de001c
:102008009dfa07000001be000a00be00bbf90700e8
:102018000801be00cd00070050818800618188005a
:10202800548180006581800030818000418180007a
:1020380018c0b3000001be000400be0050fa07003b
:102048000000e00001003c000044eb000804e00050
:102058000f00320038818000498180005a81800059
:102068006b8180001ad0bf000080fb00cf80de00ab
:1020780081fa07000001be000a00be009ef90700b1
:102088000801be009900070050818800618188001e
:10209800508180006181800018c0b3006011b800d1
:1020a80037fa07000000e00001003c000044eb00a4
:1020b8000804e00004003200c3cca90024eea80004
:1020c800c3eca80003003700c3eca90024cea80085
:1020d800c3cca80050818000618180006d0007009a
:1020e8000200200003222400bbfa070047fa070079
:1020f8000000780030668800148180002581800007
:10210800f08080000181800018c0b3000001be008b
:102118000400be0018fa07000000e00001003500c6
:102128000044eb000804e0000f003200f880800053
:10213800098180001a8180002b8180001ad0bf009d
:102148000080fb00cf80de004bfa07000001be00d4
:102158000a00be0069f907000801be007b000700fd
:1021680010818800218188001481800025818000e9
:10217800f08080000181800018c0b3000001be001b
:102188000400be00fef907000000e00001003c006a
:102198000044eb000804e0000f003200f8808000e3
:1021a800098180001a8180002b8180001ad0bf002d
:1021b8000080fb00cf80de002ffa07000001be0080
:1021c8000a00be004cf907000801be0047000700de
:1021d8001081880021818800108180002181800081
:1021e80018c0b3006011b800e3f907000000e00070
:1021f800010035000044eb000804e0000400320050
:1022080023cca90015eea80023eca8000300370092
:1022180023eca90015cea80023cca80010818000cb
:10222800218180001b0007000200200003222400f7
:1022380069fa0700f5f907000000780030618800a6
:102248004f05be004f04be000080fa0000000600e3
:102258000600fa00008fbe00424798004e409000ea
:10226800e14f500005003a001e0178009e019000e1
:10227800f280880003818800040037001e0178007e
:102288009e01900032818800438188000080fa0016
:10229800000006000400fa00881f7800008fbe00c6
:1022a80018c0b3006011b8001e0078009e009000ae
:1022b800b3f907000000e00001003d000044eb0016
:1022c8000804e000030032001e0078009e00900021
:1022d800030037001e0078009e00900001f0a20065
:1022e8004f0478000080fa00000006000800fa0099
:1022f800881f7800008fbe002207980033079800d7
:1023080018c0b3002e019000be0190001e00780096
:102318009e0090009af907000000e00001003c00d0
:102328000044eb000804e000030032001e007800bf
:102338009e009000020037002e009000be00900022
:102348004f0478000080fa00000006000800fa0038
:10235800881f7800008fbe00220798003307980076
:1023680018c0b3002e019000be0190001e00780036
:102378009e00900080f907000000e0000100350091
:102388000044eb000804e000030032001e0078005f
:102398009e009000020037002e009000be009000c2
:1023a8004f0478000080fa00000006000c00fa00d4
:1023b800881f7800008fbe00220798003307980016
:1023c800440798005507980018c0b3004e019000c4
:1023d800de0190001e0078009e00900068f907005a
:1023e8000000e00001003c000044eb000804e000ad
:1023f800040032004e019000de019000028fbe0002
:102408000e00370018c0b3002e019000be019000e6
:102418001e0078009e00900057f907000000e000b9
:10242800010035000044eb000804e000030032001e
:102438002e019000be019000028fbe001e007800a1
:102448009e0090004f0478000080fa00000006000b
:102458000400fa00008fbe00b2fd2000930424009f
:102468001e0078009e00900001f90700020020007d
:1024780043332400d8f907000080fa000000060062
:102488000400fa00008fbe00b2fd2000930424006f
:102498001e0078009e009000cff90700020020007f
:1024a80043332400f2f807000080fa000000060019
:1024b8000000fa0021e3a9002143a80001198000c7
:1024c800f0cf2f0000806000001988002043a90089
:1024d80001198000000e200001007000001988001a
:1024e80011198000f0ff2100008060001019880099
:1024f8002343a80011198000f0cf2f00008060004e
:10250800101988001119800030f82f000080600031
:102518000040a000101988002203a9002223a90066
:1025280025e3a900f0c0b30024e3b7002119800017
:10253800f00f2e008080600000f020000100700085
:10254800201988003303a9002e0ea8002f6ea800ba
:102558006f2ea8004feea8000f8ea80030c3a80069
:102568003163a8002e03a80031e3a8003143a80076
:102578004119800000fc2f0000806000401988008d
:1025880028e3a90001a8a90021a8a80021e3a80020
:102598000080fa00000006000000fa002023a800ce
:1025a8000080fa00000006000000fa002000210068
:1025b8000080fa00000006000000fa000ad0bf0000
:1025c8000080fa00000006000000fa000a70ef0020
:1025d8000080fa00000006000000fa00f003200066
:1025e800303a8800213a8000f0f32f000080600024
:1025f800203a8800213a800000fe2f000080600009
:102608000000a000203a8800120020008007200067
:10261800a10920003374200080497800814978009e
:1026280082497800103a8000000178000200a0007a
:102638006004200071052000237420008049780080
:10264800814978008249780000000000113a800032
:10265800000027008080600000002100808f50006b
:10266800faff3a0000000000113a80000002200042
:10267800008060000000e000fbff32000080fa00ec
:042688000000060048
:020000040000fa
:10268c0042100000140000008200000019001e001f
:10269c00001e00001e001900002300002800280066
:1026ac0000280000230000000c10000008000000af
:1026bc008200000028000a00000a00001e00000032
:1026cc001810000002000000800000001410000030
:1026dc0004000000800000001c1000002600000018
:1026ec00800000001a1000000200000082000000b0
:1026fc0014000000001000000c000000800000001e
:04270c0000000000c9
:020000040000fa
:102710000000fa000e2eef001e2eef002e2eef000e
:102720003e2eef004e2eef005e2eef006e2eef00dd
:10273000214ea90060cea90060eea900000ea800fd
:1027400011cea90011eea90020cea90020eea9000b
:10275000102ea800200ea800216ea800612ea8004f
:0c27600041eea8000080fa000000060016
:020000040000fa
:02000004000af0
:04afe000cfff00009f
:020000040000fa
:02000004000af0
:04afe400ffff00006b
:020000040000fa
:02000004000af0
:04afe8007fff0000e7
:020000040000fa
:02000004000af0
:04afec005fff000003
:020000040000fa
:02000004000af0
:04aff00038ff000026
:020000040000fa
:02000004000af0
:04aff400ffff00005b
:00000001FF
