:020000040000fa
:080000000002040000000000f2
:020000040000fa
:04000800d40300001d
:020000040000fa
:04000c00d403000019
:020000040000fa
:04001000d403000015
:020000040000fa
:04001400d403000011
:020000040000fa
:04001800d40300000d
:020000040000fa
:04001c00d403000009
:020000040000fa
:04002000d403000005
:020000040000fa
:04002400d403000001
:020000040000fa
:04002800d4030000fd
:020000040000fa
:04002c00d4030000f9
:020000040000fa
:04003000d4030000f5
:020000040000fa
:040034009e03000027
:020000040000fa
:04003800d4030000ed
:020000040000fa
:04003c00d4030000e9
:020000040000fa
:04004000d4030000e5
:020000040000fa
:04004400d4030000e1
:020000040000fa
:04004800fa020000b8
:020000040000fa
:04004c00d4030000d9
:020000040000fa
:04005000d4030000d5
:020000040000fa
:040054005a0300004b
:020000040000fa
:040058003003000071
:020000040000fa
:04005c00020300009b
:020000040000fa
:04006000d4030000c5
:020000040000fa
:04006400d4030000c1
:020000040000fa
:04006800d4030000bd
:020000040000fa
:04006c00d4030000b9
:020000040000fa
:04007000d4030000b5
:020000040000fa
:04007400d4030000b1
:020000040000fa
:04007800d4030000ad
:020000040000fa
:04007c00d4030000a9
:020000040000fa
:04008000d4030000a5
:020000040000fa
:04008400d4030000a1
:020000040000fa
:04008800d40300009d
:020000040000fa
:04008c00d403000099
:020000040000fa
:04009000d403000095
:020000040000fa
:04009400bc030000a9
:020000040000fa
:04009800d40300008d
:020000040000fa
:04009c00d403000089
:020000040000fa
:0400a000d403000085
:020000040000fa
:0400a400d403000081
:020000040000fa
:0400a800d40300007d
:020000040000fa
:0400ac00d403000079
:020000040000fa
:0400b000d403000075
:020000040000fa
:0400b400d403000071
:020000040000fa
:0400b800d40300006d
:020000040000fa
:0400bc00d403000069
:020000040000fa
:0400c000d403000065
:020000040000fa
:0400c400d403000061
:020000040000fa
:0400c800d40300005d
:020000040000fa
:0400cc00d403000059
:020000040000fa
:0400d000d403000055
:020000040000fa
:0400d400d403000051
:020000040000fa
:0400d800d40300004d
:020000040000fa
:0400dc00d403000049
:020000040000fa
:0400e000d403000045
:020000040000fa
:0400e400d403000041
:020000040000fa
:0400e800d40300003d
:020000040000fa
:0400ec00d403000039
:020000040000fa
:0400f000d403000035
:020000040000fa
:0400f400d403000031
:020000040000fa
:0400f800d40300002d
:020000040000fa
:0400fc00d403000029
:020000040000fa
:04010000d403000024
:020000040000fa
:04010400d403000020
:020000040000fa
:04010800d40300001c
:020000040000fa
:04010c00d403000018
:020000040000fa
:04011000d403000014
:020000040000fa
:04011400d403000010
:020000040000fa
:04011800d40300000c
:020000040000fa
:04011c00d403000008
:020000040000fa
:04012000d403000004
:020000040000fa
:04012400d403000000
:020000040000fa
:04012800d4030000fc
:020000040000fa
:04012c00d4030000f8
:020000040000fa
:04013000d4030000f4
:020000040000fa
:04013400d4030000f0
:020000040000fa
:04013800d4030000ec
:020000040000fa
:04013c00d4030000e8
:020000040000fa
:04014000d4030000e4
:020000040000fa
:04014400d4030000e0
:020000040000fa
:04014800d4030000dc
:020000040000fa
:04014c00d4030000d8
:020000040000fa
:04015000d4030000d4
:020000040000fa
:04015400d4030000d0
:020000040000fa
:04015800d4030000cc
:020000040000fa
:04015c00d4030000c8
:020000040000fa
:04016000d4030000c4
:020000040000fa
:04016400d4030000c0
:020000040000fa
:04016800d4030000bc
:020000040000fa
:04016c00d4030000b8
:020000040000fa
:04017000d4030000b4
:020000040000fa
:04017400d4030000b0
:020000040000fa
:04017800d4030000ac
:020000040000fa
:04017c00d4030000a8
:020000040000fa
:04018000d4030000a4
:020000040000fa
:04018400d4030000a0
:020000040000fa
:04018800d40300009c
:020000040000fa
:04018c00d403000098
:020000040000fa
:04019000d403000094
:020000040000fa
:04019400d403000090
:020000040000fa
:04019800d40300008c
:020000040000fa
:04019c00d403000088
:020000040000fa
:0401a000d403000084
:020000040000fa
:0401a400d403000080
:020000040000fa
:0401a800d40300007c
:020000040000fa
:0401ac00d403000078
:020000040000fa
:0401b000d403000074
:020000040000fa
:0401b400d403000070
:020000040000fa
:0401b800d40300006c
:020000040000fa
:0401bc00d403000068
:020000040000fa
:0401c000d403000064
:020000040000fa
:0401c400d403000060
:020000040000fa
:0401c800d40300005c
:020000040000fa
:0401cc00d403000058
:020000040000fa
:0401d000d403000054
:020000040000fa
:0401d400d403000050
:020000040000fa
:0401d800d40300004c
:020000040000fa
:0401dc00d403000048
:020000040000fa
:0401e000d403000044
:020000040000fa
:0401e400d403000040
:020000040000fa
:0401e800d40300003c
:020000040000fa
:0401ec00d403000038
:020000040000fa
:0401f000d403000034
:020000040000fa
:0401f400d403000030
:020000040000fa
:0401f800d40300002c
:020000040000fa
:0401fc00d403000028
:020000040000fa
:04020000d403000023
:020000040000fa
:04020400d40300001f
:020000040000fa
:04020800d40300001b
:020000040000fa
:04020c00d403000017
:020000040000fa
:04021000d403000013
:020000040000fa
:04021400d40300000f
:020000040000fa
:04021800d40300000b
:020000040000fa
:04021c00d403000007
:020000040000fa
:04022000d403000003
:020000040000fa
:04022400d4030000ff
:020000040000fa
:04022800d4030000fb
:020000040000fa
:04022c00d4030000f7
:020000040000fa
:04023000d4030000f3
:020000040000fa
:04023400d4030000ef
:020000040000fa
:04023800d4030000eb
:020000040000fa
:04023c00d4030000e7
:020000040000fa
:04024000d4030000e3
:020000040000fa
:04024400d4030000df
:020000040000fa
:04024800d4030000db
:020000040000fa
:04024c00d4030000d7
:020000040000fa
:04025000d4030000d3
:020000040000fa
:04025400d4030000cf
:020000040000fa
:04025800d4030000cb
:020000040000fa
:04025c00d4030000c7
:020000040000fa
:04026000d4030000c3
:020000040000fa
:04026400d4030000bf
:020000040000fa
:04026800d4030000bb
:020000040000fa
:04026c00d4030000b7
:020000040000fa
:04027000d4030000b3
:020000040000fa
:04027400d4030000af
:020000040000fa
:04027800d4030000ab
:020000040000fa
:04027c00d4030000a7
:020000040000fa
:04028000d4030000a3
:020000040000fa
:10040000ef1421000eff2c000e01880000000000f8
:10041000000020000000e000020032000001200087
:100420002002880014000700e10007000000e0003f
:1004300003003a00000621000100200002003700fe
:100440000000200001002000810f70000100320038
:100450000f000700000020000000e0000200320052
:100460000000020000000000d00f020000000000a9
:100470000040da000000fe00200020000000e00044
:1004800002003200100020009001880000000600e9
:10049000a1028800800478000000eb001f003700f4
:1004a000e284440054a0b4009905ba00e2844400f8
:1004b00054a0b4009906ba00e284440054a0b400e9
:1004c0000006eb00476fde00fd07b200ae018800ba
:1004d000636ce10003003a000ad801000000eb0061
:1004e0000e003700606ce10008003a00004deb00a0
:1004f0000a05e800020039003420ec000af0a000f0
:100500008b05e900f9ff3e00040037006168e10057
:10051000010032000086eb000b00070019c7ba008b
:100520000e04e0001905ba0003003a000a00e000da
:10053000dbff3a0000000600fe07b200ae028800b2
:100540008a047800f5ff37000cd0a300e20f4d00bd
:100550001c00390089027800354dba000a05e80010
:10056000020039003420ec000af0a0008b05e900fd
:100570000f003200254dba000a05e80002003900dc
:100580003420ec000af0a0008b05e90008003200de
:100590000c00e0000600320015cdba000a05e800a4
:1005a000020039003420ec000af0a0008b05e900bd
:1005b0008984e80054a0b4000b00e000e2ff3a0098
:1005c000000006009902ba00055d78008b05e9007d
:1005d000f7ff3200c82ade00055d78008b05e900d0
:1005e000f3ff32000c00e000f1ff320019ddba0029
:1005f000eeff37000000fa000108a9000080fa00b1
:1006000000400600809fbe000000fa0001a8a9007b
:1006100001188000e0002100010878001118800016
:10062000e00021001100980021188000e000210066
:100630002100980031188000e0002100310098006e
:1006400041188000e00021004100980010c0b30074
:1006500016f0b7000080fa004f00be000040060010
:100660003600f800809fbe00829fbe00849fbe00bf
:10067000869fbe000000fa000188a900d18080009a
:10068000c0808000808f5000020032007405070097
:10069000010037001c70ef000080fa004f03be001d
:1006a0004f02be004f01be004f00be003600f900f1
:1006b000004006003600f800809fbe00829fbe000a
:1006c000849fbe00869fbe000000fa000168a9005a
:1006d00010118000640060000000e00001003200a2
:1006e0002242a90010118000620060000000e000ba
:1006f000060032002222a9000500370030118000d8
:1007000000407800b6050700010037000000000037
:1007100010118000610060000000e000f7ff3a0067
:100720000080fa004f03be004f02be004f01be0022
:100730004f00be003600f900004006003600f80009
:10074000809fbe00829fbe00849fbe00869fbe0029
:100750000000fa000068a900120307000080fa00f8
:100760004f03be004f02be004f01be004f00be004f
:100770003600f90000400600809fbe000000fa002d
:100780000368a900f08080000181800061004000c2
:10079000e0804800f0808800018188000080fa0035
:1007a0004f00be00004006000040da000000fe00de
:1007b0000000050003f0a200889fbe008a9fbe00d3
:1007c0008c1f780019010700200133006450e100fc
:1007d0004f0032006420e1005200320003826c00be
:1007e00007003b000905d0000306d000820f54002b
:1007f0000c065d0002003900020032008901780019
:10080000030678008582550004003d000003fd00ca
:100810008103fd008502ea008b854200840f72008f
:1008200002003b0060001000e08018006011b8007a
:100830000005eb007a28e1000a0039000600780084
:10084000c75ddd00f707b200878075002d00370017
:10085000828171000a017800610560008180d10009
:100860000080d3008502e900f9ff3b000604400048
:100870008784480002003b0060041400e0841c00f0
:100880000988a300070032008a817100828171000b
:10089000610164008904d1000884d3008b05e8005d
:1008a000170037000978a30013003a000b00e0009e
:1008b000130034008b05e9000804440089844c00cf
:1008c0000a4474000978a3000d003a000b00e00010
:1008d000070034008b05e9000804440089844c00bb
:1008e00001003a000b0020000978a300f7ff320056
:1008f0000001eb0002003700828171000a017800dc
:100900008f0007000cf0a70001f0a000d80037000e
:100910006420e10002003a00838f6c00d8003300ad
:100920000801be000200be00d1003700889fbe0053
:100930008a9fbe008c1f7800bc000700c3003300f4
:1009400003866c006450e1002e0032006420e10058
:10095000330032006150e1002f0032006120e100dd
:100960003100320085855500eb07b00009002000fa
:1009700008042000050037000804440089844c0066
:100980000a0031000603430087834b000001530037
:1009900081815b00f8ff33000203be000800a00065
:1009a0000804440089844c00f6ff3900c639dd0094
:1009b0008301730001003200130020008904d1007c
:1009c0000884d3000998a300050032000800a7009e
:1009d0000300a0008904d1000884d3008b05e8003f
:1009e0008904d1000884d3000001eb000281d20009
:1009f0005300070001f0a1000cf0a70001f0a000d7
:100a00009b0037006420e1009d0032000801be0019
:100a10000200be00f7ff37006120e10098003200bd
:100a20006000b800f3ff37000000200001f8270045
:100a3000f0ff370014002000c8003700f4ff2f003b
:100a4000c60037000001be00630007000470a70065
:100a500003f0a1006509b100160032000d00350059
:100a60006828e10006003500f0ff2f00f1ff2700a5
:100a70000300e00013003b00010028000000050017
:100a800000004000818048008502e900fcff3a0038
:100a900008003700f88f420002003c008000eb00a5
:100aa000000005008100d1000080d3008502e8002d
:100ab000fcff3a000300e00002003b006000100071
:100ac000e0801800000006000001be0042000700a0
:100ad0000470a70003f0a10003f8a30013003a007c
:100ae0006509b10010003200090035006928e100f5
:100af0000200350001002800000005000000400051
:100b0000818048008502e900fcff3a0000000600f1
:100b1000f88f4200050035008100d1000080d3002d
:100b20008502e800fcff3a00000006008000eb00b0
:100b3000000005004f89de0082017800a200370026
:100b400081002000618055000b003d000b0020005b
:100b500061fe2f000100e1001d0034008281710060
:100b6000610164008904d1000884d3000000e8001a
:100b7000faff3a0071002000610064000300700079
:100b8000020060000900320061044400e0844c006f
:100b90000988a500050032008b05e8006808e1001f
:100ba00002003a008904d1000884d300f20f20002b
:100bb0000258e10005003d00c75ddd00f907b20005
:100bc0008980750008007800000006000bf82700f7
:100bd0008b00780000000500c70ade00f107b200b4
:100be000f50fb20008003200e1cf420002003200ef
:100bf0000170a00024000500810f70000100320088
:100c00000408050044000500810f700002003a004e
:100c1000140005008502e9000000400081c0480082
:100c2000fcff3b000170a000240005000004be0092
:100c3000e9ff07000003be000405be000200be007d
:100c4000e5ff0700844f7500000006000200be00ab
:100c50006450e100050036006420e1000200360027
:100c60000968a30001003a000800be000160a0006e
:100c70004f0678004f05be004f04be00000006007e
:100c8000f0ff2f00f1ff2700f9ff3700889fbe001b
:100c90008a9fbe008c1f7800e4ff0700ebff330043
:100ca00003866c006450e100240032006420e100ff
:100cb000270032006150e100220032006120e10093
:100cc000210032008b854200eb07b1000134b800ef
:100cd000003ab8000804420089844a00013ab8008a
:100ce0000030b8008880400009014a000400330049
:100cf0000000400081804800020149008b05e900a6
:100d0000c909dd00830170000100320013002000da
:100d1000c814de004814dd004709de001200b200ee
:100d2000c808de000884700085ff070001f0a100fc
:100d30000cf0a70001f0a000cdff37006120e1001a
:100d4000cfff32000801be000200be00f7ff3700ef
:100d50006150e100fcff3a00c9ff3700889fbe00e8
:100d60008a9fbe00841f7800b0ff07004f00780004
:100d700011003300f0ff2f00838f6c0006003b0052
:100d8000040565000a00a7000800370009f0a60066
:100d90001000200008003700820f5400838f5c0091
:100da000030039001000200001003e000000200078
:100db00009f0a7000000ea004f05be004f04be0086
:100dc0000000e00000000600881f7800030478009f
:100dd0000300e00007003d0060001000e080180004
:100de00060011900e081190002003b0001f02d00b4
:100df000030037000400070008f0a70001f0a0007e
:100e00004f04780000000600889fbe008a9fbe0045
:100e1000008270000402710004827100260032001a
:100e20000004be000200be006011b8006b09200083
:100e3000950220000182cf000a0039000541b1006f
:100e40000082cf00070039000541b1000982cf00c0
:100e5000040039000541b1000882cf0001003900cb
:100e60000541b10005425200120032000a003b0069
:100e700082817100610164008100d1000080d30093
:100e80008984d3000884d3008b05e8000442e8007d
:100e9000f7ff3a00070037000804440089844c003b
:100ea00000004800818048008b05e9000442e90009
:100eb000f9ff3a0022ff07004f05be004f04be00b5
:040ec0000000060028
:020000040000fa
:100ec4000000fa0013e1a90011e1a9001061a800d3
:100ed4001021a90081088000f0fc2f000080600030
:100ee400800888000a21ef000621ef002026200058
:100ef4007008880000a02500600888002142800056
:100f040080ff2f00008060000000a00020428800c5
:100f14000108a9002108a80011e1a8000080fa0036
:100f2400000006000400fa00881f7800008fbe004d
:100f340021088000f0fc2f00008060002008880059
:100f44001e0178009e0190000068290081c12400e0
:100f540075fe070018c0b30002f02f00f3772400d9
:100f6400b5fe07000000e00001003c000044eb0077
:100f74000804e0005400320021088000f0fc2f0037
:100f8400008060000040a000200888001e01780056
:100f94009e0190000068290081c1240062fe0700c0
:100fa40002002000031024005ffe070018c0b300f5
:100fb40002f02f00f37724009ffe07000000e000fa
:100fc40001003c000044eb000804e0003200320061
:100fd40021088000f0fc2f00008060000050a00079
:100fe400200888001e0178009e01900000682900f6
:100ff40081c124004cfe07000200200003282400c5
:1010040049fe070018c0b30002f02f00f377240054
:1010140089fe07000000e00001003c000044eb00f2
:101024000804e000100032002108800000032000c2
:1010340001007000200888001e0178009e019000c5
:101044000068290081c1240037fe07000200200047
:101054000338240034fe070079fe070000007800fe
:1010640010088800200037001e0178009e019000bf
:101074000068290081c124002bfe07000200200023
:101084000328240028fe07006dfe070000007800f6
:1010940010088800140037001e0178009e0190009b
:1010a4000068290081c124001ffe070002002000ff
:1010b400031024001cfe070061fe070000007800f6
:1010c40010088800080037001e0178009e01900077
:1010d4000068290081c1240013fe070058fe0700a0
:1010e40000007800100888004f0478000080fa009f
:1010f400000006000000fa0005e1a90021088000b4
:10110400f0fc2f00008060000050a0002008880040
:101114000421a90000002000812c240081ff070085
:101124000068a9002068a80005e1a8000080fa0072
:10113400000006000400fa00881f7800008fbe003b
:10114400f1088000f0fc2f0000806000f0088800a7
:101154001e0178009e0190000068290081c12400ce
:10116400f1fd070018c0b30002f02f00f37724004c
:1011740031fe07000000e00001003c000044eb00e9
:101184000804e00054003200f1088000f0fc2f0055
:10119400008060000040a000f00888001e01780074
:1011a4009e0190000068290081c12400defd070033
:1011b4000200200003102400dbfd070018c0b30068
:1011c40002f02f00f37724001bfe07000000e0006c
:1011d40001003c000044eb000804e000320032004f
:1011e400f1088000f0fc2f00008060000050a00097
:1011f400f00888001e0178009e0190000068290014
:1012040081c12400c8fd0700020020000328240037
:10121400c5fd070018c0b30002f02f00f3772400c7
:1012240005fe07000000e00001003c000044eb0064
:101234000804e00010003200f108800000032000e0
:1012440001007000f00888001e0178009e019000e3
:101254000068290081c12400b3fd070002002000ba
:1012640003382400b0fd0700f5fd070000007800f6
:1012740010088800200037001e0178009e019000ad
:101284000068290081c12400a7fd07000200200096
:1012940003282400a4fd0700e9fd070000007800ee
:1012a40010088800140037001e0178009e01900089
:1012b4000068290081c124009bfd07000200200072
:1012c4000310240098fd0700ddfd070000007800ee
:1012d40010088800080037001e0178009e01900065
:1012e4000068290081c124008ffd0700d4fd070098
:1012f40000007800100888004f0478000080fa008d
:10130400000006000000fa001fe1a9001e21a90048
:1013140000002000a147240086ff07000368a900fd
:101324002368a8001fe1a8000080fa00000006005e
:101334000000fa001160800080ff2f000080600030
:101344001060880000fa20002060880023aca80008
:10135400238ca80011618000f03f2f000080600002
:1013640000a0a000106188003000200020618800e7
:10137400c3aca800c38ca80011668000f03f2f0006
:101384000080600000a0a0001066880030002000eb
:101394002066880001eca8000080fa000000060026
:1013a4000000fa00889fbe008a9fbe00b4898000b6
:1013b400c589800090898000a189800018c0b3008d
:1013c4000001be000400be0099fd07000000e0001b
:1013d400010035000044eb000804e0000f00320077
:1013e40098898000a9898000ba898000cb8980000f
:1013f40026d0bf000080fb00cf80de00ccfd0700bc
:101404000001be000a00be00eafc07000801be009d
:101414007d010700b0898800c1898800b4898000f3
:10142400c589800090898000a189800018c0b3001c
:101434000001be000400be007ffd07000000e000c4
:1014440001003c000044eb000804e0000f003200ff
:1014540098898000a9898000ba898000cb8980009e
:1014640026d0bf000080fb00cf80de00b0fd070067
:101474000001be000a00be00cdfc07000801be004a
:1014840049010700b0898800c1898800b0898000bb
:10149400c189800018c0b3006011b80066fd070060
:1014a4000000e00001003c000044eb000804e00000
:1014b40004003200c3cca90024eea800c3eca800a9
:1014c40003003700c3eca90024cea800c3cca800b5
:1014d400b0898000c18980001d010700020020003e
:1014e40003222400e8fd070076fd070000007800d1
:1014f4003066880074898000858980005089800066
:101504006189800018c0b3000001be000400be0061
:1015140047fd07000000e000010035000044eb0037
:101524000804e0000f0032005889800069898000b7
:101534007a8980008b89800026d0bf000080fb0060
:10154400cf80de007afd07000001be000a00be0065
:1015540098fc07000801be002b0107007089880071
:101564008189880074898000858980005089800081
:101574006189800018c0b3000001be000400be00f1
:101584002dfd07000000e00001003c000044eb00da
:101594000804e0000f003200588980006989800047
:1015a4007a8980008b89800026d0bf000080fb00f0
:1015b400cf80de005efd07000001be000a00be0011
:1015c4007bfc07000801be00f70007007089880053
:1015d40081898800708980008189800018c0b300e7
:1015e4006011b80012fd07000000e00001003500a2
:1015f4000044eb000804e0000400320023cca900fe
:1016040015eea80023eca8000300370023eca90082
:1016140015cea80023cca8007089800081898000a1
:10162400cb000700020020000322240096fd0700df
:1016340024fd070000007800306188004f05be00db
:101644004f04be000080fa00000006000600fa0005
:10165400008fbe00424798004e409000e14f50007a
:1016640005003a001e0178009e019000528988000e
:1016740063898800040037001e0178009e019000f1
:1016840092898800a38988000080fa00000006007f
:101694000000fa002002a9000111800090ff2f0031
:1016a400008060000011880020a2a9002062a80028
:1016b400500520004011880023a2a90023e2a900bc
:1016c4000188a9002188a80011118000f0f32f00df
:1016d40000806000101188000168a9002168a8003a
:1016e40021e2a8002342a8000080fa0000000600be
:1016f4000600fa0010079800210798000040eb004c
:10170400004f78000e003700000000001111800027
:1017140000202000008060000000e000fbff3a0091
:101724001e009000104078000080fb00201188000b
:101734001e0090000000e800100798001e4fe8000b
:101744009e80fb002e009000808f5000eeff35003d
:101754000080fa00000006000a00fa002007980042
:1017640031079800420798000040eb00004f7800d2
:101774002e009000804078002e0090004880de000b
:101784000040780000c068009e406800e0cfb300cd
:1017940000cf68000000eb00100798000800370035
:1017a4001e009000ce0090000080400010407800a1
:1017b4001e4f68001e0090000000e800100798000b
:1017c4009e0090003e009000808f5000f4ff350092
:1017d4001e4078000080fa00000006000c00fa00a9
:1017e400889fbe008a9fbe0030079800410798007a
:1017f400520798008f0478000f00780000057800e5
:101804004e009000660440000800e90010079800ac
:10181400080078000000e8000000e8000000d100a3
:10182400800040000f007800818747000000e80036
:101834000000d10000004000200798002e00900016
:10184400e1cfb300014878003e0090004880de00fc
:10185400804078002e009000114098003e009000d7
:10186400804078002e009000214098004e009000a7
:101874004880de00804078002e00900031409800bf
:101884004e009000804078002e0090004140980067
:101894000000eb00000f78000a0037009e0078007b
:1018a400658040009e0078005e0190008100410048
:1018b400914078002e01900000004100014878001a
:1018c4001e0fe8004e0090009e007800808f5000ac
:1018d400f2ff35004e009000e50540005e019000e7
:1018e400ce0090003e0090009bff0700ae009000e9
:1018f4008b804000804878002e009000880078009b
:101904009a0007008a077800890778004f05be000f
:101914004f04be000080fa00000006000400fa0034
:101924002047980031479800ae4090003e40900018
:10193400014f7800104798000e0178002100200024
:1019440000042000a5ff07000080fa000000060044
:101954000400fa00881f7800008fbe0018c0b3008e
:101964006011b8001e0078009e00900032fc070051
:101974000000e00001003d000044eb000804e0002a
:10198400030032001e0078009e0090000300370020
:101994001e0078009e00900001f0a2004f04780021
:1019a4000080fa00000006000800fa00881f780092
:1019b400008fbe00220798003307980018c0b300b8
:1019c4002e019000be0190001e0078009e00900041
:1019d40019fc07000000e00001003c000044eb009b
:1019e4000804e000030032001e0078009e0090000e
:1019f400020037002e009000be0090004f047800d3
:101a04000080fa00000006000800fa00881f780031
:101a1400008fbe00220798003307980018c0b30057
:101a24002e019000be0190001e0078009e009000e0
:101a3400fffb07000000e000010035000044eb005c
:101a44000804e000030032001e0078009e009000ad
:101a5400020037002e009000be0090004f04780072
:101a64000080fa00000006000c00fa00881f7800cd
:101a7400008fbe002207980033079800440798009f
:101a84005507980018c0b3004e019000de01900085
:101a94001e0078009e009000e7fb07000000e000b5
:101aa40001003c000044eb000804e00004003200a4
:101ab4004e019000de019000028fbe000e00370040
:101ac40018c0b3002e019000be0190001e007800e3
:101ad4009e009000d6fb07000000e00001003500e6
:101ae4000044eb000804e000030032002e019000e3
:101af400be019000028fbe001e0078009e00900080
:101b04004f0478000080fa00000006000400fa0088
:101b1400008fbe00b2fd2000930424001e00780054
:101b24009e00900080fb0700020020004333240045
:101b340055fc07000080fa00000006000400fa00cb
:101b4400008fbe00b2fd2000930424001e00780024
:101b54009e0090004cfc0700020020004333240048
:101b640071fb07000080fa00000006000600fa007e
:101b740010079800210798000040eb00004f780000
:101b840043000700ae009000810f500011003400a4
:101b94000040eb00004f7800060037001e80fb0079
:101ba4009e00900000804000104078000b00070069
:101bb4001e4fe8009e80fb002e009000808f500096
:101bc400f6ff35002e0007000004e00001003a0093
:101bd400220007000080fa00000006000200fa005c
:101be400004f7800c0808000810221000080400006
:101bf4001e487800c08080000000e800c080880093
:101c0400c1808000f0072000808f50000100340064
:101c14001830ef000080fa00000006000200fa000d
:101c2400d08080008102210000804000104f7800a5
:101c3400d08080000000e800d0808800d18080003f
:101c4400f0072000808f5000010034001a30ef00ac
:101c54001e4078000080fa00000006000200fa002e
:101c640010c0b3001cf0b700ecff0700004f780071
:101c74001e80fb00201188000080fa00000006008e
:101c84000000fa001cd0bf000080fa00000006002b
:101c94000200fa00c080800001082000808050000b
:101ca400d0808000008f40001e0078000080fa0081
:101cb400000006000000fa0021e3a9002143a80067
:101cc40001198000f0cf2f00008060000019880007
:101cd4002043a90001198000000e200001007000bb
:101ce4000019880011198000f0ff210000806000b5
:101cf400101988002343a80011198000f0cf2f0089
:101d040000806000101988001119800030f82f003d
:101d1400008060000040a000101988002203a90080
:101d24002223a90025e3a900f0c0b30024e3b700ef
:101d340021198000f00f2e008080600000f0200048
:101d440001007000201988003303a9002e0ea8009a
:101d54002f6ea8006f2ea8004feea8000f8ea800cb
:101d640030c3a8003163a8002e03a80031e3a80003
:101d74003143a8004119800000fc2f00008060005e
:101d84004019880028e3a90001a8a90021a8a800f7
:101d940021e3a8000080fa00000006000000fa0019
:101da4002023a8000080fa00000006000000fa00ca
:101db400e00021000080fa00000006000000fa00a4
:101dc40016d0bf000080fa00000006000000fa00f0
:101dd4001670ef000080fa00000006000200fa000e
:101de400004f78002a0007000000e0000c003400d7
:101df40010818000810a2100008040001e48780084
:101e0400108180000000e8001081880011818000aa
:101e1400f0072000808f5000010034002230ef00d2
:101e24000080fa00000006000200fa002081800011
:101e3400810a210000804000104f7800208180003a
:101e44000000e8002081880021818000f007200044
:101e5400808f5000010034002430ef001e407800d1
:101e64000080fa00000006000000fa0011818000e2
:101e740020818000808f50000200320010c0b30027
:101e8400010037000040eb000080fa00000006006b
:101e94000200fa000500070001082000008f50002e
:101ea4001e0078000080fa00000006000200fa001c
:101eb4002181800010818000808f50000600340052
:101ec4002081800001082000808050001081800063
:101ed400008f4000030037001181800020818000c2
:101ee400008f50001e0078000080fa0000000600f9
:101ef4000000fa00f0032000303a8800213a800004
:101f0400f0f32f0000806000203a8800213a80001e
:101f140000fe2f00008060000000a000203a88002e
:101f24001200200080072000a10920003374200043
:101f3400804978008149780082497800103a80000d
:101f4400000178000200a000600420007105200058
:101f54002374200080497800814978008249780000
:101f640000000000113a800000002700808060001b
:101f740000002100808f5000faff3a0000000000aa
:101f8400113a800000022000008060000000e000a0
:101f9400fbff32000080fa00000006000600fa0091
:101fa400d3ff0700c6fb070052fc0700d5fc07005f
:101fb40021000700defc07003eff0700b4fd070018
:101fc4006000b800008fbe000040eb00404798005e
:101fd4000040eb005047980001003700000000006b
:101fe400f0808000018180003e015000ae815800e5
:101ff400800c200001002000800f5100818f5900c7
:10200400f6ff3600de4090004e40900043fe07008d
:102014004e40900000c0e800404798005e409000a9
:102024000040e80050479800f2808000038180005f
:10203400028fbe00eaff37000000fa000e2eef0008
:102044001e2eef002e2eef003e2eef004e2eef0040
:102054005e2eef006e2eef00214ea90060cea90087
:1020640060eea900000ea80011cea90011eea9008f
:1020740020cea90020eea900102ea800200ea80052
:10208400216ea800612ea80041eea8002136800030
:1020940000f82f00008060008001b3002036880023
:1020a4001134800000fc2f00008060000000a000bc
:0c20b400103488000080fa0000000600d4
:020000040000fa
:1020c000001000000c000000800000001e10000046
:1020d000040000008000000028110000260000001d
:1020e00080000000261000000200000082000000b6
:1020f000140000000c1000000c0000008000000024
:10210000281000008000000080000000181000006f
:102110000600000080000000a81000008000000001
:102120008000000022100000040000008000000079
:0421300000000000ab
:020000040000fa
:02000004000af0
:04afe000cfff00009f
:020000040000fa
:02000004000af0
:04afe400ffff00006b
:020000040000fa
:02000004000af0
:04afe8007fff0000e7
:020000040000fa
:02000004000af0
:04afec005fff000003
:020000040000fa
:02000004000af0
:04aff00038ff000026
:020000040000fa
:02000004000af0
:04aff400ffff00005b
:00000001FF
