:020000040000fa
:080000000002040000000000f2
:020000040000fa
:04000800e803000009
:020000040000fa
:04000c00e803000005
:020000040000fa
:04001000e803000001
:020000040000fa
:04001400e8030000fd
:020000040000fa
:04001800e8030000f9
:020000040000fa
:04001c00e8030000f5
:020000040000fa
:04002000e8030000f1
:020000040000fa
:04002400e8030000ed
:020000040000fa
:04002800e8030000e9
:020000040000fa
:04002c00e8030000e5
:020000040000fa
:04003000e8030000e1
:020000040000fa
:0400340002030000c3
:020000040000fa
:04003800e8030000d9
:020000040000fa
:04003c00e8030000d5
:020000040000fa
:04004000e8030000d1
:020000040000fa
:04004400e8030000cd
:020000040000fa
:04004800fa020000b8
:020000040000fa
:04004c00e8030000c5
:020000040000fa
:04005000e8030000c1
:020000040000fa
:04005400a403000001
:020000040000fa
:040058007a03000027
:020000040000fa
:04005c004c03000051
:020000040000fa
:04006000e8030000b1
:020000040000fa
:04006400e8030000ad
:020000040000fa
:04006800e8030000a9
:020000040000fa
:04006c00e8030000a5
:020000040000fa
:04007000e8030000a1
:020000040000fa
:04007400e80300009d
:020000040000fa
:04007800e803000099
:020000040000fa
:04007c00e803000095
:020000040000fa
:04008000e803000091
:020000040000fa
:04008400e80300008d
:020000040000fa
:04008800e803000089
:020000040000fa
:04008c00e803000085
:020000040000fa
:04009000e803000081
:020000040000fa
:040094002203000043
:020000040000fa
:04009800e803000079
:020000040000fa
:04009c00e803000075
:020000040000fa
:0400a000e803000071
:020000040000fa
:0400a400e80300006d
:020000040000fa
:0400a800e803000069
:020000040000fa
:0400ac00e803000065
:020000040000fa
:0400b000e803000061
:020000040000fa
:0400b400e80300005d
:020000040000fa
:0400b800e803000059
:020000040000fa
:0400bc00e803000055
:020000040000fa
:0400c000e803000051
:020000040000fa
:0400c400e80300004d
:020000040000fa
:0400c800e803000049
:020000040000fa
:0400cc00e803000045
:020000040000fa
:0400d000e803000041
:020000040000fa
:0400d400e80300003d
:020000040000fa
:0400d800e803000039
:020000040000fa
:0400dc00e803000035
:020000040000fa
:0400e000e803000031
:020000040000fa
:0400e400e80300002d
:020000040000fa
:0400e800e803000029
:020000040000fa
:0400ec00e803000025
:020000040000fa
:0400f000e803000021
:020000040000fa
:0400f400e80300001d
:020000040000fa
:0400f800e803000019
:020000040000fa
:0400fc00e803000015
:020000040000fa
:04010000e803000010
:020000040000fa
:04010400e80300000c
:020000040000fa
:04010800e803000008
:020000040000fa
:04010c00e803000004
:020000040000fa
:04011000e803000000
:020000040000fa
:04011400e8030000fc
:020000040000fa
:04011800e8030000f8
:020000040000fa
:04011c00e8030000f4
:020000040000fa
:04012000e8030000f0
:020000040000fa
:04012400e8030000ec
:020000040000fa
:04012800e8030000e8
:020000040000fa
:04012c00e8030000e4
:020000040000fa
:04013000e8030000e0
:020000040000fa
:04013400e8030000dc
:020000040000fa
:04013800e8030000d8
:020000040000fa
:04013c00e8030000d4
:020000040000fa
:04014000e8030000d0
:020000040000fa
:04014400e8030000cc
:020000040000fa
:04014800e8030000c8
:020000040000fa
:04014c00e8030000c4
:020000040000fa
:04015000e8030000c0
:020000040000fa
:04015400e8030000bc
:020000040000fa
:04015800e8030000b8
:020000040000fa
:04015c00e8030000b4
:020000040000fa
:04016000e8030000b0
:020000040000fa
:04016400e8030000ac
:020000040000fa
:04016800e8030000a8
:020000040000fa
:04016c00e8030000a4
:020000040000fa
:04017000e8030000a0
:020000040000fa
:04017400e80300009c
:020000040000fa
:04017800e803000098
:020000040000fa
:04017c00e803000094
:020000040000fa
:04018000e803000090
:020000040000fa
:04018400e80300008c
:020000040000fa
:04018800e803000088
:020000040000fa
:04018c00e803000084
:020000040000fa
:04019000e803000080
:020000040000fa
:04019400e80300007c
:020000040000fa
:04019800e803000078
:020000040000fa
:04019c00e803000074
:020000040000fa
:0401a000e803000070
:020000040000fa
:0401a400e80300006c
:020000040000fa
:0401a800e803000068
:020000040000fa
:0401ac00e803000064
:020000040000fa
:0401b000e803000060
:020000040000fa
:0401b400e80300005c
:020000040000fa
:0401b800e803000058
:020000040000fa
:0401bc00e803000054
:020000040000fa
:0401c000e803000050
:020000040000fa
:0401c400e80300004c
:020000040000fa
:0401c800e803000048
:020000040000fa
:0401cc00e803000044
:020000040000fa
:0401d000e803000040
:020000040000fa
:0401d400e80300003c
:020000040000fa
:0401d800e803000038
:020000040000fa
:0401dc00e803000034
:020000040000fa
:0401e000e803000030
:020000040000fa
:0401e400e80300002c
:020000040000fa
:0401e800e803000028
:020000040000fa
:0401ec00e803000024
:020000040000fa
:0401f000e803000020
:020000040000fa
:0401f400e80300001c
:020000040000fa
:0401f800e803000018
:020000040000fa
:0401fc00e803000014
:020000040000fa
:04020000e80300000f
:020000040000fa
:04020400e80300000b
:020000040000fa
:04020800e803000007
:020000040000fa
:04020c00e803000003
:020000040000fa
:04021000e8030000ff
:020000040000fa
:04021400e8030000fb
:020000040000fa
:04021800e8030000f7
:020000040000fa
:04021c00e8030000f3
:020000040000fa
:04022000e8030000ef
:020000040000fa
:04022400e8030000eb
:020000040000fa
:04022800e8030000e7
:020000040000fa
:04022c00e8030000e3
:020000040000fa
:04023000e8030000df
:020000040000fa
:04023400e8030000db
:020000040000fa
:04023800e8030000d7
:020000040000fa
:04023c00e8030000d3
:020000040000fa
:04024000e8030000cf
:020000040000fa
:04024400e8030000cb
:020000040000fa
:04024800e8030000c7
:020000040000fa
:04024c00e8030000c3
:020000040000fa
:04025000e8030000bf
:020000040000fa
:04025400e8030000bb
:020000040000fa
:04025800e8030000b7
:020000040000fa
:04025c00e8030000b3
:020000040000fa
:04026000e8030000af
:020000040000fa
:04026400e8030000ab
:020000040000fa
:04026800e8030000a7
:020000040000fa
:04026c00e8030000a3
:020000040000fa
:04027000e80300009f
:020000040000fa
:04027400e80300009b
:020000040000fa
:04027800e803000097
:020000040000fa
:04027c00e803000093
:020000040000fa
:04028000e80300008f
:020000040000fa
:100400004f1621000eff2c000e0188000000000096
:10041000000020000000e000020032000001200087
:100420002002880014000700eb0007000000e00035
:1004300003003a0020622100010020000200370082
:100440000000200001002000810f70000100320038
:100450000f000700000020000000e0000200320052
:1004600000000200000000001e0d0200000000005d
:100470000040da000000fe00200020000000e00044
:1004800002003200100020009001880000000600e9
:10049000a1028800800478000000eb001f003700f4
:1004a000e284440054a0b4009905ba00e2844400f8
:1004b00054a0b4009906ba00e284440054a0b400e9
:1004c0000006eb00476fde00fd07b200ae018800ba
:1004d000636ce10003003a000ad801000000eb0061
:1004e0000e003700606ce10008003a00004deb00a0
:1004f0000a05e800020039003420ec000af0a000f0
:100500008b05e900f9ff3e00040037006168e10057
:10051000010032000086eb000b00070019c7ba008b
:100520000e04e0001905ba0003003a000a00e000da
:10053000dbff3a0000000600fe07b200ae028800b2
:100540008a047800f5ff37000cd0a300e20f4d00bd
:100550001c00390089027800354dba000a05e80010
:10056000020039003420ec000af0a0008b05e900fd
:100570000f003200254dba000a05e80002003900dc
:100580003420ec000af0a0008b05e90008003200de
:100590000c00e0000600320015cdba000a05e800a4
:1005a000020039003420ec000af0a0008b05e900bd
:1005b0008984e80054a0b4000b00e000e2ff3a0098
:1005c000000006009902ba00055d78008b05e9007d
:1005d000f7ff3200c82ade00055d78008b05e900d0
:1005e000f3ff32000c00e000f1ff320019ddba0029
:1005f000eeff37000000fa000108a9000080fa00b1
:10060000004006003600f800809fbe00829fbe00ba
:10061000849fbe00869fbe000000fa000068a9000b
:1006200033090700c00607000080fa004f03be0030
:100630004f02be004f01be004f00be003600f90061
:10064000004006003600f800809fbe00829fbe007a
:10065000849fbe00869fbe000000fa000368a900c8
:10066000008180001181800061004000e08048002e
:100670000081880011818800480207000080fa008c
:100680004f03be004f02be004f01be004f00be0030
:100690003600f90000400600809fbe000000fa000e
:1006a00001a8a9000118800020002100010878009d
:1006b00011188000200021001100980021188000ee
:1006c0002000210021009800311880002000210026
:1006d000310098004118800020002100410098005e
:1006e00010c0b3000af0b7000080fa004f00be004f
:1006f000004006003600f800809fbe00829fbe00ca
:10070000849fbe00869fbe000000fa000188a900f9
:10071000e1808000d0808000808f50000200320095
:10072000a3080700010037001e70ef000080fa00e8
:100730004f03be004f02be004f01be004f00be007f
:100740003600f900004006003600f800809fbe0029
:10075000829fbe00849fbe00869fbe000000fa00fc
:100760000168a90010118000640060000000e00032
:10077000010032002242a9001011800062006000d6
:100780000000e000060032002222a9000500370028
:100790003011800000407800e508070001003700b4
:1007a0000000000010118000610060000000e00007
:1007b000f7ff3a000080fa004f03be004f02be0070
:1007c0004f01be004f00be003600f9000040060099
:1007d0000040da000000fe000000050003f0a20067
:1007e000889fbe008a9fbe008c1f78001b010700f7
:1007f000220133006450e1004f0032006420e10028
:100800005200320003826c0007003b000905d00053
:100810000306d000820f54000c065d000200390070
:1008200002003200890178000306780085825500b5
:1008300004003d000003fd008103fd008502ea0085
:100840008b854200840f720002003b0060001000a4
:10085000e08018006011b8000005eb007a28e10084
:100860000a00390006007800c75ddd00f707b20016
:10087000878075002d003700828171000a017800a1
:10088000610560008180d1000080d3008502e9000d
:10089000f9ff3b00060440008784480002003b004b
:1008a00060041400e0841c000988a30007003200e3
:1008b0008a81710082817100610164008904d10024
:1008c0000884d3008b05e800170037000978a300df
:1008d00013003a000b00e000130034008b05e90020
:1008e0000804440089844c000a4474000978a30079
:1008f0000d003a000b00e000070034008b05e90012
:100900000804440089844c0001003a000b002000d8
:100910000978a300f7ff32000001eb000200370066
:10092000828171000a017800910007000cf0a70095
:1009300001f0a000da0037006420e10002003a0074
:10094000838f6c00da0033000801be000200be0095
:10095000d3003700889fbe008a9fbe008c1f78009e
:10096000be000700c500330003866c006450e10040
:100970002e0032006420e100330032006150e100bb
:100980002f0032006120e1003100320085855500e2
:10099000eb07b00009002000080420000500370024
:1009a0000804440089844c000a0031000603430017
:1009b00087834b000001530081815b00f8ff330007
:1009c0000203be000800a0000804440089844c0013
:1009d000f6ff3900c639dd008301730001003200e3
:1009e000130020008904d1000884d3000998a300d3
:1009f000050032000800a7000300a0008904d10010
:100a00000884d3008b05e8008904d1000884d30052
:100a10000001eb000281d2005500070001f0a100a7
:100a20000cf0a70001f0a0009d0037006420e10059
:100a30009f0032000801be000200be00f7ff370031
:100a40006120e1009a0032006000b800f3ff370037
:100a50000000200001f82700f0ff370014002000fc
:100a6000ca003700f4ff2f00c80037000001be00a5
:100a7000650007000470a70003f0a1006509b1003c
:100a8000160032000d0035006828e1000600350030
:100a9000f0ff2f00f1ff27000300e00013003b00f0
:100aa000010028000000050000004000818048008f
:100ab0008502e900fcff3a0008003700f88f420089
:100ac00002003c008000eb00000005008100d10026
:100ad0000080d3008502e800fcff3a000300e0003c
:100ae00002003b0060001000e080180000000600db
:100af0000001be00440007000470a70003f0a1003d
:100b000003f8a30013003a006509b1001000320099
:100b1000090035006928e1000200350001002800c5
:100b20000000050000004000818048008502e900c7
:100b3000fcff3a0000000600f88f42000500350077
:100b40008100d1000080d3008502e800fcff3a005c
:100b5000000006008000eb00000005004f89de0069
:100b600082017800a40037006011b800b20037009d
:100b700081002000618055000b003d000b0020002b
:100b800061fe2f000100e1001d0034008281710030
:100b9000610164008904d1000884d3000000e800ea
:100ba000faff3a0071002000610064000300700049
:100bb000020060000900320061044400e0844c003f
:100bc0000988a500050032008b05e8006808e100ef
:100bd00002003a008904d1000884d300f20f2000fb
:100be0000258e10005003d00c75ddd00f907b200d5
:100bf0008980750008007800000006000bf82700c7
:100c00008b00780000000500c70ade00f107b20083
:100c1000f50fb20008003200e1cf420002003200be
:100c20000170a00024000500810f70000100320057
:100c30000408050044000500810f700002003a001e
:100c4000140005008502e9000000400081c0480052
:100c5000fcff3b000170a000240005000004be0062
:100c6000e9ff07000003be000405be000200be004d
:100c7000e5ff0700844f7500000006000200be007b
:100c80006450e100050036006420e10002003600f7
:100c90000968a30001003a000800be000160a0003e
:100ca0004f0678004f05be004f04be00000006004e
:100cb000f0ff2f00f1ff2700f9ff3700889fbe00eb
:100cc0008a9fbe008c1f7800e4ff0700ebff330013
:100cd00003866c006450e100240032006420e100cf
:100ce000270032006150e100220032006120e10063
:100cf000210032008b854200eb07b1000134b800bf
:100d0000003ab8000804420089844a00013ab80059
:100d10000030b8008880400009014a000400330018
:100d20000000400081804800020149008b05e90075
:100d3000c909dd00830170000100320013002000aa
:100d4000c814de004814dd004709de001200b200be
:100d5000c808de000884700085ff070001f0a100cc
:100d60000cf0a70001f0a000cdff37006120e100ea
:100d7000cfff32000801be000200be00f7ff3700bf
:100d80006150e100fcff3a00c9ff3700889fbe00b8
:100d90008a9fbe00841f7800b0ff07004f007800d4
:100da00011003300f0ff2f00838f6c0006003b0022
:100db000040565000a00a7000800370009f0a60036
:100dc0001000200008003700820f5400838f5c0061
:100dd000030039001000200001003e000000200048
:100de00009f0a7000000ea004f05be004f04be0056
:100df0000000e00000000600881f7800030478006f
:100e00000300e00007003d0060001000e0801800d3
:100e100060011900e081190002003b0001f02d0083
:100e2000030037000400070008f0a70001f0a0004d
:100e30004f04780000000600889fbe008a9fbe0015
:100e400000827000040271000482710026003200ea
:100e50000004be000200be006011b8006b09200053
:100e6000950220000182cf000a0039000541b1003f
:100e70000082cf00070039000541b1000982cf0090
:100e8000040039000541b1000882cf00010039009b
:100e90000541b10005425200120032000a003b0039
:100ea00082817100610164008100d1000080d30063
:100eb0008984d3000884d3008b05e8000442e8004d
:100ec000f7ff3a00070037000804440089844c000b
:100ed00000004800818048008b05e9000442e900d9
:100ee000f9ff3a0022ff07004f05be004f04be0085
:040ef00000000600f8
:020000040000fa
:100ef4000200fa00004f78001e4078000004e00071
:100f04000d003a0010708000610060000000e000f5
:100f1400090032000041eb0000002000010a2c000f
:100f24002b05070012c0b3000000200001172400a5
:100f340027050700080037000041eb0000002000ef
:100f4400011724002205070012c0b300000020008e
:100f5400010a2c001e0507000080fa0000000600ac
:100f64000000fa000041eb000000200001222400f0
:100f7400170507000041eb000000200001222c00af
:100f84001305070000d0220011132000a507070055
:100f94000080fa00000006000000fa0010708000d3
:100fa400610060000000e000c000320016d0bf0005
:100fb4000004e0000400320000402b00414c2000fb
:100fc400980707001670ef0017d0bf000080fb00e1
:100fd400cf80de000201200003002000820f5000b9
:100fe400838f5800af003e00000601001000370058
:100ff4001900370022003700320037003300370071
:1010040046003700470037005a0037005b003700be
:10101400830037008400370092003700a1003700b6
:10102400a00037009f0037009e0037008f00370074
:101034002030ef002230ef000041eb006000b800e8
:10104400e304070012c0b3006000b800e004070026
:1010540010c0b30017f0b700028180001381800034
:10106400803e200001002000800f5100818f590034
:101074009b00360020c0b30017f0b700990037007a
:101084001430ef0060808000cf80de00b2fe0700e5
:101094000041eb00ce04070060808000cf80de00ba
:1010a400adfe070012c0b300c904070030c0b3008e
:1010b40017f0b70064eea800254ea90064cea9007d
:1010c400880037008900070086003700a080800070
:1010d4000000e800a080880070808000cf80de00df
:1010e4009dfe07000041eb00b904070080808000ea
:1010f4000000ea00cf80de0097fe070012c0b300b4
:10110400b304070050c0b30017f0b70064eea900a1
:10111400254ea90064cea8007200370073000700b2
:1011240070003700a08080000000e800a0808800e4
:10113400808080000000ea00cf80de0086fe070089
:101144000041eb00a204070070808000cf80de0025
:1011540081fe070012c0b3009d04070070c0b300f5
:1011640017f0b70064eea900254ea80064cea900cc
:101174005c0037005d0007005a0037001430ef00b0
:10118400008180001181800000007800610060000f
:10119400004078000004e000040032007080800009
:1011a400cf80de006cfe07000400370070808000f2
:1011b4000000ea00cf80de0067fe07000041eb007c
:1011c4008304070000818000118180000000780002
:1011d40061006000004078000004e0000500320077
:1011e400708080000000ea00cf80de005afe070015
:1011f4000300370070808000cf80de0056fe0700b9
:1012040012c0b3007204070090c0b30017f0b70017
:1012140064eea800254ea80064cea8003100370073
:10122400320007002f0037001430ef007080800078
:101234000000ea00cf80de0047fe07000041eb001b
:101244006304070070808000cf80de0042fe070048
:1012540012c0b3005e040700b0c0b30017f0b700bb
:1012640020003700210007001e0037001430ef0073
:1012740090808000cf80de0037fe070012c0b300ec
:101284005304070090808000cf80de0032fe070008
:101294000041eb004e0407001400070000000000aa
:1012a400100037001770ef000e00370010c0b300b5
:1012b40016f0b7000041eb006000b80044040700da
:1012c40012c0b3006000b800410407002030ef00f2
:1012d4002230ef0020c0b30017f0b7000100370040
:1012e400000000000080fa00000006000200fa007e
:1012f400889fbe008a1f78000040eb00004f7800f2
:10130400a0808000e30f50000200340014ff0700a7
:101314001430ef00488a8000598a8000b08a800027
:101324006c005000cf80de000bfe07001ac0b30033
:101334000001be000800be00c7fd07000000e00079
:10134400010035000045eb000a04e00032003200e1
:10135400088a8000198a8000908a80006c005000fe
:10136400cf80de00fcfd07001ac0b3000001be0000
:101374000800be00b8fd07000000e00001003500d1
:101384000045eb000a04e00023003200288a8000b4
:10139400398a8000a08a80006c005000cf80de0073
:1013a400edfd07001ac0b3000001be000800be0036
:1013b400a9fd07000000e000010035000045eb0036
:1013c4000a04e0000300320030c0b300004f78008c
:1013d4006f013700448a8000558a8000008a8000ab
:1013e400118a800018c0b3000001be000400be00d2
:1013f40099fd07000000e000010035000044eb0007
:10140400084078000004a2000080fb00004078003f
:10141400b7fe07005e013700288a8000398a800001
:10142400a08a8000cf80de00cbfd07001ac0b30085
:101434000001be000800be0087fd07000000e000b8
:10144400010035000045eb000a04e000030032000f
:1014540030c0b300004f78004d013700488a800047
:10146400598a8000b08a8000cf80de00bafd070070
:101474001ac0b3000001be000800be0076fd0700dc
:101484000000e000010035000045eb000a04e00024
:101494002a003a00688a8000798a8000c08a800025
:1014a400cf80de00acfd07001ac0b3000001be000f
:1014b4000800be0068fd07000000e00001003500e0
:1014c4000045eb000a04e0001c003a00288a800072
:1014d400398a8000a08a8000cf80de009efd07004c
:1014e4001ac0b3000001be000800be005afd070088
:1014f4000000e000010035000045eb000a04e000b4
:1015040011003200688a8000798a8000c08a8000d5
:10151400cf80de0090fd07001ac0b3000001be00ba
:101524000800be004cfd07000000e000010035008b
:101534000045eb000a04e0000300320010c0b300d1
:10154400004f780012013700088a8000198a800051
:10155400908a8000cf80de007ffd07001ac0b300b0
:101564000001be000800be003bfd07000000e000d3
:10157400010035000045eb000a04e0002a003a00af
:10158400e8898000f9898000808a8000cf80de00ad
:1015940071fd07001ac0b3000001be000800be00c0
:1015a4002dfd07000000e000010035000045eb00c0
:1015b4000a04e0001c003a00e8898000f9898000f0
:1015c400808a8000cf80de0063fd07001ac0b3006c
:1015d4000001be000800be001ffd07000000e0007f
:1015e400010035000045eb000a04e0001100320060
:1015f400288a8000398a8000a08a8000cf80de009b
:1016040055fd07001ac0b3000001be000800be006b
:1016140011fd07000000e000010035000045eb006b
:101624000a04e0000300320020c0b300004f780039
:10163400d7003700e8898000f9898000d08a8000cb
:10164400cf80de0044fd07001ac0b3000001be00d5
:101654000800be0000fd07000000e00001003500a6
:101664000045eb000a04e0000e003200e889800027
:10167400f9898000808a8000cf80de0036fd070073
:101684001ac0b3000001be000800be00f4fc07004d
:101694000000e00001003c000045eb000a04e0000b
:1016a40070003a00088a8000198a8000e08a80006d
:1016b400cf80de0028fd07001ac0b3000001be0081
:1016c4000800be00e4fc07000000e0000100350053
:1016d4000045eb000a04e0000e003200088a800096
:1016e400198a8000908a8000cf80de001afd0700ee
:1016f4001ac0b3000001be000800be00d8fc0700f9
:101704000000e00001003c000045eb000a04e0009a
:1017140054003a00288a8000398a8000f08a8000c8
:10172400cf80de000cfd07001ac0b3000001be002c
:101734000800be00c8fc07000000e00001003500fe
:101744000045eb000a04e0000e003200288a800005
:10175400398a8000a08a8000cf80de00fefc07006a
:101764001ac0b3000001be000800be00bcfc0700a4
:101774000000e00001003c000045eb000a04e0002a
:1017840038003a00488a8000598a8000008b800023
:10179400cf80de00f0fc07001ac0b3000001be00d9
:1017a4000800be00acfc07000000e00001003500aa
:1017b4000045eb000a04e0000e003200488a800075
:1017c400598a8000b08a8000cf80de00e2fc0700e6
:1017d4001ac0b3000001be000800be00a0fc070050
:1017e4000000e00001003c000045eb000a04e000ba
:1017f4001c003a00688a8000798a8000108b80007f
:10180400cf80de00d4fc07001ac0b3000001be0084
:101814000800be0090fc07000000e0000100350055
:101824000045eb000a04e00011003200688a8000e1
:10183400798a8000c08a8000cf80de00c6fc070061
:101844001ac0b3000001be000800be0084fc0700fb
:101854000000e00001003c000045eb000a04e00049
:101864000300320040c0b300004f78004800370046
:10187400e8898000f9898000d08a8000cf80de006a
:10188400b5fc07001ac0b3000001be000800be008a
:1018940073fc07000000e00001003c000045eb0081
:1018a4000a04e0003a003200088a8000198a8000a5
:1018b400e08a8000cf80de00a7fc07001ac0b300d6
:1018c4000001be000800be0065fc07000000e00047
:1018d40001003c000045eb000a04e0002c0032004b
:1018e400288a8000398a8000f08a8000cf80de0058
:1018f40099fc07001ac0b3000001be000800be0036
:1019040057fc07000000e00001003c000045eb002c
:101914000a04e0001e003200488a8000598a8000d0
:10192400008b8000cf80de008bfc07001ac0b30060
:101934000001be000800be0049fc07000000e000f2
:1019440001003c000045eb000a04e00010003200f6
:10195400688a8000798a8000108b8000cf80de0046
:101964007dfc07001ac0b3000001be000800be00e1
:101974003bfc07000000e00001003c000045eb00d8
:101984000a04e000020032000040eb00004f78003f
:101994001e4078000004e00003003a0020c0b300b9
:1019a40018f0b700170037001e407800e24f5000cf
:1019b40003003a0040c0b30018f0b700110037002c
:1019c4001e407800e14f500003003a0060c0b300ad
:1019d40018f0b7000b0037001e407800e34f5000aa
:1019e40003003a0080c0b30018f0b70005003700c8
:1019f4001e407800e44f500002003a0000c1b300da
:101a040018f0b70018d0bf008080fb0017d0bf00cb
:101a14000080fb000000e900808f500002003200cb
:101a240018d0bf0017f0b7004f0578004f04be0070
:101a34000080fa00000006000200fa00ad0407006e
:101a4400800007000c0107008f010700d404070081
:101a540098010700eb0307006e020700010037003e
:101a640000000000290407000004e000fcff32002d
:101a74002a04070021040700000f78001e007800e4
:101a8400100078008000eb0036fc0700323323009e
:101a94003305240088fc07000200200003582400ba
:101aa400abfb0700d2cc2c00c304240082fc07004b
:101ab4000001be000000200081202400a4fb0700d8
:101ac40002002000030a240043fb0700e089880089
:101ad400f18988001e80e800100078008000eb0087
:101ae40020fc0700323323003305240072fc070076
:101af400020020000358240095fb0700d2cc2c00e0
:101b0400c30424006cfc07000001be000000200098
:101b1400812024008efb070002002000030a240019
:101b24002dfb0700008a8800118a88009e00780037
:101b340064804000100078008000eb0009fc07007e
:101b440032332300330524005bfc0700020020002d
:101b5400035824007efb0700d2cc2c00c3042400cd
:101b640055fc07000001be00000020008120240075
:101b740077fb070002002000030a240016fb07007d
:101b8400208a8800318a88009e00780066804000a0
:101b9400100078008000eb00f2fb070032332300d2
:101ba4003305240044fc07000200200003582400ed
:101bb40067fb0700d2cc2c00c30424003efc0700c2
:101bc4000001be00000020008120240060fb07000b
:101bd40002002000030a2400fffa0700408a88005c
:101be400518a88009e0078006880400010007800c8
:101bf4008000eb00dbfb07003233230033052400b5
:101c04002dfc0700020020000358240050fb0700ad
:101c1400d2cc2c00c304240027fc07000001be0022
:101c2400000020008120240049fb0700020020005e
:101c3400030a2400e8fa0700608a8800718a880091
:101c440088ff37000000fa0013e1a90011e1a900a0
:101c54001061a8001021a90081088000f0fc2f0069
:101c640000806000800888000a21ef000621ef0050
:101c7400202620007008880000a025006008880045
:101c84002142800080ff2f00008060000000a0003f
:101c9400204288000108a9002108a80011e1a80039
:101ca4000080fa00000006000400fa00881f780093
:101cb400008fbe0021088000f0fc2f00008060002f
:101cc400200888001e0178009e0190000068290009
:101cd40081c124001efb070018c0b30002f02f00ce
:101ce400f37724005efb07000000e00001003c00e5
:101cf4000044eb000804e000540032002108800096
:101d0400f0fc2f00008060000040a0002008880044
:101d14001e0178009e0190000068290081c1240002
:101d24000bfb0700020020000310240008fb07003f
:101d340018c0b30002f02f00f377240048fb07001b
:101d44000000e00001003c000044eb000804e00057
:101d54003200320021088000f0fc2f000080600077
:101d64000050a000200888001e0178009e01900009
:101d74000068290081c12400f5fa07000200200050
:101d840003282400f2fa070018c0b30002f02f0061
:101d9400f377240032fb07000000e00001003c0060
:101da4000044eb000804e000100032002108800029
:101db4000003200001007000200888001e01780044
:101dc4009e0190000068290081c12400e0fa070008
:101dd4000200200003382400ddfa070022fb07007c
:101de4000000780010088800200037001e017800e9
:101df4009e0190000068290081c12400d4fa0700e4
:101e04000200200003282400d1fa070016fb070073
:101e14000000780010088800140037001e017800c4
:101e24009e0190000068290081c12400c8fa0700bf
:101e34000200200003102400c5fa07000afb070073
:101e44000000780010088800080037001e017800a0
:101e54009e0190000068290081c12400bcfa07009b
:101e640001fb070000007800100888004f04780088
:101e74000080fa00000006000000fa0005e1a90055
:101e840021088000f0fc2f00008060000050a000ba
:101e9400200888000421a90000002000812c2400cf
:101ea40081ff07000068a9002068a80005e1a800d8
:101eb4000080fa00000006000400fa00881f780081
:101ec400008fbe00f1088000f0fc2f00008060004d
:101ed400f00888001e0178009e0190000068290027
:101ee40081c124009afa070018c0b30002f02f0041
:101ef400f3772400dafa07000000e00001003c0058
:101f04000044eb000804e00054003200f1088000b3
:101f1400f0fc2f00008060000040a000f008880062
:101f24001e0178009e0190000068290081c12400f0
:101f340087fa0700020020000310240084fa070037
:101f440018c0b30002f02f00f3772400c4fa07008e
:101f54000000e00001003c000044eb000804e00045
:101f640032003200f1088000f0fc2f000080600095
:101f74000050a000f00888001e0178009e01900027
:101f84000068290081c1240071fa070002002000c2
:101f9400032824006efa070018c0b30002f02f00d3
:101fa400f3772400aefa07000000e00001003c00d3
:101fb4000044eb000804e00010003200f108800047
:101fc4000003200001007000f00888001e01780062
:101fd4009e0190000068290081c124005cfa07007a
:101fe400020020000338240059fa07009efa070073
:101ff4000000780010088800200037001e017800d7
:102004009e0190000068290081c1240050fa070055
:1020140002002000032824004dfa070092fa07006a
:102024000000780010088800140037001e017800b2
:102034009e0190000068290081c1240044fa070031
:10204400020020000310240041fa070086fa07006a
:102054000000780010088800080037001e0178008e
:102064009e0190000068290081c1240038fa07000d
:102074007dfa070000007800100888004f047800fb
:102084000080fa00000006000000fa001fe1a90029
:102094001e21a90000002000a147240086ff07009c
:1020a4000368a9002368a8001fe1a8000080fa00c3
:1020b400000006000000fa001160800080ff2f007d
:1020c400008060001060880000fa20002060880012
:1020d40023aca800238ca80011618000f03f2f00de
:1020e4000080600000a0a000106188003000200083
:1020f40020618800c3aca800c38ca80011668000ce
:10210400f03f2f000080600000a0a000106688004f
:10211400300020002066880001eca8000080fa004e
:10212400000006000000fa00889fbe008a9fbe00df
:10213400c4898000d5898000a0898000b18980008d
:1021440018c0b3000001be000400be0042fa07003c
:102154000000e000010035000044eb000804e0004a
:102164000f003200a8898000b9898000ca898000e4
:10217400db89800028d0bf000080fb00cf80de0018
:1021840075fa07000001be000a00be0093f90700bb
:102194000801be0070010700c0898800d189880049
:1021a400c4898000d5898000a0898000b18980001d
:1021b40018c0b3000001be000400be0028fa0700e6
:1021c4000000e00001003c000044eb000804e000d3
:1021d4000f003200a8898000b9898000ca89800074
:1021e400db89800028d0bf000080fb00cf80de00a8
:1021f40059fa07000001be000a00be0076f9070084
:102204000801be003c010700c0898800d18988000c
:10221400c0898000d189800018c0b3006011b80063
:102224000ffa07000000e00001003c000044eb004e
:102234000804e00004003200c3cca90024eea80086
:10224400c3eca80003003700c3eca90024cea80007
:10225400c3cca800c0898000d18980001001070088
:10226400020020000322240093fa07001ffa07004b
:102274000000780030668800848980009589800099
:10228400608980007189800018c0b3000001be001d
:102294000400be00f0f907000000e0000100350072
:1022a4000044eb000804e0000f003200688980005d
:1022b400798980008a8980009b89800028d0bf00aa
:1022c4000080fb00cf80de0023fa07000001be007f
:1022d4000a00be0041f907000801be001e01070004
:1022e400808988009189880084898000958980008c
:1022f400608980007189800018c0b3000001be00ad
:102304000400be00d6f907000000e00001003c0014
:102314000044eb000804e0000f00320068898000ec
:10232400798980008a8980009b89800028d0bf0039
:102334000080fb00cf80de0007fa07000001be002a
:102344000a00be0024f907000801be00ea000700e5
:102354008089880091898800808980009189800023
:1023640018c0b3006011b800bbf907000000e0001a
:10237400010035000044eb000804e00004003200d2
:1023840023cca90015eea80023eca8000300370015
:1023940023eca90015cea80023cca80080898000d6
:1023a40091898000be00070002002000032224005f
:1023b40041fa0700cdf90700000078003061880079
:1023c4004f05be004f04be000080fa000000060066
:1023d4000600fa00008fbe00424798004e4090006d
:1023e400e14f500005003a001e0178009e01900064
:1023f4006289880073898800040037001e01780010
:102404009e019000a2898800b38988000080fa00a8
:10241400000006000000fa002002a900011180005b
:1024240090ff2f00008060000011880020a2a90006
:102434002062a800500520004011880023a2a900b2
:1024440023e2a9000188a9002188a80011118000b5
:10245400f0f32f0000806000101188000168a900cb
:102464002168a80021e2a8002342a8000080fa0005
:10247400000006000600fa001007980021079800e3
:102484000040eb00004f78000e0037000000000011
:102494001111800000202000008060000000e00096
:1024a400fbff3a001e009000104078000080fb0003
:1024b400201188001e0090000000e800100798001a
:1024c4001e4fe8009e80fb002e009000808f50007d
:1024d400eeff35000080fa00000006000a00fa0052
:1024e4002007980031079800420798000040eb004d
:1024f400004f78002e009000804078002e0090005d
:102504004880de000040780000c068009e406800fb
:10251400e0cfb30000cf68000000eb001007980084
:10252400080037001e009000ce009000008040009c
:10253400104078001e4f68001e0090000000e80064
:10254400100798009e0090003e009000808f50007d
:10255400f4ff35001e4078000080fa0000000600f9
:102564000c00fa00889fbe008a9fbe0030079800c6
:1025740041079800520798008f0478000f007800f4
:10258400000578004e009000660440000800e90051
:1025940010079800080078000000e8000000e80038
:1025a4000000d100800040000f00780081874700c0
:1025b4000000e8000000d10000004000200798005f
:1025c4002e009000e1cfb300014878003e00900057
:1025d4004880de00804078002e0090001140980072
:1025e4003e009000804078002e009000214098002a
:1025f4004e0090004880de00804078002e0090005d
:10260400314098004e009000804078002e009000e9
:10261400414098000000eb00000f78000a003700ea
:102624009e007800658040009e0078005e01900066
:1026340081004100914078002e019000000041008b
:10264400014878001e0fe8004e0090009e007800bc
:10265400808f5000f2ff35004e009000e5054000e9
:102664005e019000ce0090003e0090009bff0700aa
:10267400ae0090008b804000804878002e009000cf
:10268400880078008d0007008a07780089077800a1
:102694004f05be004f04be000080fa000000060093
:1026a4000400fa00881f7800008fbe0018c0b30031
:1026b4006011b8001e0078009e009000e8f8070042
:1026c4000000e00001003d000044eb000804e000cd
:1026d400030032001e0078009e00900003003700c3
:1026e4001e0078009e00900001f0a2004f047800c4
:1026f4000080fa00000006000800fa00881f780035
:10270400008fbe00220798003307980018c0b3005a
:102714002e019000be0190001e0078009e009000e3
:10272400cff807000000e00001003c000044eb008b
:102734000804e000030032001e0078009e009000b0
:10274400020037002e009000be0090004f04780075
:102754000080fa00000006000800fa00881f7800d4
:10276400008fbe00220798003307980018c0b300fa
:102774002e019000be0190001e0078009e00900083
:10278400b5f807000000e000010035000044eb004c
:102794000804e000030032001e0078009e00900050
:1027a400020037002e009000be0090004f04780015
:1027b4000080fa00000006000c00fa00881f780070
:1027c400008fbe0022079800330798004407980042
:1027d4005507980018c0b3004e019000de01900028
:1027e4001e0078009e0090009df807000000e000a5
:1027f40001003c000044eb000804e0000400320047
:102804004e019000de019000028fbe000e003700e2
:1028140018c0b3002e019000be0190001e00780085
:102824009e0090008cf807000000e00001003500d5
:102834000044eb000804e000030032002e01900085
:10284400be019000028fbe001e0078009e00900022
:102854004f0478000080fa00000006000400fa002b
:10286400008fbe00b2fd2000930424001e007800f7
:102874009e00900036f80700020020004333240035
:102884000df907000080fa00000006000400fa00b9
:10289400008fbe00b2fd2000930424001e007800c7
:1028a4009e00900004f90700020020004333240036
:1028b40027f807000080fa00000006000600fa006e
:1028c40010079800210798000040eb00004f7800a3
:1028d40043000700ae009000810f50001100340047
:1028e4000040eb00004f7800060037001e80fb001c
:1028f4009e00900000804000104078000b0007000c
:102904001e4fe8009e80fb002e009000808f500038
:10291400f6ff35002e0007000004e00001003a0035
:10292400220007000080fa00000006000200fa00fe
:10293400004f7800d0808000a10221000080400078
:102944001e487800d08080000000e800d080880015
:10295400d1808000f0072000808f500001003400f7
:102964001a30ef000080fa00000006000200fa00ae
:10297400e0808000a102210000804000104f780018
:10298400e08080000000e800e0808800e1808000b2
:10299400f0072000808f5000010034001c30ef004d
:1029a4001e4078000080fa00000006000200fa00d1
:1029b40010c0b3001ef0b700ecff0700004f780012
:1029c4001e80fb00201188000080fa000000060031
:1029d4000000fa001ed0bf000080fa0000000600cc
:1029e4000200fa00d080800001082000808050009e
:1029f400e0808000008f40001e0078000080fa0014
:102a0400000006000000fa0021e3a9002143a80009
:102a140001198000f0cf2f000080600000198800a9
:102a24002043a90001198000000e2000010070005d
:102a34000019880011198000f0ff21000080600057
:102a4400101988002343a80011198000f0cf2f002b
:102a540000806000101988001119800030f82f00e0
:102a6400008060000040a000101988002203a90023
:102a74002223a90025e3a900f0c0b30024e3b70092
:102a840021198000f00f2e008080600000f02000eb
:102a940001007000201988003303a9002e0ea8003d
:102aa4002f6ea8006f2ea8004feea8000f8ea8006e
:102ab40030c3a8003163a8002e03a80031e3a800a6
:102ac4003143a8004119800000fc2f000080600001
:102ad4004019880028e3a90001a8a90021a8a8009a
:102ae40021e3a8000080fa00000006000000fa00bc
:102af4002023a8000080fa00000006000000fa006d
:102b0400200021000080fa00000006000000fa0006
:102b14000ad0bf000080fa00000006000000fa009e
:102b24000a70ef000080fa00000006000200fa00bc
:102b3400004f78002a0007000000e0000c00340079
:102b440020818000a10a2100008040001e487800f6
:102b5400208180000000e80020818800218180001d
:102b6400f0072000808f5000010034002430ef0073
:102b74000080fa00000006000200fa0030818000a4
:102b8400a10a210000804000104f780030818000ad
:102b94000000e8003081880031818000f0072000c7
:102ba400808f5000010034002630ef001e40780072
:102bb4000080fa00000006000000fa002181800075
:102bc40030818000808f50000200320010c0b300ba
:102bd400010037000040eb000080fa00000006000e
:102be4000200fa000500070001082000008f5000d1
:102bf4001e0078000080fa00000006000200fa00bf
:102c04003181800020818000808f500006003400d4
:102c140020818000010820008080500030818000e5
:102c2400008f400003003700218180003081800044
:102c3400008f50001e0078000080fa00000006009b
:020000040000fa
:102c440050110000140000008200000019001e0052
:102c5400002300001e0019000023000028002d009e
:102c640000280000230000000c10000008000000f1
:102c74008200000028000f00000a00001400000079
:102c84001410000006000000800000002010000066
:102c940004000000800000002a110000260000004b
:102ca40080000000281000000200000082000000e4
:102cb40014000000001000000c0000008000000060
:102cc4002a10000080000000800000001a1000009c
:102cd4000600000080000000aa1000008000000030
:102ce40080000000241000000400000080000000a8
:042cf40000000000dc
:020000040000fa
:102cf8000000fa00f0032000303a8800213a8000f2
:102d0800f0f32f0000806000203a8800213a80000c
:102d180000fe2f00008060000000a000203a88001c
:102d28001200200080072000a10920003374200031
:102d3800804978008149780082497800103a8000fb
:102d4800000178000200a000600420007105200046
:102d580023742000804978008149780082497800ee
:102d680000000000113a8000000027008080600009
:102d780000002100808f5000faff3a000000000098
:102d8800113a800000022000008060000000e0008e
:102d9800fbff32000080fa00000006000000fa0085
:102da8000e2eef001e2eef002e2eef003e2eef000f
:102db8004e2eef005e2eef006e2eef00214ea90082
:102dc80060cea90060eea900000ea80011cea900ef
:102dd80011eea90020cea90020eea900102ea8000f
:102de800200ea800216ea800612ea80041eea800c0
:102df8002136800000f82f00008060008001b300b9
:102e0800203688001134800000fc2f00008060000c
:102e18000000a000103488000080fa0000000600be
:020000040000fa
:102e2800f03fb1000180b10006003500ee03090053
:102e380000000000403fb1000180b100fbff3d00f1
:102e48001000b000203fb0000200350000800900eb
:082e580000000000000006006c
:020000040000fa
:02000004000af0
:04afe000cfff00009f
:020000040000fa
:02000004000af0
:04afe400ffff00006b
:020000040000fa
:02000004000af0
:04afe8007fff0000e7
:020000040000fa
:02000004000af0
:04afec005fff000003
:020000040000fa
:02000004000af0
:04aff00038ff000026
:020000040000fa
:02000004000af0
:04aff400ffff00005b
:00000001FF
