:020000040000fa
:080000000002040000000000f2
:020000040000fa
:04000800e803000009
:020000040000fa
:04000c00e803000005
:020000040000fa
:04001000e803000001
:020000040000fa
:04001400e8030000fd
:020000040000fa
:04001800e8030000f9
:020000040000fa
:04001c00e8030000f5
:020000040000fa
:04002000e8030000f1
:020000040000fa
:04002400e8030000ed
:020000040000fa
:04002800e8030000e9
:020000040000fa
:04002c00e8030000e5
:020000040000fa
:04003000e8030000e1
:020000040000fa
:0400340002030000c3
:020000040000fa
:04003800e8030000d9
:020000040000fa
:04003c00e8030000d5
:020000040000fa
:04004000e8030000d1
:020000040000fa
:04004400e8030000cd
:020000040000fa
:04004800fa020000b8
:020000040000fa
:04004c00e8030000c5
:020000040000fa
:04005000e8030000c1
:020000040000fa
:04005400a403000001
:020000040000fa
:040058007a03000027
:020000040000fa
:04005c004c03000051
:020000040000fa
:04006000e8030000b1
:020000040000fa
:04006400e8030000ad
:020000040000fa
:04006800e8030000a9
:020000040000fa
:04006c00e8030000a5
:020000040000fa
:04007000e8030000a1
:020000040000fa
:04007400e80300009d
:020000040000fa
:04007800e803000099
:020000040000fa
:04007c00e803000095
:020000040000fa
:04008000e803000091
:020000040000fa
:04008400e80300008d
:020000040000fa
:04008800e803000089
:020000040000fa
:04008c00e803000085
:020000040000fa
:04009000e803000081
:020000040000fa
:040094002203000043
:020000040000fa
:04009800e803000079
:020000040000fa
:04009c00e803000075
:020000040000fa
:0400a000e803000071
:020000040000fa
:0400a400e80300006d
:020000040000fa
:0400a800e803000069
:020000040000fa
:0400ac00e803000065
:020000040000fa
:0400b000e803000061
:020000040000fa
:0400b400e80300005d
:020000040000fa
:0400b800e803000059
:020000040000fa
:0400bc00e803000055
:020000040000fa
:0400c000e803000051
:020000040000fa
:0400c400e80300004d
:020000040000fa
:0400c800e803000049
:020000040000fa
:0400cc00e803000045
:020000040000fa
:0400d000e803000041
:020000040000fa
:0400d400e80300003d
:020000040000fa
:0400d800e803000039
:020000040000fa
:0400dc00e803000035
:020000040000fa
:0400e000e803000031
:020000040000fa
:0400e400e80300002d
:020000040000fa
:0400e800e803000029
:020000040000fa
:0400ec00e803000025
:020000040000fa
:0400f000e803000021
:020000040000fa
:0400f400e80300001d
:020000040000fa
:0400f800e803000019
:020000040000fa
:0400fc00e803000015
:020000040000fa
:04010000e803000010
:020000040000fa
:04010400e80300000c
:020000040000fa
:04010800e803000008
:020000040000fa
:04010c00e803000004
:020000040000fa
:04011000e803000000
:020000040000fa
:04011400e8030000fc
:020000040000fa
:04011800e8030000f8
:020000040000fa
:04011c00e8030000f4
:020000040000fa
:04012000e8030000f0
:020000040000fa
:04012400e8030000ec
:020000040000fa
:04012800e8030000e8
:020000040000fa
:04012c00e8030000e4
:020000040000fa
:04013000e8030000e0
:020000040000fa
:04013400e8030000dc
:020000040000fa
:04013800e8030000d8
:020000040000fa
:04013c00e8030000d4
:020000040000fa
:04014000e8030000d0
:020000040000fa
:04014400e8030000cc
:020000040000fa
:04014800e8030000c8
:020000040000fa
:04014c00e8030000c4
:020000040000fa
:04015000e8030000c0
:020000040000fa
:04015400e8030000bc
:020000040000fa
:04015800e8030000b8
:020000040000fa
:04015c00e8030000b4
:020000040000fa
:04016000e8030000b0
:020000040000fa
:04016400e8030000ac
:020000040000fa
:04016800e8030000a8
:020000040000fa
:04016c00e8030000a4
:020000040000fa
:04017000e8030000a0
:020000040000fa
:04017400e80300009c
:020000040000fa
:04017800e803000098
:020000040000fa
:04017c00e803000094
:020000040000fa
:04018000e803000090
:020000040000fa
:04018400e80300008c
:020000040000fa
:04018800e803000088
:020000040000fa
:04018c00e803000084
:020000040000fa
:04019000e803000080
:020000040000fa
:04019400e80300007c
:020000040000fa
:04019800e803000078
:020000040000fa
:04019c00e803000074
:020000040000fa
:0401a000e803000070
:020000040000fa
:0401a400e80300006c
:020000040000fa
:0401a800e803000068
:020000040000fa
:0401ac00e803000064
:020000040000fa
:0401b000e803000060
:020000040000fa
:0401b400e80300005c
:020000040000fa
:0401b800e803000058
:020000040000fa
:0401bc00e803000054
:020000040000fa
:0401c000e803000050
:020000040000fa
:0401c400e80300004c
:020000040000fa
:0401c800e803000048
:020000040000fa
:0401cc00e803000044
:020000040000fa
:0401d000e803000040
:020000040000fa
:0401d400e80300003c
:020000040000fa
:0401d800e803000038
:020000040000fa
:0401dc00e803000034
:020000040000fa
:0401e000e803000030
:020000040000fa
:0401e400e80300002c
:020000040000fa
:0401e800e803000028
:020000040000fa
:0401ec00e803000024
:020000040000fa
:0401f000e803000020
:020000040000fa
:0401f400e80300001c
:020000040000fa
:0401f800e803000018
:020000040000fa
:0401fc00e803000014
:020000040000fa
:04020000e80300000f
:020000040000fa
:04020400e80300000b
:020000040000fa
:04020800e803000007
:020000040000fa
:04020c00e803000003
:020000040000fa
:04021000e8030000ff
:020000040000fa
:04021400e8030000fb
:020000040000fa
:04021800e8030000f7
:020000040000fa
:04021c00e8030000f3
:020000040000fa
:04022000e8030000ef
:020000040000fa
:04022400e8030000eb
:020000040000fa
:04022800e8030000e7
:020000040000fa
:04022c00e8030000e3
:020000040000fa
:04023000e8030000df
:020000040000fa
:04023400e8030000db
:020000040000fa
:04023800e8030000d7
:020000040000fa
:04023c00e8030000d3
:020000040000fa
:04024000e8030000cf
:020000040000fa
:04024400e8030000cb
:020000040000fa
:04024800e8030000c7
:020000040000fa
:04024c00e8030000c3
:020000040000fa
:04025000e8030000bf
:020000040000fa
:04025400e8030000bb
:020000040000fa
:04025800e8030000b7
:020000040000fa
:04025c00e8030000b3
:020000040000fa
:04026000e8030000af
:020000040000fa
:04026400e8030000ab
:020000040000fa
:04026800e8030000a7
:020000040000fa
:04026c00e8030000a3
:020000040000fa
:04027000e80300009f
:020000040000fa
:04027400e80300009b
:020000040000fa
:04027800e803000097
:020000040000fa
:04027c00e803000093
:020000040000fa
:04028000e80300008f
:020000040000fa
:100400000f1621000eff2c000e01880000000000d6
:10041000000020000000e000020032000001200087
:100420002002880014000700eb0007000000e00035
:1004300003003a00805f2100010020000200370025
:100440000000200001002000810f70000100320038
:100450000f000700000020000000e0000200320052
:100460000000020000000000d20c020000000000aa
:100470000040da000000fe00200020000000e00044
:1004800002003200100020009001880000000600e9
:10049000a1028800800478000000eb001f003700f4
:1004a000e284440054a0b4009905ba00e2844400f8
:1004b00054a0b4009906ba00e284440054a0b400e9
:1004c0000006eb00476fde00fd07b200ae018800ba
:1004d000636ce10003003a000ad801000000eb0061
:1004e0000e003700606ce10008003a00004deb00a0
:1004f0000a05e800020039003420ec000af0a000f0
:100500008b05e900f9ff3e00040037006168e10057
:10051000010032000086eb000b00070019c7ba008b
:100520000e04e0001905ba0003003a000a00e000da
:10053000dbff3a0000000600fe07b200ae028800b2
:100540008a047800f5ff37000cd0a300e20f4d00bd
:100550001c00390089027800354dba000a05e80010
:10056000020039003420ec000af0a0008b05e900fd
:100570000f003200254dba000a05e80002003900dc
:100580003420ec000af0a0008b05e90008003200de
:100590000c00e0000600320015cdba000a05e800a4
:1005a000020039003420ec000af0a0008b05e900bd
:1005b0008984e80054a0b4000b00e000e2ff3a0098
:1005c000000006009902ba00055d78008b05e9007d
:1005d000f7ff3200c82ade00055d78008b05e900d0
:1005e000f3ff32000c00e000f1ff320019ddba0029
:1005f000eeff37000000fa000108a9000080fa00b1
:10060000004006003600f800809fbe00829fbe00ba
:10061000849fbe00869fbe000000fa000068a9000b
:100620001e090700ab0607000080fa004f03be005a
:100630004f02be004f01be004f00be003600f90061
:10064000004006003600f800809fbe00829fbe007a
:10065000849fbe00869fbe000000fa000368a900c8
:10066000d0808000e180800061004000e080480090
:10067000d0808800e18088003a0207000080fa00fc
:100680004f03be004f02be004f01be004f00be0030
:100690003600f90000400600809fbe000000fa000e
:1006a00001a8a9000118800020002100010878009d
:1006b00011188000200021001100980021188000ee
:1006c0002000210021009800311880002000210026
:1006d000310098004118800020002100410098005e
:1006e00010c0b3000af0b7000080fa004f00be004f
:1006f000004006003600f800809fbe00829fbe00ca
:10070000849fbe00869fbe000000fa000188a900f9
:10071000b1808000a0808000808f500002003200f5
:100720008e080700010037001870ef000080fa0003
:100730004f03be004f02be004f01be004f00be007f
:100740003600f900004006003600f800809fbe0029
:10075000829fbe00849fbe00869fbe000000fa00fc
:100760000168a90010118000640060000000e00032
:10077000010032002242a9001011800062006000d6
:100780000000e000060032002222a9000500370028
:100790003011800000407800d008070001003700c9
:1007a0000000000010118000610060000000e00007
:1007b000f7ff3a000080fa004f03be004f02be0070
:1007c0004f01be004f00be003600f9000040060099
:1007d0000040da000000fe000000050003f0a20067
:1007e000889fbe008a9fbe008c1f78001b010700f7
:1007f000220133006450e1004f0032006420e10028
:100800005200320003826c0007003b000905d00053
:100810000306d000820f54000c065d000200390070
:1008200002003200890178000306780085825500b5
:1008300004003d000003fd008103fd008502ea0085
:100840008b854200840f720002003b0060001000a4
:10085000e08018006011b8000005eb007a28e10084
:100860000a00390006007800c75ddd00f707b20016
:10087000878075002d003700828171000a017800a1
:10088000610560008180d1000080d3008502e9000d
:10089000f9ff3b00060440008784480002003b004b
:1008a00060041400e0841c000988a30007003200e3
:1008b0008a81710082817100610164008904d10024
:1008c0000884d3008b05e800170037000978a300df
:1008d00013003a000b00e000130034008b05e90020
:1008e0000804440089844c000a4474000978a30079
:1008f0000d003a000b00e000070034008b05e90012
:100900000804440089844c0001003a000b002000d8
:100910000978a300f7ff32000001eb000200370066
:10092000828171000a017800910007000cf0a70095
:1009300001f0a000da0037006420e10002003a0074
:10094000838f6c00da0033000801be000200be0095
:10095000d3003700889fbe008a9fbe008c1f78009e
:10096000be000700c500330003866c006450e10040
:100970002e0032006420e100330032006150e100bb
:100980002f0032006120e1003100320085855500e2
:10099000eb07b00009002000080420000500370024
:1009a0000804440089844c000a0031000603430017
:1009b00087834b000001530081815b00f8ff330007
:1009c0000203be000800a0000804440089844c0013
:1009d000f6ff3900c639dd008301730001003200e3
:1009e000130020008904d1000884d3000998a300d3
:1009f000050032000800a7000300a0008904d10010
:100a00000884d3008b05e8008904d1000884d30052
:100a10000001eb000281d2005500070001f0a100a7
:100a20000cf0a70001f0a0009d0037006420e10059
:100a30009f0032000801be000200be00f7ff370031
:100a40006120e1009a0032006000b800f3ff370037
:100a50000000200001f82700f0ff370014002000fc
:100a6000ca003700f4ff2f00c80037000001be00a5
:100a7000650007000470a70003f0a1006509b1003c
:100a8000160032000d0035006828e1000600350030
:100a9000f0ff2f00f1ff27000300e00013003b00f0
:100aa000010028000000050000004000818048008f
:100ab0008502e900fcff3a0008003700f88f420089
:100ac00002003c008000eb00000005008100d10026
:100ad0000080d3008502e800fcff3a000300e0003c
:100ae00002003b0060001000e080180000000600db
:100af0000001be00440007000470a70003f0a1003d
:100b000003f8a30013003a006509b1001000320099
:100b1000090035006928e1000200350001002800c5
:100b20000000050000004000818048008502e900c7
:100b3000fcff3a0000000600f88f42000500350077
:100b40008100d1000080d3008502e800fcff3a005c
:100b5000000006008000eb00000005004f89de0069
:100b600082017800a40037006011b800b20037009d
:100b700081002000618055000b003d000b0020002b
:100b800061fe2f000100e1001d0034008281710030
:100b9000610164008904d1000884d3000000e800ea
:100ba000faff3a0071002000610064000300700049
:100bb000020060000900320061044400e0844c003f
:100bc0000988a500050032008b05e8006808e100ef
:100bd00002003a008904d1000884d300f20f2000fb
:100be0000258e10005003d00c75ddd00f907b200d5
:100bf0008980750008007800000006000bf82700c7
:100c00008b00780000000500c70ade00f107b20083
:100c1000f50fb20008003200e1cf420002003200be
:100c20000170a00024000500810f70000100320057
:100c30000408050044000500810f700002003a001e
:100c4000140005008502e9000000400081c0480052
:100c5000fcff3b000170a000240005000004be0062
:100c6000e9ff07000003be000405be000200be004d
:100c7000e5ff0700844f7500000006000200be007b
:100c80006450e100050036006420e10002003600f7
:100c90000968a30001003a000800be000160a0003e
:100ca0004f0678004f05be004f04be00000006004e
:100cb000f0ff2f00f1ff2700f9ff3700889fbe00eb
:100cc0008a9fbe008c1f7800e4ff0700ebff330013
:100cd00003866c006450e100240032006420e100cf
:100ce000270032006150e100220032006120e10063
:100cf000210032008b854200eb07b1000134b800bf
:100d0000003ab8000804420089844a00013ab80059
:100d10000030b8008880400009014a000400330018
:100d20000000400081804800020149008b05e90075
:100d3000c909dd00830170000100320013002000aa
:100d4000c814de004814dd004709de001200b200be
:100d5000c808de000884700085ff070001f0a100cc
:100d60000cf0a70001f0a000cdff37006120e100ea
:100d7000cfff32000801be000200be00f7ff3700bf
:100d80006150e100fcff3a00c9ff3700889fbe00b8
:100d90008a9fbe00841f7800b0ff07004f007800d4
:100da00011003300f0ff2f00838f6c0006003b0022
:100db000040565000a00a7000800370009f0a60036
:100dc0001000200008003700820f5400838f5c0061
:100dd000030039001000200001003e000000200048
:100de00009f0a7000000ea004f05be004f04be0056
:100df0000000e00000000600881f7800030478006f
:100e00000300e00007003d0060001000e0801800d3
:100e100060011900e081190002003b0001f02d0083
:100e2000030037000400070008f0a70001f0a0004d
:100e30004f04780000000600889fbe008a9fbe0015
:100e400000827000040271000482710026003200ea
:100e50000004be000200be006011b8006b09200053
:100e6000950220000182cf000a0039000541b1003f
:100e70000082cf00070039000541b1000982cf0090
:100e8000040039000541b1000882cf00010039009b
:100e90000541b10005425200120032000a003b0039
:100ea00082817100610164008100d1000080d30063
:100eb0008984d3000884d3008b05e8000442e8004d
:100ec000f7ff3a00070037000804440089844c000b
:100ed00000004800818048008b05e9000442e900d9
:100ee000f9ff3a0022ff07004f05be004f04be0085
:040ef00000000600f8
:020000040000fa
:100ef4000200fa00004f78001e4078000004e00071
:100f04000d003a0010708000610060000000e000f5
:100f1400090032000041eb0000002000010a2c000f
:100f24001605070012c0b3000000200001172400ba
:100f340012050700080037000041eb000000200004
:100f4400011724000d05070012c0b30000002000a3
:100f5400010a2c00090507000080fa0000000600c1
:100f64000000fa0010708000610060000000e000e2
:100f7400af00320022d0bf000080fb00cf80de0033
:100f84000201200003002000820f5000838f5800cc
:100f9400a5003e00000601001000370019003700cc
:100fa400220037003100370032003700420037009a
:100fb4004300370053003700540037007b003700ec
:100fc4007c0037008900370097003700960037000f
:100fd4009500370094003700860037001a30ef0080
:100fe4001c30ef000041eb006000b800e304070090
:100ff40012c0b3006000b800e004070010c0b300e2
:1010040022f0b700d2808000e3808000803e200080
:1010140001002000800f5100818f59008f0036009d
:1010240020c0b30022f0b7008d003700608080003c
:10103400cf80de00c8fe07000041eb00cf040700ac
:1010440060808000cf80de00c3fe070012c0b300c2
:10105400ca04070030c0b30022f0b70064eea80051
:10106400254ea90064cea9007d0037007e0007004c
:101074007b00370070808000cf80de00b6fe070062
:101084000041eb00bd040700808080000000ea00fe
:10109400cf80de00b0fe070012c0b300b704070023
:1010a40050c0b30022f0b70064eea900254ea90099
:1010b40064cea8006a0037006b00070068003700a0
:1010c400808080000000ea00cf80de00a2fe0700de
:1010d4000041eb00a904070070808000cf80de008f
:1010e4009dfe070012c0b300a404070070c0b30043
:1010f40022f0b70064eea900254ea80064cea90032
:10110400570037005800070055003700d080800092
:10111400e1808000000078006100600000407800f9
:101124000004e0000400320070808000cf80de0004
:1011340089fe070004003700708080000000ea0088
:10114400cf80de0084fe07000041eb008b04070023
:10115400d0808000e18080000000780061006000a1
:10116400004078000004e000050032007080800038
:101174000000ea00cf80de0077fe0700030037009e
:1011840070808000cf80de0073fe070012c0b300c1
:101194007a04070090c0b30022f0b70064eea80000
:1011a400254ea80064cea8002d0037002e000700ad
:1011b4002b003700708080000000ea00cf80de0042
:1011c40065fe07000041eb006c040700708080009e
:1011d400cf80de0060fe070012c0b3006704070082
:1011e400b0c0b30022f0b7001d0037001e00070096
:1011f4001b00370090808000cf80de0056fe070081
:1012040012c0b3005d04070090808000cf80de0030
:1012140051fe07000041eb005804070012000700cc
:10122400000000000e0037002270ef000c003700b1
:101234000041eb006000b8005004070012c0b30086
:101244006000b8004d0407001a30ef001c30ef00b6
:1012540020c0b30022f0b7000100370000000000f6
:101264000080fa00000006000200fa00889fbe0019
:101274008a1f78000040eb00004f7800288a800025
:10128400398a8000908a80006c005000cf80de0094
:1012940031fe07001ac0b3000001be000800be0002
:1012a400edfd07000000e000010035000045eb0003
:1012b4000a04e00032003200e8898000f9898000e5
:1012c400708a80006c005000cf80de0022fe070090
:1012d4001ac0b3000001be000800be00defd070016
:1012e4000000e000010035000045eb000a04e000c6
:1012f40023003200088a8000198a8000808a8000d6
:101304006c005000cf80de0013fe07001ac0b3004b
:101314000001be000800be00cffd07000000e00091
:10132400010035000045eb000a04e0000300320030
:1013340030c0b300004f78006f013700248a80006a
:10134400358a8000e0898000f189800018c0b300ec
:101354000001be000400be00bffd07000000e00065
:10136400010035000044eb00084078000004a200ae
:101374000080fb0000407800ddfe07005e013700be
:10138400088a8000198a8000808a8000cf80de006d
:10139400f1fd07001ac0b3000001be000800be0042
:1013a400adfd07000000e000010035000045eb0042
:1013b4000a04e0000300320030c0b300004f78009c
:1013c4004d013700288a8000398a8000908a800085
:1013d400cf80de00e0fd07001ac0b3000001be00ac
:1013e4000800be009cfd07000000e000010035007d
:1013f4000045eb000a04e0002a003a00488a800015
:10140400598a8000a08a8000cf80de00d2fd0700c8
:101414001ac0b3000001be000800be008efd070024
:101424000000e000010035000045eb000a04e00084
:101434001c003a00088a8000198a8000808a800093
:10144400cf80de00c4fd07001ac0b3000001be0057
:101454000800be0080fd07000000e0000100350028
:101464000045eb000a04e00011003200488a8000c5
:10147400598a8000a08a8000cf80de00b6fd070074
:101484001ac0b3000001be000800be0072fd0700d0
:101494000000e000010035000045eb000a04e00014
:1014a4000300320010c0b300004f7800120137006f
:1014b400e8898000f9898000708a8000cf80de008e
:1014c400a5fd07001ac0b3000001be000800be005d
:1014d40061fd07000000e000010035000045eb005d
:1014e4000a04e0002a003a00c8898000d9898000f3
:1014f400608a8000cf80de0097fd07001ac0b30029
:101504000001be000800be0053fd07000000e0001b
:10151400010035000045eb000a04e0001c003a001d
:10152400c8898000d9898000608a8000cf80de006d
:1015340089fd07001ac0b3000001be000800be0008
:1015440045fd07000000e000010035000045eb0008
:101554000a04e00011003200088a8000198a800021
:10156400808a8000cf80de007bfd07001ac0b300b4
:101574000001be000800be0037fd07000000e000c7
:10158400010035000045eb000a04e00003003200ce
:1015940020c0b300004f7800d7003700c88980000e
:1015a400d9898000b08a8000cf80de006afd070000
:1015b4001ac0b3000001be000800be0026fd0700eb
:1015c4000000e000010035000045eb000a04e000e3
:1015d4000e003200c8898000d9898000608a8000aa
:1015e400cf80de005cfd07001ac0b3000001be001e
:1015f4000800be001afd07000000e00001003c00e6
:101604000045eb000a04e00070003a00e88980001d
:10161400f9898000c08a8000cf80de004efd07007b
:101624001ac0b3000001be000800be000afd070096
:101634000000e000010035000045eb000a04e00072
:101644000e003200e8898000f9898000708a8000e9
:10165400cf80de0040fd07001ac0b3000001be00c9
:101664000800be00fefc07000000e00001003c0092
:101674000045eb000a04e00054003a00088a8000a8
:10168400198a8000d08a8000cf80de0032fd0700f6
:101694001ac0b3000001be000800be00eefc070043
:1016a4000000e000010035000045eb000a04e00002
:1016b4000e003200088a8000198a8000808a800027
:1016c400cf80de0024fd07001ac0b3000001be0075
:1016d4000800be00e2fc07000000e00001003c003e
:1016e4000045eb000a04e00038003a00288a800034
:1016f400398a8000e08a8000cf80de0016fd070072
:101704001ac0b3000001be000800be00d2fc0700ee
:101714000000e000010035000045eb000a04e00091
:101724000e003200288a8000398a8000908a800066
:10173400cf80de0008fd07001ac0b3000001be0020
:101744000800be00c6fc07000000e00001003c00e9
:101754000045eb000a04e0001c003a00488a8000bf
:10176400598a8000f08a8000cf80de00fafc0700ee
:101774001ac0b3000001be000800be00b6fc07009a
:101784000000e000010035000045eb000a04e00021
:1017940011003200488a8000598a8000a08a8000a3
:1017a400cf80de00ecfc07001ac0b3000001be00cd
:1017b4000800be00aafc07000000e00001003c0095
:1017c4000045eb000a04e0000300320040c0b3000f
:1017d400004f780048003700c8898000d98980000c
:1017e400b08a8000cf80de00dbfc07001ac0b300a3
:1017f4000001be000800be0099fc07000000e000e4
:1018040001003c000045eb000a04e0003a0032000d
:10181400e8898000f9898000c08a8000cf80de00da
:10182400cdfc07001ac0b3000001be000800be00d2
:101834008bfc07000000e00001003c000045eb00c9
:101844000a04e0002c003200088a8000198a800013
:10185400d08a8000cf80de00bffc07001ac0b3002e
:101864000001be000800be007dfc07000000e0008f
:1018740001003c000045eb000a04e0001e003200b9
:10188400288a8000398a8000e08a8000cf80de00c8
:10189400b1fc07001ac0b3000001be000800be007e
:1018a4006ffc07000000e00001003c000045eb0075
:1018b4000a04e00010003200488a8000598a80003f
:1018c400f08a8000cf80de00a3fc07001ac0b300ba
:1018d4000001be000800be0061fc07000000e0003b
:1018e40001003c000045eb000a04e0000200320065
:1018f4000040eb00004f78001e4078000004e00038
:1019040003003a0020c0b30023f0b70017003700eb
:101914001e407800e24f500003003a0040c0b3007c
:1019240023f0b700110037001e407800e14f50004b
:1019340003003a0060c0b30023f0b7000b00370087
:101944001e407800e34f500003003a0080c0b3000b
:1019540023f0b700050037001e407800e44f500024
:1019640002003a0000c1b30023f0b70023d0bf0047
:101974008080fb0022d0bf000080fb000000e90053
:10198400808f50000200320023d0bf0022f0b70045
:101994004f0578004f04be000080fa0000000600e6
:1019a4000a00fa00be040700910007001d010700a9
:1019b400a0010700e5040700a9010700fc030700d4
:1019c4007f0207003c0407000004e00074003200ba
:1019d4003d04070034040700000f78001e0078005f
:1019e400100078008000eb005efc07003233230017
:1019f40033052400b0fc0700020020000358240033
:101a0400d3fb0700d2cc2c00c3042400aafc07009b
:101a14000001be000000200081202400ccfb070050
:101a240002002000030a24006bfb0700c089880021
:101a3400d18988001e80e800100078008000eb0047
:101a440048fc070032332300330524009afc0700c6
:101a54000200200003582400bdfb0700d2cc2c0058
:101a6400c304240094fc07000001be000000200011
:101a740081202400b6fb070002002000030a240092
:101a840055fb0700e0898800f18988009e007800f2
:101a940064804000100078008000eb0031fc0700f7
:101aa400323323003305240083fc070002002000a6
:101ab40003582400a6fb0700d2cc2c00c304240046
:101ac4007dfc07000001be000000200081202400ee
:101ad4009ffb070002002000030a24003efb0700ce
:101ae400008a8800118a88009e0078006680400081
:101af400100078008000eb001afc0700323323004a
:101b0400330524006cfc0700020020000358240065
:101b14008ffb0700d2cc2c00c304240066fc070012
:101b24000001be00000020008120240088fb070083
:101b340002002000030a240027fb0700208a8800f3
:101b4400318a88009e007800688040001000780088
:101b54008000eb0003fc070032332300330524002c
:101b640055fc0700020020000358240078fb0700fe
:101b7400d2cc2c00c30424004ffc07000001be009b
:101b8400000020008120240071fb070002002000d7
:101b9400030a240010fb0700408a8800518a880049
:101ba4000e80e80022f42600e3a626000288be0088
:101bb40064004000f1562700010878000080e80026
:101bc40021c7b300014878000000e8000e80e80057
:101bd4000001780071002000000820004b0207007b
:101be40000a02500212620007904070075ff370096
:101bf4000000fa0013e1a90011e1a9001061a80096
:101c04001021a90081088000f0fc2f0000806000f2
:101c1400800888000a21ef000621ef00202620001a
:101c24007008880000a02500600888002142800018
:101c340080ff2f00008060000000a0002042880088
:101c44000108a9002108a80011e1a8000080fa00f9
:101c5400000006000400fa00881f7800008fbe0010
:101c640021088000f0fc2f0000806000200888001c
:101c74001e0178009e0190000068290081c12400a3
:101c840033fb070018c0b30002f02f00f3772400e1
:101c940073fb07000000e00001003c000044eb007f
:101ca4000804e0005400320021088000f0fc2f00fa
:101cb400008060000040a000200888001e01780019
:101cc4009e0190000068290081c1240020fb0700c8
:101cd40002002000031024001dfb070018c0b300fd
:101ce40002f02f00f37724005dfb07000000e00002
:101cf40001003c000044eb000804e0003200320024
:101d040021088000f0fc2f00008060000050a0003b
:101d1400200888001e0178009e01900000682900b8
:101d240081c124000afb07000200200003282400cc
:101d340007fb070018c0b30002f02f00f37724005c
:101d440047fb07000000e00001003c000044eb00fa
:101d54000804e00010003200210880000003200085
:101d640001007000200888001e0178009e01900088
:101d74000068290081c12400f5fa07000200200050
:101d840003382400f2fa070037fb0700000078004c
:101d940010088800200037001e0178009e01900082
:101da4000068290081c12400e9fa0700020020002c
:101db40003282400e6fa07002bfb07000000780044
:101dc40010088800140037001e0178009e0190005e
:101dd4000068290081c12400ddfa07000200200008
:101de40003102400dafa07001ffb07000000780044
:101df40010088800080037001e0178009e0190003a
:101e04000068290081c12400d1fa070016fb0700ed
:101e140000007800100888004f0478000080fa0061
:101e2400000006000000fa0005e1a9002108800076
:101e3400f0fc2f00008060000050a0002008880003
:101e44000421a90000002000812c240081ff070048
:101e54000068a9002068a80005e1a8000080fa0035
:101e6400000006000400fa00881f7800008fbe00fe
:101e7400f1088000f0fc2f0000806000f00888006a
:101e84001e0178009e0190000068290081c1240091
:101e9400affa070018c0b30002f02f00f377240054
:101ea400effa07000000e00001003c000044eb00f2
:101eb4000804e00054003200f1088000f0fc2f0018
:101ec400008060000040a000f00888001e01780037
:101ed4009e0190000068290081c124009cfa07003b
:101ee400020020000310240099fa070018c0b30070
:101ef40002f02f00f3772400d9fa07000000e00075
:101f040001003c000044eb000804e0003200320011
:101f1400f1088000f0fc2f00008060000050a00059
:101f2400f00888001e0178009e01900000682900d6
:101f340081c1240086fa070002002000032824003f
:101f440083fa070018c0b30002f02f00f3772400cf
:101f5400c3fa07000000e00001003c000044eb006d
:101f64000804e00010003200f108800000032000a3
:101f740001007000f00888001e0178009e019000a6
:101f84000068290081c1240071fa070002002000c2
:101f9400033824006efa0700b3fa07000000780043
:101fa40010088800200037001e0178009e01900070
:101fb4000068290081c1240065fa0700020020009e
:101fc4000328240062fa0700a7fa0700000078003b
:101fd40010088800140037001e0178009e0190004c
:101fe4000068290081c1240059fa0700020020007a
:101ff4000310240056fa07009bfa0700000078003b
:1020040010088800080037001e0178009e01900027
:102014000068290081c124004dfa070092fa0700e4
:1020240000007800100888004f0478000080fa004f
:10203400000006000000fa001fe1a9001e21a9000b
:1020440000002000a147240086ff07000368a900c0
:102054002368a8001fe1a8000080fa000000060021
:102064000000fa001160800080ff2f0000806000f3
:102074001060880000fa20002060880023aca800cb
:10208400238ca80011618000f03f2f0000806000c5
:1020940000a0a000106188003000200020618800aa
:1020a400c3aca800c38ca80011668000f03f2f00c9
:1020b4000080600000a0a0001066880030002000ae
:1020c4002066880001eca8000080fa0000000600e9
:1020d4000000fa00889fbe008a9fbe00a489800089
:1020e400b5898000808980009189800018c0b30080
:1020f4000001be000400be0057fa07000000e00023
:10210400010035000044eb000804e0000f00320039
:102114008889800099898000aa898000bb89800011
:1021240024d0bf000080fb00cf80de008afa0700c5
:102134000001be000a00be00a8f907000801be00a5
:1021440070010700a0898800b1898800a4898000f3
:10215400b5898000808980009189800018c0b3000f
:102164000001be000400be003dfa07000000e000cc
:1021740001003c000044eb000804e0000f003200c2
:102184008889800099898000aa898000bb898000a1
:1021940024d0bf000080fb00cf80de006efa070071
:1021a4000001be000a00be008bf907000801be0052
:1021b4003c010700a0898800b1898800a0898000bb
:1021c400b189800018c0b3006011b80024fa070078
:1021d4000000e00001003c000044eb000804e000c3
:1021e40004003200c3cca90024eea800c3eca8006c
:1021f40003003700c3eca90024cea800c3cca80078
:10220400a0898000b189800010010700020020002d
:1022140003222400a8fa070034fa0700000078001b
:102224003066880064898000758980004089800058
:102234005189800018c0b3000001be000400be0034
:1022440005fa07000000e000010035000044eb003f
:102254000804e0000f00320048898000598980009a
:102264006a8980007b89800024d0bf000080fb0045
:10227400cf80de0038fa07000001be000a00be006d
:1022840056f907000801be001e0107006089880096
:102294007189880064898000758980004089800084
:1022a4005189800018c0b3000001be000400be00c4
:1022b400ebf907000000e00001003c000044eb00e3
:1022c4000804e0000f00320048898000598980002a
:1022d4006a8980007b89800024d0bf000080fb00d5
:1022e400cf80de001cfa07000001be000a00be0019
:1022f40039f907000801be00ea0007006089880078
:1023040071898800608980007189800018c0b300d9
:102314006011b800d0f907000000e00001003500aa
:102324000044eb000804e0000400320023cca900c0
:1023340015eea80023eca8000300370023eca90045
:1023440015cea80023cca800608980007189800084
:10235400be000700020020000322240056fa0700f2
:10236400e2f9070000007800306188004f05be00e4
:102374004f04be000080fa00000006000600fa00c8
:10238400008fbe00424798004e409000e14f50003d
:1023940005003a001e0178009e01900042898800e1
:1023a40053898800040037001e0178009e019000c4
:1023b40082898800938988000080fa000000060062
:1023c4000000fa002002a9000111800090ff2f00f4
:1023d400008060000011880020a2a9002062a800eb
:1023e400500520004011880023a2a90023e2a9007f
:1023f4000188a9002188a80011118000f0f32f00a2
:1024040000806000101188000168a9002168a800fc
:1024140021e2a8002342a8000080fa000000060080
:102424000600fa0010079800210798000040eb000e
:10243400004f78000e0037000000000011118000ea
:1024440000202000008060000000e000fbff3a0054
:102454001e009000104078000080fb0020118800ce
:102464001e0090000000e800100798001e4fe800ce
:102474009e80fb002e009000808f5000eeff350000
:102484000080fa00000006000a00fa002007980005
:1024940031079800420798000040eb00004f780095
:1024a4002e009000804078002e0090004880de00ce
:1024b4000040780000c068009e406800e0cfb30090
:1024c40000cf68000000eb001007980008003700f8
:1024d4001e009000ce009000008040001040780064
:1024e4001e4f68001e0090000000e80010079800ce
:1024f4009e0090003e009000808f5000f4ff350055
:102504001e4078000080fa00000006000c00fa006b
:10251400889fbe008a9fbe0030079800410798003c
:10252400520798008f0478000f00780000057800a7
:102534004e009000660440000800e900100798006f
:10254400080078000000e8000000e8000000d10066
:10255400800040000f007800818747000000e800f9
:102564000000d10000004000200798002e009000d9
:10257400e1cfb300014878003e009000804078002d
:102584002e009000114098003e0090004880de002c
:10259400804078002e009000214098004e0090006a
:1025a400804078002e009000314098004e0090004a
:1025b4004880de00804078002e0090004140980062
:1025c4000000eb00000f78000a0037009e0078003e
:1025d400658040009e0078005e019000810041000b
:1025e400914078002e0190000000410001487800dd
:1025f4001e0fe8004e0090009e007800808f50006f
:10260400f2ff35004e009000e50540005e019000a9
:10261400ce0090003e0090009bff0700ae009000ab
:102624008b804000804878002e009000880078005d
:102634008d0007008a077800890778004f05be00df
:102644004f04be000080fa00000006000400fa00f7
:10265400881f7800008fbe0018c0b3006011b80056
:102664001e0078009e009000fdf807000000e000c6
:1026740001003d000044eb000804e00003003200c8
:102684001e0078009e009000030037001e007800b2
:102694009e00900001f0a2004f0478000080fa0030
:1026a400000006000800fa00881f7800008fbe00b2
:1026b400220798003307980018c0b3002e01900039
:1026c400be0190001e0078009e009000e4f8070010
:1026d4000000e00001003c000044eb000804e000be
:1026e400030032001e0078009e00900002003700b4
:1026f4002e009000be0090004f0478000080fa0085
:10270400000006000800fa00881f7800008fbe0051
:10271400220798003307980018c0b3002e019000d8
:10272400be0190001e0078009e009000caf80700c9
:102734000000e000010035000044eb000804e00064
:10274400030032001e0078009e0090000200370053
:102754002e009000be0090004f0478000080fa0024
:10276400000006000c00fa00881f7800008fbe00ed
:1027740022079800330798004407980055079800eb
:1027840018c0b3004e019000de0190001e007800d6
:102794009e009000b2f807000000e00001003c0039
:1027a4000044eb000804e000040032004e019000f5
:1027b400de019000028fbe000e00370018c0b30087
:1027c4002e019000be0190001e0078009e00900033
:1027d400a1f807000000e000010035000044eb0010
:1027e4000804e000030032002e019000be019000b6
:1027f400028fbe001e0078009e0090004f047800f7
:102804000080fa00000006000400fa00008fbe00f9
:10281400b2fd2000930424001e0078009e00900066
:102824004bf80700020020004333240022f907007c
:102834000080fa00000006000400fa00008fbe00c9
:10284400b2fd2000930424001e0078009e00900036
:1028540019f9070002002000433324003cf8070064
:102864000080fa00000006000600fa001007980035
:10287400210798000040eb00004f78004300070058
:10288400ae009000810f5000110034000040eb00b6
:10289400004f7800060037001e80fb009e00900069
:1028a40000804000104078000b0007001e4fe80035
:1028b4009e80fb002e009000808f5000f6ff3500b4
:1028c4002e0007000004e00001003a002200070087
:1028d4000080fa00000006000200fa00004f7800b1
:1028e400a080800061022100008040001e48780022
:1028f400a08080000000e800a0808800a180800003
:10290400f0072000808f5000010034001430ef00e5
:102914000080fa00000006000200fa00b080800087
:102924006102210000804000104f7800b0808000d8
:102934000000e800b0808800b1808000f00720002b
:10294400808f5000010034001630ef001e407800e4
:102954000080fa00000006000200fa0010c0b30074
:1029640018f0b700ecff0700004f78001e80fb0052
:10297400201188000080fa00000006000000fa0020
:1029840018d0bf000080fa00000006000200fa0020
:10299400a08080000108200080805000b08080006a
:1029a400008f40001e0078000080fa00000006003e
:1029b4000000fa0021e3a9002143a80001198000c6
:1029c400f0cf2f0000806000001988002043a90088
:1029d40001198000000e2000010070000019880019
:1029e40011198000f0ff2100008060001019880098
:1029f4002343a80011198000f0cf2f00008060004d
:102a0400101988001119800030f82f000080600030
:102a14000040a000101988002203a9002223a90065
:102a240025e3a900f0c0b30024e3b7002119800016
:102a3400f00f2e008080600000f020000100700084
:102a4400201988003303a9002e0ea8002f6ea800b9
:102a54006f2ea8004feea8000f8ea80030c3a80068
:102a64003163a8002e03a80031e3a8003143a80075
:102a74004119800000fc2f0000806000401988008c
:102a840028e3a90001a8a90021a8a80021e3a8001f
:102a94000080fa00000006000000fa002023a800cd
:102aa4000080fa00000006000000fa002000210067
:102ab4000080fa00000006000000fa000ad0bf00ff
:102ac4000080fa00000006000000fa000a70ef001f
:102ad4000080fa00000006000200fa00004f7800af
:102ae4002a0007000000e0000c003400f0808000a1
:102af400610a2100008040001e487800f0808000b8
:102b04000000e800f0808800f1808000f0072000d9
:102b1400808f5000010034001e30ef000080fa0066
:102b2400000006000200fa0000818000610a210012
:102b340000804000104f7800008180000000e80011
:102b44000081880001818000f0072000808f500000
:102b5400010034002030ef001e4078000080fa00ad
:102b6400000006000000fa00f1808000008180006f
:102b7400808f50000200320010c0b3000100370003
:102b84000040eb000080fa00000006000200fa009a
:102b94000500070001082000008f50001e00780087
:102ba4000080fa00000006000200fa0001818000a3
:102bb400f0808000808f500006003400f080800098
:102bc400010820008080500000818000008f4000b8
:102bd40003003700f180800000818000008f5000e6
:0c2be4001e0078000080fa0000000600cf
:020000040000fa
:102bf0004c110000140000008200000019001e00ab
:102c0000001e00001e0019000023000028002800fc
:102c100000280000230000000c1000000800000045
:102c20008200000028000a00000a000014000000d2
:102c30002210000002000000800000001a100000b6
:102c400004000000800000002611000026000000a3
:102c5000800000002410000002000000820000003c
:102c600014000000001000000c00000080000000b4
:102c700026100000800000008000000014100000fa
:102c80000600000080000000a61000008000000088
:102c9000800000001e100000040000008000000002
:042ca0000000000030
:020000040000fa
:102ca4000000fa00f0032000303a8800213a800046
:102cb400f0f32f0000806000203a8800213a800061
:102cc40000fe2f00008060000000a000203a880071
:102cd4001200200080072000a10920003374200086
:102ce400804978008149780082497800103a800050
:102cf400000178000200a00060042000710520009b
:102d04002374200080497800814978008249780042
:102d140000000000113a800000002700808060005d
:102d240000002100808f5000faff3a0000000000ec
:102d3400113a800000022000008060000000e000e2
:102d4400fbff32000080fa00000006000000fa00d9
:102d54000e2eef001e2eef002e2eef003e2eef0063
:102d64004e2eef005e2eef006e2eef00214ea900d6
:102d740060cea90060eea900000ea80011cea90043
:102d840011eea90020cea90020eea900102ea80063
:102d9400200ea800216ea800612ea80041eea80014
:102da4002136800000f82f00008060008001b3000d
:102db400203688001134800000fc2f000080600061
:102dc4000000a000103488000080fa000000060013
:020000040000fa
:102dd400f03fb1000180b10006003500ee030900a8
:102de40000000000403fb1000180b100fbff3d0046
:102df4001000b000203fb000020035000080090040
:082e04000000000000000600c0
:020000040000fa
:02000004000af0
:04afe000cfff00009f
:020000040000fa
:02000004000af0
:04afe400ffff00006b
:020000040000fa
:02000004000af0
:04afe8007fff0000e7
:020000040000fa
:02000004000af0
:04afec005fff000003
:020000040000fa
:02000004000af0
:04aff00038ff000026
:020000040000fa
:02000004000af0
:04aff400ffff00005b
:00000001FF
