:020000040000fa
:080000000002040000000000f2
:020000040000fa
:04000800f8030000f9
:020000040000fa
:04000c00f8030000f5
:020000040000fa
:04001000f8030000f1
:020000040000fa
:04001400f8030000ed
:020000040000fa
:04001800f8030000e9
:020000040000fa
:04001c00f8030000e5
:020000040000fa
:04002000f8030000e1
:020000040000fa
:04002400f8030000dd
:020000040000fa
:04002800f8030000d9
:020000040000fa
:04002c00f8030000d5
:020000040000fa
:04003000f8030000d1
:020000040000fa
:040034009e03000027
:020000040000fa
:04003800f8030000c9
:020000040000fa
:04003c00f8030000c5
:020000040000fa
:04004000f8030000c1
:020000040000fa
:04004400f8030000bd
:020000040000fa
:04004800fa020000b8
:020000040000fa
:04004c00f8030000b5
:020000040000fa
:04005000f8030000b1
:020000040000fa
:040054005a0300004b
:020000040000fa
:040058003003000071
:020000040000fa
:04005c00020300009b
:020000040000fa
:04006000f8030000a1
:020000040000fa
:04006400f80300009d
:020000040000fa
:04006800f803000099
:020000040000fa
:04006c00f803000095
:020000040000fa
:04007000f803000091
:020000040000fa
:04007400f80300008d
:020000040000fa
:04007800f803000089
:020000040000fa
:04007c00f803000085
:020000040000fa
:04008000f803000081
:020000040000fa
:04008400f80300007d
:020000040000fa
:04008800f803000079
:020000040000fa
:04008c00f803000075
:020000040000fa
:04009000f803000071
:020000040000fa
:04009400e003000085
:020000040000fa
:04009800f803000069
:020000040000fa
:04009c00f803000065
:020000040000fa
:0400a000f803000061
:020000040000fa
:0400a400f80300005d
:020000040000fa
:0400a800f803000059
:020000040000fa
:0400ac00f803000055
:020000040000fa
:0400b000f803000051
:020000040000fa
:0400b400f80300004d
:020000040000fa
:0400b800f803000049
:020000040000fa
:0400bc00f803000045
:020000040000fa
:0400c000f803000041
:020000040000fa
:0400c400f80300003d
:020000040000fa
:0400c800f803000039
:020000040000fa
:0400cc00f803000035
:020000040000fa
:0400d000f803000031
:020000040000fa
:0400d400f80300002d
:020000040000fa
:0400d800f803000029
:020000040000fa
:0400dc00f803000025
:020000040000fa
:0400e000f803000021
:020000040000fa
:0400e400f80300001d
:020000040000fa
:0400e800f803000019
:020000040000fa
:0400ec00f803000015
:020000040000fa
:0400f000f803000011
:020000040000fa
:0400f400f80300000d
:020000040000fa
:0400f800f803000009
:020000040000fa
:0400fc00f803000005
:020000040000fa
:04010000f803000000
:020000040000fa
:04010400f8030000fc
:020000040000fa
:04010800f8030000f8
:020000040000fa
:04010c00f8030000f4
:020000040000fa
:04011000f8030000f0
:020000040000fa
:04011400f8030000ec
:020000040000fa
:04011800f8030000e8
:020000040000fa
:04011c00f8030000e4
:020000040000fa
:04012000f8030000e0
:020000040000fa
:04012400f8030000dc
:020000040000fa
:04012800f8030000d8
:020000040000fa
:04012c00f8030000d4
:020000040000fa
:04013000f8030000d0
:020000040000fa
:04013400f8030000cc
:020000040000fa
:04013800f8030000c8
:020000040000fa
:04013c00f8030000c4
:020000040000fa
:04014000f8030000c0
:020000040000fa
:04014400f8030000bc
:020000040000fa
:04014800f8030000b8
:020000040000fa
:04014c00f8030000b4
:020000040000fa
:04015000f8030000b0
:020000040000fa
:04015400f8030000ac
:020000040000fa
:04015800f8030000a8
:020000040000fa
:04015c00f8030000a4
:020000040000fa
:04016000f8030000a0
:020000040000fa
:04016400f80300009c
:020000040000fa
:04016800f803000098
:020000040000fa
:04016c00f803000094
:020000040000fa
:04017000f803000090
:020000040000fa
:04017400f80300008c
:020000040000fa
:04017800f803000088
:020000040000fa
:04017c00f803000084
:020000040000fa
:04018000f803000080
:020000040000fa
:04018400f80300007c
:020000040000fa
:04018800f803000078
:020000040000fa
:04018c00f803000074
:020000040000fa
:04019000f803000070
:020000040000fa
:04019400f80300006c
:020000040000fa
:04019800f803000068
:020000040000fa
:04019c00f803000064
:020000040000fa
:0401a000f803000060
:020000040000fa
:0401a400f80300005c
:020000040000fa
:0401a800f803000058
:020000040000fa
:0401ac00f803000054
:020000040000fa
:0401b000f803000050
:020000040000fa
:0401b400f80300004c
:020000040000fa
:0401b800f803000048
:020000040000fa
:0401bc00f803000044
:020000040000fa
:0401c000f803000040
:020000040000fa
:0401c400f80300003c
:020000040000fa
:0401c800f803000038
:020000040000fa
:0401cc00f803000034
:020000040000fa
:0401d000f803000030
:020000040000fa
:0401d400f80300002c
:020000040000fa
:0401d800f803000028
:020000040000fa
:0401dc00f803000024
:020000040000fa
:0401e000f803000020
:020000040000fa
:0401e400f80300001c
:020000040000fa
:0401e800f803000018
:020000040000fa
:0401ec00f803000014
:020000040000fa
:0401f000f803000010
:020000040000fa
:0401f400f80300000c
:020000040000fa
:0401f800f803000008
:020000040000fa
:0401fc00f803000004
:020000040000fa
:04020000f8030000ff
:020000040000fa
:04020400f8030000fb
:020000040000fa
:04020800f8030000f7
:020000040000fa
:04020c00f8030000f3
:020000040000fa
:04021000f8030000ef
:020000040000fa
:04021400f8030000eb
:020000040000fa
:04021800f8030000e7
:020000040000fa
:04021c00f8030000e3
:020000040000fa
:04022000f8030000df
:020000040000fa
:04022400f8030000db
:020000040000fa
:04022800f8030000d7
:020000040000fa
:04022c00f8030000d3
:020000040000fa
:04023000f8030000cf
:020000040000fa
:04023400f8030000cb
:020000040000fa
:04023800f8030000c7
:020000040000fa
:04023c00f8030000c3
:020000040000fa
:04024000f8030000bf
:020000040000fa
:04024400f8030000bb
:020000040000fa
:04024800f8030000b7
:020000040000fa
:04024c00f8030000b3
:020000040000fa
:04025000f8030000af
:020000040000fa
:04025400f8030000ab
:020000040000fa
:04025800f8030000a7
:020000040000fa
:04025c00f8030000a3
:020000040000fa
:04026000f80300009f
:020000040000fa
:04026400f80300009b
:020000040000fa
:04026800f803000097
:020000040000fa
:04026c00f803000093
:020000040000fa
:04027000f80300008f
:020000040000fa
:04027400f80300008b
:020000040000fa
:04027800f803000087
:020000040000fa
:04027c00f803000083
:020000040000fa
:04028000f80300007f
:020000040000fa
:100400006f2121000eff2c000e018800000000006b
:10041000000020000000e000020032000001200087
:100420002002880014000700f30007000000e0002d
:1004300003003a00e08e2100010020000200370096
:100440000000200001002000810f70000100320038
:100450000f000700000020000000e0000200320052
:100460000000020000000000560a02000000000028
:100470000040da000000fe00200020000000e00044
:1004800002003200100020009001880000000600e9
:10049000a1028800800478000000eb001f003700f4
:1004a000e284440054a0b4009905ba00e2844400f8
:1004b00054a0b4009906ba00e284440054a0b400e9
:1004c0000006eb00476fde00fd07b200ae018800ba
:1004d000636ce10003003a000ad801000000eb0061
:1004e0000e003700606ce10008003a00004deb00a0
:1004f0000a05e800020039003420ec000af0a000f0
:100500008b05e900f9ff3e00040037006168e10057
:10051000010032000086eb000b00070019c7ba008b
:100520000e04e0001905ba0003003a000a00e000da
:10053000dbff3a0000000600fe07b200ae028800b2
:100540008a047800f5ff37000cd0a300e20f4d00bd
:100550001c00390089027800354dba000a05e80010
:10056000020039003420ec000af0a0008b05e900fd
:100570000f003200254dba000a05e80002003900dc
:100580003420ec000af0a0008b05e90008003200de
:100590000c00e0000600320015cdba000a05e800a4
:1005a000020039003420ec000af0a0008b05e900bd
:1005b0008984e80054a0b4000b00e000e2ff3a0098
:1005c000000006009902ba00055d78008b05e9007d
:1005d000f7ff3200c82ade00055d78008b05e900d0
:1005e000f3ff32000c00e000f1ff320019ddba0029
:1005f000eeff37000000fa000108a9000080fa00b1
:1006000000400600809fbe000000fa0001a8a9007b
:1006100001188000400121000108780011188000b5
:1006200040012100110098002118800040012100a4
:10063000210098003118800040012100310098000d
:1006400041188000400121004100980010c0b30013
:100650001cf0b7000080fa004f00be00004006000a
:100660003600f800809fbe00829fbe00849fbe00bf
:10067000869fbe000000fa000188a9000181800069
:10068000f0808000808f500002003200ca0907000d
:10069000010037002270ef000080fa004f03be0017
:1006a0004f02be004f01be004f00be003600f900f1
:1006b000004006003600f800809fbe00829fbe000a
:1006c000849fbe00869fbe000000fa000168a9005a
:1006d00010118000640060000000e00001003200a2
:1006e0002242a90010118000620060000000e000ba
:1006f000060032002222a9000500370030118000d8
:10070000004078000c0a07000100370000000000dc
:1007100010118000610060000000e000f7ff3a0067
:100720000080fa004f03be004f02be004f01be0022
:100730004f00be003600f900004006003600f80009
:10074000809fbe00829fbe00849fbe00869fbe0029
:100750000000fa000068a9002e0507004a060700fd
:1007600005070700228180003381800060818000be
:100770007181800000015100818159001003200027
:1007800001002000800f5100818f590005003600c4
:100790002081800031818000608188007181880023
:1007a000f20507000080fa004f03be004f02be00b2
:1007b0004f01be004f00be003600f90000400600a9
:1007c000809fbe000000fa000368a900208180001d
:1007d0003181800061004000e08048002081880075
:1007e000318188000080fa004f00be000040060002
:1007f0000040da000000fe000000050003f0a20047
:10080000889fbe008a9fbe008c1f78006c01070085
:10081000730133006450e1004f0032006420e100b6
:100820005200320003826c0007003b000905d00033
:100830000306d000820f54000c065d000200390050
:100840000200320089017800030678008582550095
:1008500004003d000003fd008103fd008502ea0065
:100860008b854200840f720002003b006000100084
:10087000e08018006011b8000005eb007a28e10064
:100880000a00390006007800c75ddd00f707b200f6
:10089000878075002d003700828171000a01780081
:1008a000610560008180d1000080d3008502e900ed
:1008b000f9ff3b00060440008784480002003b002b
:1008c00060041400e0841c000988a30007003200c3
:1008d0008a81710082817100610164008904d10004
:1008e0000884d3008b05e800170037000978a300bf
:1008f00013003a000b00e000130034008b05e90000
:100900000804440089844c000a4474000978a30058
:100910000d003a000b00e000070034008b05e900f1
:100920000804440089844c0001003a000b002000b8
:100930000978a300f7ff32000001eb000200370046
:10094000828171000a017800e20007000cf0a70024
:1009500001f0a0002b0137006420e10002003a0002
:10096000838f6c002b0133000801be000200be0023
:10097000240137000081eb005d013700889fbe0035
:100980008a9fbe008c1f78000d0107001401330000
:1009900003866c006450e1002e0032006420e10008
:1009a000330032006150e1002f0032006120e1008d
:1009b0003100320085855500eb07b00009002000aa
:1009c00008042000050037000804440089844c0016
:1009d0000a0031000603430087834b0000015300e7
:1009e00081815b00f8ff33000203be000800a00015
:1009f0000804440089844c00f6ff3900c639dd0044
:100a00008301730001003200130020008904d1002b
:100a10000884d3000998a300050032000800a7004d
:100a20000300a0008904d1000884d3008b05e800ee
:100a30008904d1000884d3000001eb000281d200b8
:100a4000a400070001f0a1000cf0a70001f0a00035
:100a5000ec0037006420e100ee0032000801be0027
:100a60000200be00f7ff37006120e100e90032001c
:100a70006000b800f3ff37000000200001f82700f5
:100a8000f0ff37001400200084013700f4ff2f002e
:100a9000820137000001be00b40007000470a70007
:100aa00003f0a1006509b100160032000d00350009
:100ab0006828e10006003500f0ff2f00f1ff270055
:100ac0000300e00013003b000100280000000500c7
:100ad00000004000818048008502e900fcff3a00e8
:100ae00008003700f88f420002003c008000eb0055
:100af000000005008100d1000080d3008502e800dd
:100b0000fcff3a000300e00002003b006000100020
:100b1000e0801800000006000001be0093000700fe
:100b20000470a70003f0a10003f8a30013003a002b
:100b30006509b10010003200090035006928e100a4
:100b40000200350001002800000005000000400000
:100b5000818048008502e900fcff3a0000000600a1
:100b6000f88f4200050035008100d1000080d300dd
:100b70008502e800fcff3a00000006008000eb0060
:100b8000000005004f89de00820178005e01370019
:100b90000400200000003700889fbe008a9fbe002e
:100ba0008c1f78004f26dd00850007008c00330085
:100bb0006120e100430032006250e10041003e004c
:100bc0003e0039006420e1003c00320005825500ff
:100bd0000f003b000402e80038003a00800f530089
:100be000818f5b00350034000800be0003f0a100d7
:100bf00001f0a60003f0a0000cf0a70000ff070022
:100c0000800037000603430087834b000c464600f4
:100c10000005530081855b00020033000a03be001b
:100c20000c00a0000402e900f6ff3b0085057800f7
:100c30000602430087824b0004003a006000b800bf
:100c400009f0a70001f0a0006e003700000252007a
:100c500081825a000704e0000400330006034300c9
:100c600087834b008b05e900faff37000905780000
:100c70000604be000203be006011b80015000700a4
:100c8000e00f5200e08f5a000700350002003c00e0
:100c90000c08a300040032000601be0003f0a0000f
:100ca0000cf0a700d6fe07000a85680001f0a1003d
:100cb0000af0a70001f0a000520037000800be00b3
:100cc00050003700100220000cf0a6009081880030
:100cd0005000370081002000618055000b003d006e
:100ce0000b00200061fe2f000100e1001d00340018
:100cf00082817100610164008904d1000884d300fd
:100d00000000e800faff3a00710020006100640072
:100d1000030070000200600009003200610444001a
:100d2000e0844c000988a500050032008b05e8002e
:100d30006808e10002003a008904d1000884d30069
:100d4000f20f20000258e10005003d00c75ddd0004
:100d5000f907b200898075000800780000000600dd
:100d60000bf827008b00780000000500c70ade00a2
:100d7000f107b200f50fb20008003200e1cf4200e7
:100d8000020032000170a00024000500810f7000f5
:100d9000010032000408050044000500810f7000c6
:100da00002003a00140005008502e900000040003e
:100db00081c04800fcff3b000170a000240005003a
:100dc0000004be00e9ff07000003be000405be00ea
:100dd0000200be00e5ff0700844f7500000006001a
:100de0000200be006450e100050036006420e1000e
:100df000020036000968a30001003a000800be00a6
:100e00000160a0004f0678004f05be004f04be00f1
:100e100000000600f0ff2f00f1ff2700f9ff370068
:100e2000889fbe008a9fbe008c1f7800e4ff0700e9
:100e3000ebff330003866c006450e10024003200b5
:100e40006420e100270032006150e10022003200fe
:100e50006120e100210032008b854200eb07b100e8
:100e60000134b800003ab8000804420089844a00fe
:100e7000013ab8000030b8008880400009014a00fb
:100e80000400330000004000818048000201490056
:100e90008b05e900c909dd00830170000100320003
:100ea00013002000c814de004814dd004709de00ee
:100eb0001200b200c808de000884700085ff070039
:100ec00001f0a1000cf0a70001f0a000cdff370059
:100ed0006120e100cfff32000801be000200be0029
:100ee000f7ff37006150e100fcff3a00c9ff37000f
:100ef000889fbe008a9fbe008c9fbe00820578003e
:100f00000004be0099ff07000800be006420e10055
:100f10000700390002003a00f1ff2700f0ff2f0020
:100f20000160a00012022000928188005500370065
:100f30006120e10003003a000b00a70001f8230044
:100f40005000370001f0a10002002100936424004a
:100f5000ccfe07000800be0004003500b2fd2000f2
:100f6000930c24000aff07000004be000005eb00fc
:100f70000b00a6004f0dde0001f0a1000004be0032
:100f800032982f0023ea2300a5ff07000001eb00a1
:100f900003f023000b00a70003f8230018fe07004e
:100fa000bcfe07000000a7000a00a200f5fe070033
:100fb0000b00e000030032000200200003f02300d9
:100fc0000efe070001f0a2000006be000200200095
:100fd0009304240092ff07000801be0008fe0700ea
:100fe000809fbe000c00be0022a22a00d3a72300cf
:100ff0008bff07004f01be0001fe07000004be008a
:1010000001f0a10002002000039823009dfe0700cc
:101010000800be00190035000001be0080ff070077
:101020000006be00b2c52900e36223007cff070072
:1010300022222b00f3942b00f1fd07000c01be00cf
:1010400077ff0700e273280083c02300ecfd070050
:101050000c01be0072ff070042aa2a00a3e22b0087
:10106000e7fd07000c01be006dff07000801be0090
:101070006bff07000801be00e1fd07000a00a700a2
:1010800001f0a2004f06be004f05be004f04be0097
:10109000000006000001eb0095ff3700889fbe00ae
:1010a0008a9fbe00841f780045ff07004f0078002c
:1010b00011003300f0ff2f00838f6c0006003b000f
:1010c000040565000a00a7000800370009f0a60023
:1010d0001000200008003700820f5400838f5c004e
:1010e000030039001000200001003e000000200035
:1010f00009f0a7000000ea004f05be004f04be0043
:101100000000e00000000600881f7800030478005b
:101110000300e00007003d0060001000e0801800c0
:1011200060011900e081190002003b0001f02d0070
:10113000030037000400070008f0a70001f0a0003a
:101140004f04780000000600889fbe008a9fbe0002
:1011500000827000040271000482710026003200d7
:101160000004be000200be006011b8006b09200040
:10117000950220000182cf000a0039000541b1002c
:101180000082cf00070039000541b1000982cf007d
:10119000040039000541b1000882cf000100390088
:1011a0000541b10005425200120032000a003b0026
:1011b00082817100610164008100d1000080d30050
:1011c0008984d3000884d3008b05e8000442e8003a
:1011d000f7ff3a00070037000804440089844c00f8
:1011e00000004800818048008b05e9000442e900c6
:1011f000f9ff3a00b7fe07004f05be004f04be00de
:0412000000000600e4
:020000040000fa
:101204000a00fa0030079800014f98008f00780018
:101214000f007800000178000e4890008081fb00e8
:101224008301e900130798000080fb000000e80038
:101234000000e8000000d100800140000f007800a9
:10124400838747000000e8000000d1000000400050
:10125400200798000000eb00000f7800080037001a
:101264001e007800be01900000804100904178008b
:101274002e0090001e004000034878001e0fe80076
:101284000e4890000080fb009e0f5000f4ff3c00cd
:101294002e00900082077800810778000080fa0011
:1012a400000006000400fa00450707000004e000ff
:1012b4007b0032000000eb00000f7800750037005f
:1012c4002f0707002047980000d0bf000080fb00d4
:1012d400e30f500025003200e30f500007003c00ec
:1012e400e10f500012003200e10f500017003c00e3
:1012f4000000e000080032005e003700e50f5000f7
:1013040030003200e50f50001f003500e60f50009a
:1013140042003200570037002e409000e24f400058
:1013240056003a0010c0b30000f0b7005800370070
:101334002e4090000080fb004800dd0010808800f3
:1013440020c0b30000f0b700510037002e409000d9
:101354008080fb00108080000080400010808800a6
:1013640030c0b30000f0b700490037002e409000b1
:101374000080fb004800dd002080880040c0b300ee
:1013840000f0b700420037002e4090008080fb0040
:101394002080800000804000208088002080800021
:1013a4000000e000040032000970ef0050c0b300f8
:1013b40000f0b7003600370060c0b30000f0b7009b
:1013c4003300370009d0bf008080fb0020808000fc
:1013d400808f50002b00310009d0bf000080fb003b
:1013e4004103210000804000ae4090000148780095
:1013f40009d0bf000040e80009f0b70009d0bf00e1
:101404008080fb0020808000808f50001f003a0005
:1014140060c0b30000f0b7001d003700ae4090007c
:101424006200210001497800218080001080800042
:10143400420321001e0507000040780008f0b700b1
:10144400810021009140780006d0bf0080cf500079
:1014540002003a000770ef000200370010c0b3002a
:1014640007f0b70010c0b3000af0b7000070ef0037
:10147400070037000070ef0005003700000000008f
:1014840003003700000000000100370000000000e6
:101494001e0fe800db0607009e0f500088ff3c008b
:1014a4000080fa00000006000000fa001f07070091
:1014b400a900070035010700b8010700e20607008c
:1014c400d402070051060700c7040700be01070045
:1014d400c60107000000200001f82300308e8800b8
:1014e400418e88000000200001f82300508e8800ff
:1014f400618e88000000200001f82300708e8800af
:10150400818e88000000200001f82300908e88005e
:10151400a18e88000000200001f82300b08e88000e
:10152400c18e88000000200001f82300d08e8800be
:10153400e18e88000000200001f02300108f880055
:10154400218f88006000b800f08e8800018f880029
:101554000300370000000000010037000000000015
:1015640050ff07000ad0bf000004e000f9ff32007a
:1015740007d0bf000004e000f8ff3a0010808000ac
:1015840001042000810f50000e00320001042000ed
:10159400810f500004003e0001022000810f500022
:1015a400200032006600370081082000810f5000bf
:1015b40052003200a10a2000810f5000570032006f
:1015c4005f00370020808000004078008040780071
:1015d400400321000aff0700104078000000fb00d0
:1015e400cf80de0066fd070012c0b3005003070081
:1015f4002080800000407800804078004003210073
:10160400fffe07000000e800104078000000fb0027
:10161400cf80de005afd07000041eb0044030700c1
:101624004700370020808000004078008040780028
:1016340040032100f2fe0700104078000bf0b700d1
:101644002080800000407800804078004003210022
:10165400ebfe07000000e800104078000cf0b70033
:101664000bd0bf00e24f50000a003a000cd0bf007c
:10167400614060000080fb00610060004700dd0005
:10168400217380000170a1000100700020738800a4
:101694002b0037000bd0bf00e14f50000a003a0086
:1016a4000cd0bf00614060000080fb00610060005e
:1016b4004a00dd002171800001a0a100010070003a
:1016c400207188001e0037000bd0bf00e34f50008c
:1016d4001a003a000cd0bf00614060000080fb009b
:1016e400610060004600dd00217380000160a100fc
:1016f40001007000207388001100370040032100ae
:10170400104078000000fb00cf80de001cfd0700c5
:10171400108f8800218f88000900370040032100c2
:10172400104078000000fb00cf80de0014fd0700ad
:10173400f08e8800018f880001003700000000004f
:1017440007d0bf000004e000010032000770ef0082
:101754000a70ef0082ff37000000fa0013e1a900cd
:1017640011e1a9001061a8001021a90081088000de
:10177400f0fc2f0000806000800888000a21ef0040
:101784000621ef00202620007008880000a0250014
:10179400600888002142800080ff2f0000806000e4
:1017a4000000a000204288000108a9002108a80028
:1017b40011e1a8000080fa00000006000400fa000d
:1017c400881f7800008fbe0021088000f0fc2f00e5
:1017d40000806000200888001e0178009e019000af
:1017e4000068290081c1240063fc070018c0b3000d
:1017f40002f02f00f3772400a3fc07000000e000b0
:1018040001003c000044eb000804e00054003200f6
:1018140021088000f0fc2f00008060000040a00040
:10182400200888001e0178009e01900000682900ad
:1018340081c1240050fc0700020020000310240092
:101844004dfc070018c0b30002f02f00f37724000a
:101854008dfc07000000e00001003c000044eb00a8
:101864000804e0003200320021088000f0fc2f0060
:10187400008060000050a000200888001e0178004d
:101884009e0190000068290081c124003afc0700f1
:10189400020020000328240037fc070018c0b3000e
:1018a40002f02f00f377240077fc07000000e0002b
:1018b40001003c000044eb000804e000100032008a
:1018c4002108800000032000010070002008880027
:1018d4001e0178009e0190000068290081c1240047
:1018e40025fc0700020020000338240022fc070026
:1018f40067fc07000000780010088800200037000b
:101904001e0178009e0190000068290081c1240016
:1019140019fc0700020020000328240016fc07001d
:101924005bfc0700000078001008880014003700f2
:101934001e0178009e0190000068290081c12400e6
:101944000dfc070002002000031024000afc07001d
:101954004ffc0700000078001008880008003700da
:101964001e0178009e0190000068290081c12400b6
:1019740001fc070046fc07000000780010088800fe
:101984004f0478000080fa00000006000000fa000e
:1019940005e1a90021088000f0fc2f000080600010
:1019a4000050a000200888000421a90000002000a5
:1019b400a137240081ff07000068a9002068a8005f
:1019c40005e1a8000080fa00000006000400fa0007
:1019d400881f7800008fbe00f1088000f0fc2f0003
:1019e40000806000f00888001e0178009e019000cd
:1019f4000068290081c12400dffb070018c0b30080
:101a040002f02f00f37724001ffc07000000e00021
:101a140001003c000044eb000804e00054003200e4
:101a2400f1088000f0fc2f00008060000040a0005e
:101a3400f00888001e0178009e01900000682900cb
:101a440081c12400ccfb0700020020000310240005
:101a5400c9fb070018c0b30002f02f00f37724007d
:101a640009fc07000000e00001003c000044eb001a
:101a74000804e00032003200f1088000f0fc2f007e
:101a8400008060000050a000f00888001e0178006b
:101a94009e0190000068290081c12400b6fb070064
:101aa4000200200003282400b3fb070018c0b30081
:101ab40002f02f00f3772400f3fb07000000e0009e
:101ac40001003c000044eb000804e0001000320078
:101ad400f10880000003200001007000f008880075
:101ae4001e0178009e0190000068290081c1240035
:101af400a1fb070002002000033824009efb07001e
:101b0400e3fb07000000780010088800200037007d
:101b14001e0178009e0190000068290081c1240004
:101b240095fb0700020020000328240092fb070015
:101b3400d7fb070000007800100888001400370065
:101b44001e0178009e0190000068290081c12400d4
:101b540089fb0700020020000310240086fb070015
:101b6400cbfb07000000780010088800080037004d
:101b74001e0178009e0190000068290081c12400a4
:101b84007dfb0700c2fb07000000780010088800f6
:101b94004f0478000080fa00000006000000fa00fc
:101ba4001fe1a9001e21a90000002000a147240074
:101bb40086ff07000368a9002368a8001fe1a800a6
:101bc4000080fa00000006000000fa00c301a8002b
:101bd4000080eb00e00e88000080eb00f00e88002f
:101be400c1e1a8000080fa00000006000000fa002d
:101bf400c305a8000080eb00e02e88000080eb0005
:101c0400f02e8800c1e5a8000080fa00000006005c
:101c14002400fa00889fbe00328f8000438f80002a
:101c2400028fbe00528f8000638f800022079800cd
:101c340033079800300e80008000eb0040079800c6
:101c440051079800500e80008000eb00c000dd00ba
:101c5400000020004e019000de01900002004000d0
:101c6400838048004007980051079800302e800078
:101c74008000eb006007980071079800502e8000e8
:101c84008000eb00c000dd00000020006e01900029
:101c9400fe01900002004000838048006007980025
:101ca400710798004e009000de009000b4fb07001e
:101cb400d25d2b0043c8230058fc0700020020001b
:101cc400a34724002cfb0700308f8800418f880035
:101cd4006e009000fe009000a9fb0700d25d2b006f
:101ce40043c82b004dfc070002002000a34724003a
:101cf40021fb0700508f8800618f8800308f80009f
:101d0400418f80001e0178009e019000bafa0700fe
:101d1400000f9800110f9800508f8000618f800091
:101d24002e019000be019000b3fa0700200f980026
:101d3400310f98002e099000be0990000e08900003
:101d44009e089000acfa0700a2992900c338240029
:101d540009fb0700400f9800510f98002e099000ce
:101d6400be0990000e0890009e089000a3fa070098
:101d74000200200003002400fffa0700600f98000f
:101d8400710f980002002000a33724000e08900071
:101d94009e08900021fc0700708f8800818f8800c6
:101da40002002000a33724002e089000be089000f3
:101db4001afc0700908f8800a18f8800748f800020
:101dc400858f8000908f8000a18f80000001be006d
:101dd4000400be0089fa070002002000030024006a
:101de400e5fa0700b08f8800c18f88000200200048
:101df400a33724004e089000de08900007fc07007b
:101e0400d08f8800e18f880010908000219080009e
:101e1400f08f8800019088005090800061908000cd
:101e2400309088004190880090908000a1908000bc
:101e3400709088008190880070908000819080006c
:101e44004e099000de0990006cfa07000017980014
:101e540011179800f88f8000099080000e109000f0
:101e64009e109000c2fa07006e099000fe099000cf
:101e7400eafb07000001be000800be005ffa07008d
:101e8400109088002190880038908000499080004c
:101e94000e1090009e1090007dfc07006e099000cb
:101ea400fe099000ddfb07000001be000800be0033
:101eb40052fa070050908800619088000e1190003b
:101ec4009e11900092908800a390880090908000ca
:101ed400a190800018c0b300b2fd20009304240038
:101ee400e9fa07000000e00001003c000044eb00b8
:101ef4000804e0000700320090908000a190800068
:101f0400b2fd2000930c24003bfa07009090880057
:101f1400a190880090908000a190800018c0b30028
:101f2400b2fd200093042c00d5fa07000000e00065
:101f3400010035000044eb000804e0000700320013
:101f440090908000a1908000b2fd2000930c2400aa
:101f54002afa070090908800a19088004f04be00e0
:101f64000080fa00000006001800fa0020818000ba
:101f7400318180000001be008000eb000e0078007b
:101f8400e601070010908000219080000001be004f
:101f9400410020000e007800c70107005090800027
:101fa400619080000001be00810020000e007800d6
:101fb400c101070090908000a19080000001be0044
:101fc400c10020000e007800bb010700b08f800024
:101fd400c18f80000001be00010120000e007800c6
:101fe400b5010700d08f8000e18f80000001be00a2
:101ff400410120000e007800af0107000e017800b7
:1020040081012000100620004a0207000080fa0027
:10201400000006000000fa001160800080ff2f001d
:10202400008060001060880000fa200020608800b2
:1020340023aca800238ca80011618000f03f2f007e
:102044000080600000a0a000106188003000200023
:1020540020618800c3aca800c38ca800116680006e
:10206400f03f2f000080600000a0a00010668800f0
:10207400300020002066880001eca8000080fa00ef
:10208400000006000000fa00889fbe008a9fbe0080
:10209400148e8000258e8000f08d8000018e8000db
:1020a40018c0b3000001be000400be0074fa0700ab
:1020b4000000e000010035000044eb000804e000eb
:1020c4000f003200f88d8000098e80001a8e800087
:1020d4002b8e800030d0bf000080fb00cf80de005c
:1020e400a7fa07000001be000a00be00c3f90700fa
:1020f4000801be009a020700108e8800218e880015
:10210400148e8000258e8000f08d8000018e80006a
:1021140018c0b3000001be000400be005afa070054
:102124000000e00001003c000044eb000804e00073
:102134000f003200f88d8000098e80001a8e800016
:102144002b8e800030d0bf000080fb00cf80de00eb
:102154008bfa07000001be000a00be00a6f90700c2
:102164000801be0066020700108e8800218e8800d8
:10217400108e8000218e800018c0b3006011b8005a
:1021840041fa07000000e00001003c000044eb00bd
:102194000804e00004003200c3cca90024eea80027
:1021a400c3eca80003003700c3eca90024cea800a8
:1021b400c3cca800108e8000218e80003a02070054
:1021c400020020000322240014fb070051fa070038
:1021d4000000780030668800d48d8000e58d800092
:1021e400b08d8000c18d800018c0b3000001be0016
:1021f4000400be0022fa07000000e00001003500e0
:102204000044eb000804e0000f003200b88d8000a9
:10221400c98d8000da8d8000eb8d800030d0bf0046
:102224000080fb00cf80de0055fa07000001be00ed
:102234000a00be0071f907000801be004802070049
:10224400d08d8800e18d8800d48d8000e58d8000dc
:10225400b08d8000c18d800018c0b3000001be00a5
:102264000400be0008fa07000000e00001003c0082
:102274000044eb000804e0000f003200b88d800039
:10228400c98d8000da8d8000eb8d800030d0bf00d6
:102294000080fb00cf80de0039fa07000001be0099
:1022a4000a00be0054f907000801be00140207002a
:1022b400d08d8800e18d8800d08d8000e18d800074
:1022c40018c0b3006011b800edf907000000e00089
:1022d400010035000044eb000804e0000400320073
:1022e40023cca90015eea80023eca80003003700b6
:1022f40023eca90015cea80023cca800d08d800023
:10230400e18d8000e8010700020020000322240080
:10231400c2fa0700fff90700000078003061880066
:102324004f05be004f04be000080fa000000060006
:102334000600fa00008fbe00424798004e4090000d
:10234400e14f500005003a001e0178009e01900004
:10235400b28d8800c38d8800040037001e01780008
:102364009e019000f28d8800038e88000080fa00a0
:10237400000006000800fa00108f8000218f800002
:102384000200200003122400a4fa0700008fbe00fc
:10239400f28e8000038f8000220798003307980094
:1023a4001e0178009e0190002e009000be00900057
:1023b40012f90700f08d8800018e8800f08d8000ee
:1023c400018e800004002000852c240002002000df
:1023d400832c2c00fa010700f08d8800018e880000
:1023e4001e0178009e0190002e009000be00900017
:1023f40001f90700b08d8800c18d8800b08d800080
:10240400c18d800004002000852c240002002000df
:10241400832c2c00ea010700b08d8800c18d880050
:102424000080fa00000006000400fa00881f78000b
:10243400008fbe0018c0b3006011b8001e00780001
:102444009e00900090f907000000e00001003d00ac
:102454000044eb000804e000030032001e00780092
:102464009e009000030037001e0078009e0090003c
:1024740001f0a2004f0478000080fa00000006007a
:102484000800fa00881f7800008fbe002207980019
:102494003307980018c0b3002e019000be019000cd
:1024a4001e0078009e00900077f907000000e0000d
:1024b40001003c000044eb000804e000030032008b
:1024c4001e0078009e009000020037002e0090004d
:1024d400be0090004f0478000080fa00000006005f
:1024e4000800fa00881f7800008fbe0022079800b9
:1024f4003307980018c0b3002e019000be0190006d
:102504001e0078009e0090005df907000000e000c6
:10251400010035000044eb000804e0000300320031
:102524001e0078009e009000020037002e009000ec
:10253400be0090004f0478000080fa0000000600fe
:102544000c00fa00881f7800008fbe002207980054
:1025540033079800440798005507980018c0b30043
:102564002e019000be0190001e0078009e00900095
:1025740043f907000000e000010035000044eb00cf
:102584000804e000030032002e009000be0090001a
:102594001000370018c0b3004e019000de01900017
:1025a4001e0078009e00900037f907000000e0004c
:1025b40001003c000044eb000804e000030032008a
:1025c4004e009000de009000020037001e007800ec
:1025d4009e0090004f0478000080fa00000006007e
:1025e4000800fa002007980031079800b2fd200087
:1025f400930424002e009000be0090007ef8070093
:10260400b2fd2000930c240060f90700b2fd200005
:102614009304240079f80700008fbe00b2fd200067
:10262400930424001e0078009e00900073f80700b5
:10263400b2fd2000930c240054f90700b2fd2000e1
:10264400930424006cf807000080fa0000000600e0
:102654000a00fa003007980041079800be00900075
:102664004e009000008f40001e007800100178009a
:102674009001900012079800230798001e00900014
:10268400ae0090000080fa00000006000600fa0088
:1026940010079800210798009e0090002e009000db
:1026a400008f40001e007800900090001000780019
:1026b4000080fa00000006000c00fa0020079800d1
:1026c40031079800420798005307980068004700b4
:1026d400100798000000eb00000f78000a00370094
:1026e4003e0090001e004000ae00900000804000bc
:1026f4009e0078001e019000810041009140780006
:10270400014878001e0fe8001e007800e30f500017
:10271400f3ff34000080fa00000006000c00fa0009
:102724002007980031079800420798005307980043
:1027340068004700100798000000eb00000f7800c5
:102744000b0037003e0090001e004000ae009000d9
:1027540000804000320020009e0051001e019000c5
:102764008100410091407800014878001e0fe80084
:102774001e007800e30f5000f2ff34000080fa00de
:10278400000006000c00fa002007980031079800aa
:102794004207980053079800680047001007980004
:1027a4000000eb00000f78000a0037003e009000a4
:1027b4001e004000ae009000008040009e007800a3
:1027c4001e0190008100410091407800014878008a
:1027d4001e0fe8001e007800e70f5000f3ff3400de
:1027e4000080fa00000006000000fa002002a900a0
:1027f4000111800090ff2f0000806000001188000c
:1028040020a2a9002062a8005005200040118800e1
:1028140023a2a90023e2a9000188a9002188a80015
:1028240011118000f0f32f00008060001011880067
:102834000168a9002168a80021e2a8002342a80099
:102844000080fa00000006000600fa001007980055
:10285400210798000040eb00004f78000e0037007d
:1028640000000000111180000020200000806000a2
:102874000000e000fbff3a001e00900010407800ca
:102884000080fb00201188001e0090000000e8007a
:10289400100798001e4fe8009e80fb002e00900059
:1028a400808f5000eeff35000080fa000000060023
:1028b4000a00fa00200798003107980042079800a0
:1028c4000040eb00004f78002e009000804078001c
:1028d4002e0090004880de000040780000c06800b0
:1028e4009e406800e0cfb30000cf68000000eb001a
:1028f40010079800080037001e009000ce009000da
:1029040000804000104078001e4f68001e009000b8
:102914000000e800100798009e0090003e00900020
:10292400808f5000f4ff35001e4078000080fa00cc
:10293400000006000c00fa00889fbe008a9fbe00bb
:102944003007980041079800520798008f047800d8
:102954000f007800000578004e00900066044000e7
:102964000800e90010079800080078000000e8005b
:102974000000e8000000d100800040000f00780053
:10298400818747000000e8000000d10000004000fb
:10299400200798002e009000e1cfb3000148780092
:1029a4003e0090004880de00804078002e009000b9
:1029b400114098003e009000804078002e00900066
:1029c400214098004e0090004880de00804078004e
:1029d4002e009000314098004e0090008040780016
:1029e4002e009000414098000000eb00000f78009a
:1029f4000a0037009e007800658040009e00780041
:102a04005e01900081004100914078002e01900009
:102a140000004100014878001e0fe8004e009000bd
:102a24009e007800808f5000f2ff35004e00900029
:102a3400e50540005e019000ce0090003e0090004d
:102a44009bff0700ae0090008b8040008048780018
:102a54002e009000880078009a0007008a0778000a
:102a6400890778004f05be004f04be000080fa00bd
:102a7400000006000400fa0020479800314798003f
:102a8400ae4090003e409000014f780010479800ff
:102a94000e0178002100200000042000a5ff07009b
:102aa4000080fa00000006000400fa00881f780085
:102ab400008fbe0018c0b3006011b8001e0078007b
:102ac4009e009000f0f707000000e00001003d00c8
:102ad4000044eb000804e000030032001e0078000c
:102ae4009e009000030037001e0078009e009000b6
:102af40001f0a2004f0478000080fa0000000600f4
:102b04000800fa00881f7800008fbe002207980092
:102b14003307980018c0b3002e019000be01900046
:102b24001e0078009e009000d7f707000000e00028
:102b340001003c000044eb000804e0000300320004
:102b44001e0078009e009000020037002e009000c6
:102b5400be0090004f0478000080fa0000000600d8
:102b64000800fa00881f7800008fbe002207980032
:102b74003307980018c0b3002e019000be019000e6
:102b84001e0078009e009000bdf707000000e000e2
:102b9400010035000044eb000804e00003003200ab
:102ba4001e0078009e009000020037002e00900066
:102bb400be0090004f0478000080fa000000060078
:102bc4000c00fa00881f7800008fbe0022079800ce
:102bd40033079800440798005507980018c0b300bd
:102be4004e019000de0190001e0078009e009000cf
:102bf400a5f707000000e00001003c000044eb00e2
:102c04000804e000040032004e019000de01900050
:102c1400028fbe000e00370018c0b3002e019000d2
:102c2400be0190001e0078009e00900094f70700fb
:102c34000000e000010035000044eb000804e0005f
:102c4400030032002e019000be019000028fbe00ee
:102c54001e0078009e0090004f0478000080fa0067
:102c6400000006000400fa00008fbe00b2fd200040
:102c7400930424001e0078009e0090003ef7070095
:102c8400020020004333240064f807000080fa00a7
:102c9400000006000400fa00008fbe00b2fd200010
:102ca400930424001e0078009e0090005bf8070047
:102cb40002002000433324002ff707000080fa00ad
:102cc400000006000600fa0010079800210798008b
:102cd4000040eb00004f780043000700ae00900076
:102ce400810f5000110034000040eb00004f7800c9
:102cf400060037001e80fb009e009000008040000c
:102d0400104078000b0007001e4fe8009e80fb0077
:102d14002e009000808f5000f6ff35002e00070033
:102d24000004e00001003a00220007000080fa00dd
:102d3400000006000200fa00004f7800f0808000d6
:102d4400410b2100008040001e487800f080800084
:102d54000000e800f0808800f1808000f007200087
:102d6400808f5000010034001e30ef000080fa0014
:102d7400000006000200fa0000818000410b2100df
:102d840000804000104f7800008180000000e800bf
:102d94000081880001818000f0072000808f5000ae
:102da400010034002030ef001e4078000080fa005b
:102db400000006000200fa0010c0b30022f0b700c1
:102dc400ecff0700004f78001e80fb0020118800f4
:102dd4000080fa00000006000000fa0022d0bf00c4
:102de4000080fa00000006000200fa00f080800073
:102df400010820008080500000818000008f400086
:102e04001e0078000080fa00000006000000fa00ae
:102e140021e3a9002143a80001198000f0cf2f006d
:102e240000806000001988002043a9000119800077
:102e3400000e2000010070000019880011198000a4
:102e4400f0ff210000806000101988002343a800cf
:102e540011198000f0cf2f00008060001019880045
:102e64001119800030f82f00008060000040a0009d
:102e7400101988002203a9002223a90025e3a90030
:102e8400f0c0b30024e3b70021198000f00f2e0036
:102e94008080600000f0200001007000201988008c
:102ea4003303a9002e0ea8002f6ea8006f2ea800d1
:102eb4004feea8000f8ea80030c3a8003163a8000d
:102ec4002e03a80031e3a8003143a8004119800073
:102ed40000fc2f00008060004019880028e3a9004e
:102ee40001a8a90021a8a80021e3a8000080fa00f5
:102ef400000006000000fa002023a8000080fa0069
:102f0400000006000000fa00400121000080fa00e1
:102f1400000006000000fa001cd0bf000080fa0088
:102f2400000006000000fa001c70ef000080fa00a8
:102f3400000006000200fa00004f78002a00070093
:102f44000000e0000c0034004081800041132100a7
:102f5400008040001e487800408180000000e800a6
:102f64004081880041818000f0072000808f50005c
:102f7400010034002830ef000080fa000000060051
:102f84000200fa00508180004113210000804000bb
:102f9400104f7800508180000000e80050818800c4
:102fa40051818000f0072000808f50000100340020
:102fb4002a30ef001e4078000080fa00000006006e
:102fc4000000fa004181800050818000808f500011
:102fd4000200320010c0b300010037000040eb00d3
:102fe4000080fa00000006000200fa000500070055
:102ff40001082000008f50001e0078000080fa00b5
:10300400000006000200fa00518180004081800027
:10301400808f500006003400508180000108200099
:103024008080500040818000008f40000300370002
:103034004181800050818000008f50001e00780084
:103044000080fa00000006000000fa000e2eef00d7
:103054001e2eef002e2eef003e2eef004e2eef0020
:103064005e2eef006e2eef00214ea90060cea90067
:1030740060eea900000ea80011cea90011eea9006f
:1030840020cea90020eea900102ea800200ea80032
:10309400216ea800612ea80041eea8002136800010
:1030a40000f82f00008060008001b3002036880003
:1030b4001134800000fc2f00008060000000a0009c
:1030c400103488000136800000f82f0080806000f2
:1030d40010062000010070000036880001368000d0
:1030e400f00f2800808060000000260001007000be
:1030f40000368800e135800000f82f0080806000f1
:103104006004200001007000e0358800e135800093
:10311400f00f28008080600000502400010070003f
:10312400e03588000080fa00000006000000fa0084
:10313400f0032000303a8800213a8000f0f32f0099
:1031440000806000203a8800213a800000fe2f00b1
:10315400008060000000a000203a880012002000d7
:1031640080072000a10920003374200080497800e2
:103174008149780082497800103a80000001780083
:103184000200a000600420007105200023742000c8
:103194008049780081497800824978000000000065
:1031a400113a8000000027008080600000002100a8
:1031b400808f5000faff3a0000000000113a8000ae
:1031c40000022000008060000000e000fbff3200ed
:0831d4000080fa000000060073
:020000040000fa
:1031dc00341000008000000080000000001000008f
:1031ec001200000080000000241000000400000009
:1031fc0080000000b411000062000000800000009c
:10320c0030100000020000008200000014000000da
:10321c00121000000c00000080000000b410000030
:10322c0080000000800000001e100000060000005e
:10323c0080000000341100008000000080000000bd
:10324c002810000004000000800000002c1000007a
:10325c00040000008000000032100000020000009a
:08326c008000000000000000da
:020000040000fa
:02000004000af0
:04afe000cfff00009f
:020000040000fa
:02000004000af0
:04afe400ffff00006b
:020000040000fa
:02000004000af0
:04afe8007fff0000e7
:020000040000fa
:02000004000af0
:04afec005fff000003
:020000040000fa
:02000004000af0
:04aff00038ff000026
:020000040000fa
:02000004000af0
:04aff400ffff00005b
:00000001FF
