:020000040000fa
:080000000002040000000000f2
:020000040000fa
:04000800b60300003b
:020000040000fa
:04000c00b603000037
:020000040000fa
:04001000b603000033
:020000040000fa
:04001400b60300002f
:020000040000fa
:04001800b60300002b
:020000040000fa
:04001c00b603000027
:020000040000fa
:04002000b603000023
:020000040000fa
:04002400b60300001f
:020000040000fa
:04002800b60300001b
:020000040000fa
:04002c00b603000017
:020000040000fa
:04003000b603000013
:020000040000fa
:0400340002030000c3
:020000040000fa
:04003800b60300000b
:020000040000fa
:04003c00b603000007
:020000040000fa
:04004000b603000003
:020000040000fa
:04004400b6030000ff
:020000040000fa
:04004800fa020000b8
:020000040000fa
:04004c00b6030000f7
:020000040000fa
:04005000b6030000f3
:020000040000fa
:04005400b6030000ef
:020000040000fa
:04005800b6030000eb
:020000040000fa
:04005c008803000015
:020000040000fa
:04006000b6030000e3
:020000040000fa
:04006400b6030000df
:020000040000fa
:04006800b6030000db
:020000040000fa
:04006c00b6030000d7
:020000040000fa
:04007000b6030000d3
:020000040000fa
:04007400b6030000cf
:020000040000fa
:04007800b6030000cb
:020000040000fa
:04007c00b6030000c7
:020000040000fa
:04008000b6030000c3
:020000040000fa
:04008400b6030000bf
:020000040000fa
:04008800b6030000bb
:020000040000fa
:04008c00b6030000b7
:020000040000fa
:04009000b6030000b3
:020000040000fa
:040094004003000025
:020000040000fa
:04009800b6030000ab
:020000040000fa
:04009c00b6030000a7
:020000040000fa
:0400a000b6030000a3
:020000040000fa
:0400a400b60300009f
:020000040000fa
:0400a800b60300009b
:020000040000fa
:0400ac00b603000097
:020000040000fa
:0400b000b603000093
:020000040000fa
:0400b400b60300008f
:020000040000fa
:0400b800b60300008b
:020000040000fa
:0400bc00b603000087
:020000040000fa
:0400c000b603000083
:020000040000fa
:0400c400b60300007f
:020000040000fa
:0400c800b60300007b
:020000040000fa
:0400cc00b603000077
:020000040000fa
:0400d000b603000073
:020000040000fa
:0400d400b60300006f
:020000040000fa
:0400d800b60300006b
:020000040000fa
:0400dc00b603000067
:020000040000fa
:0400e000b603000063
:020000040000fa
:0400e400b60300005f
:020000040000fa
:0400e800b60300005b
:020000040000fa
:0400ec00b603000057
:020000040000fa
:0400f000b603000053
:020000040000fa
:0400f400b60300004f
:020000040000fa
:0400f800b60300004b
:020000040000fa
:0400fc00b603000047
:020000040000fa
:04010000b603000042
:020000040000fa
:04010400b60300003e
:020000040000fa
:04010800b60300003a
:020000040000fa
:04010c00b603000036
:020000040000fa
:04011000b603000032
:020000040000fa
:04011400b60300002e
:020000040000fa
:04011800b60300002a
:020000040000fa
:04011c00b603000026
:020000040000fa
:04012000b603000022
:020000040000fa
:04012400b60300001e
:020000040000fa
:04012800b60300001a
:020000040000fa
:04012c00b603000016
:020000040000fa
:04013000b603000012
:020000040000fa
:04013400b60300000e
:020000040000fa
:04013800b60300000a
:020000040000fa
:04013c00b603000006
:020000040000fa
:04014000b603000002
:020000040000fa
:04014400b6030000fe
:020000040000fa
:04014800b6030000fa
:020000040000fa
:04014c00b6030000f6
:020000040000fa
:04015000b6030000f2
:020000040000fa
:04015400b6030000ee
:020000040000fa
:04015800b6030000ea
:020000040000fa
:04015c00b6030000e6
:020000040000fa
:04016000b6030000e2
:020000040000fa
:04016400b6030000de
:020000040000fa
:04016800b6030000da
:020000040000fa
:04016c00b6030000d6
:020000040000fa
:04017000b6030000d2
:020000040000fa
:04017400b6030000ce
:020000040000fa
:04017800b6030000ca
:020000040000fa
:04017c00b6030000c6
:020000040000fa
:04018000b6030000c2
:020000040000fa
:04018400b6030000be
:020000040000fa
:04018800b6030000ba
:020000040000fa
:04018c00b6030000b6
:020000040000fa
:04019000b6030000b2
:020000040000fa
:04019400b6030000ae
:020000040000fa
:04019800b6030000aa
:020000040000fa
:04019c00b6030000a6
:020000040000fa
:0401a000b6030000a2
:020000040000fa
:0401a400b60300009e
:020000040000fa
:0401a800b60300009a
:020000040000fa
:0401ac00b603000096
:020000040000fa
:0401b000b603000092
:020000040000fa
:0401b400b60300008e
:020000040000fa
:0401b800b60300008a
:020000040000fa
:0401bc00b603000086
:020000040000fa
:0401c000b603000082
:020000040000fa
:0401c400b60300007e
:020000040000fa
:0401c800b60300007a
:020000040000fa
:0401cc00b603000076
:020000040000fa
:0401d000b603000072
:020000040000fa
:0401d400b60300006e
:020000040000fa
:0401d800b60300006a
:020000040000fa
:0401dc00b603000066
:020000040000fa
:0401e000b603000062
:020000040000fa
:0401e400b60300005e
:020000040000fa
:0401e800b60300005a
:020000040000fa
:0401ec00b603000056
:020000040000fa
:0401f000b603000052
:020000040000fa
:0401f400b60300004e
:020000040000fa
:0401f800b60300004a
:020000040000fa
:0401fc00b603000046
:020000040000fa
:04020000b603000041
:020000040000fa
:04020400b60300003d
:020000040000fa
:04020800b603000039
:020000040000fa
:04020c00b603000035
:020000040000fa
:04021000b603000031
:020000040000fa
:04021400b60300002d
:020000040000fa
:04021800b603000029
:020000040000fa
:04021c00b603000025
:020000040000fa
:04022000b603000021
:020000040000fa
:04022400b60300001d
:020000040000fa
:04022800b603000019
:020000040000fa
:04022c00b603000015
:020000040000fa
:04023000b603000011
:020000040000fa
:04023400b60300000d
:020000040000fa
:04023800b603000009
:020000040000fa
:04023c00b603000005
:020000040000fa
:04024000b603000001
:020000040000fa
:04024400b6030000fd
:020000040000fa
:04024800b6030000f9
:020000040000fa
:04024c00b6030000f5
:020000040000fa
:04025000b6030000f1
:020000040000fa
:04025400b6030000ed
:020000040000fa
:04025800b6030000e9
:020000040000fa
:04025c00b6030000e5
:020000040000fa
:04026000b6030000e1
:020000040000fa
:04026400b6030000dd
:020000040000fa
:04026800b6030000d9
:020000040000fa
:04026c00b6030000d5
:020000040000fa
:04027000b6030000d1
:020000040000fa
:04027400b6030000cd
:020000040000fa
:04027800b6030000c9
:020000040000fa
:04027c00b6030000c5
:020000040000fa
:04028000b6030000c1
:020000040000fa
:100400004f0421000eff2c000e01880000000000a8
:10041000000020000000e000020032000001200087
:100420002002880014000700d20007000000e0004e
:1004300003003a00001821000100200002003700ec
:100440000000200001002000810f70000100320038
:100450000f000700000020000000e0000200320052
:1004600000000200000000009c0a020000000000e2
:100470000040da000000fe00200020000000e00044
:1004800002003200100020009001880000000600e9
:10049000a1028800800478000000eb001f003700f4
:1004a000e284440054a0b4009905ba00e2844400f8
:1004b00054a0b4009906ba00e284440054a0b400e9
:1004c0000006eb00476fde00fd07b200ae018800ba
:1004d000636ce10003003a000ad801000000eb0061
:1004e0000e003700606ce10008003a00004deb00a0
:1004f0000a05e800020039003420ec000af0a000f0
:100500008b05e900f9ff3e00040037006168e10057
:10051000010032000086eb000b00070019c7ba008b
:100520000e04e0001905ba0003003a000a00e000da
:10053000dbff3a0000000600fe07b200ae028800b2
:100540008a047800f5ff37000cd0a300e20f4d00bd
:100550001c00390089027800354dba000a05e80010
:10056000020039003420ec000af0a0008b05e900fd
:100570000f003200254dba000a05e80002003900dc
:100580003420ec000af0a0008b05e90008003200de
:100590000c00e0000600320015cdba000a05e800a4
:1005a000020039003420ec000af0a0008b05e900bd
:1005b0008984e80054a0b4000b00e000e2ff3a0098
:1005c000000006009902ba00055d78008b05e9007d
:1005d000f7ff3200c82ade00055d78008b05e900d0
:1005e000f3ff32000c00e000f1ff320019ddba0029
:1005f000eeff37000000fa000108a9000080fa00b1
:10060000004006003600f800809fbe00829fbe00ba
:10061000849fbe00869fbe000000fa000068a9000b
:1006200021738000000420000080600000f0a7001b
:100630000000ea000000e9004f00de000040780002
:100640000080fb00610060004600dd002173800037
:100650000160a1000100700020738800ed06070012
:100660006f0507000080fa004f03be004f02be0076
:100670004f01be004f00be003600f90000400600ea
:100680003600f800809fbe00829fbe00849fbe009f
:10069000869fbe000000fa000368a9002171800057
:1006a000004020000080600000f0a7000000ea0089
:1006b0000000e9004f00de00004078000080fb00f1
:1006c000610060004a00dd002171800001a0a100ee
:1006d0000100700020718800b0808000c18080001f
:1006e00061004000e0804800b0808800c180880040
:1006f000e70107000080fa004f03be004f02be0072
:100700004f01be004f00be003600f9000040060059
:10071000809fbe000000fa0001a8a9000118800017
:10072000200021000108780011188000200021001d
:10073000110098002118800020002100210098005d
:1007400031188000200021003100980041188000fd
:10075000200021004100980010c0b3000af0b7004b
:100760000080fa004f00be00004006000040da00a2
:100770000000fe000000050003f0a200889fbe00fc
:100780008a9fbe008c1f78001b01070022013300e6
:100790006450e1004f0032006420e100520032005a
:1007a00003826c0007003b000905d0000306d0005f
:1007b000820f54000c065d00020039000200320076
:1007c00089017800030678008582550004003d0009
:1007d0000003fd008103fd008502ea008b854200d5
:1007e000840f720002003b0060001000e0801800df
:1007f0006011b8000005eb007a28e1000a0039001a
:1008000006007800c75ddd00f707b200878075003d
:100810002d003700828171000a01780061056000b7
:100820008180d1000080d3008502e900f9ff3b0000
:10083000060440008784480002003b006004140066
:10084000e0841c000988a300070032008a8171003f
:1008500082817100610164008904d1000884d300a1
:100860008b05e800170037000978a30013003a0051
:100870000b00e000130034008b05e900080444007d
:1008800089844c000a4474000978a3000d003a00e2
:100890000b00e000070034008b05e9000804440069
:1008a00089844c0001003a000b0020000978a30065
:1008b000f7ff32000001eb00020037008281710077
:1008c0000a017800910007000cf0a70001f0a000d9
:1008d000da0037006420e10002003a00838f6c00e8
:1008e000da0033000801be000200be00d30037006a
:1008f000889fbe008a9fbe008c1f7800be00070044
:10090000c500330003866c006450e1002e00320005
:100910006420e100330032006150e1002f0032001a
:100920006120e1003100320085855500eb07b00001
:1009300009002000080420000500370008044400d6
:1009400089844c000a0031000603430087834b0072
:100950000001530081815b00f8ff33000203be00f9
:100960000800a0000804440089844c00f6ff390008
:10097000c639dd008301730001003200130020003e
:100980008904d1000884d3000998a300050032002f
:100990000800a7000300a0008904d1000884d30048
:1009a0008b05e8008904d1000884d3000001eb0026
:1009b0000281d2005500070001f0a1000cf0a70051
:1009c00001f0a0009d0037006420e1009f0032008c
:1009d0000801be000200be00f7ff37006120e10001
:1009e0009a0032006000b800f3ff370000002000da
:1009f00001f82700f0ff370014002000ca0037007c
:100a0000f4ff2f00c80037000001be00650007009a
:100a10000470a70003f0a1006509b10016003200c0
:100a20000d0035006828e10006003500f0ff2f00ba
:100a3000f1ff27000300e00013003b000100280045
:100a40000000050000004000818048008502e900a8
:100a5000fcff3a0008003700f88f420002003c001b
:100a60008000eb00000005008100d1000080d30071
:100a70008502e800fcff3a000300e00002003b00b2
:100a800060001000e0801800000006000001be00b9
:100a9000440007000470a70003f0a10003f8a300be
:100aa00013003a006509b10010003200090035005a
:100ab0006928e1000200350001002800000005005f
:100ac00000004000818048008502e900fcff3a00f8
:100ad00000000600f88f4200050035008100d100bb
:100ae0000080d3008502e800fcff3a000000060009
:100af0008000eb00000005004f89de0082017800d5
:100b0000a40037006011b800b20037008100200057
:100b1000618055000b003d000b00200061fe2f009e
:100b20000100e1001d003400828171006101640058
:100b30008904d1000884d3000000e800faff3a00dd
:100b4000710020006100640003007000020060007a
:100b50000900320061044400e0844c000988a500cb
:100b6000050032008b05e8006808e10002003a0049
:100b70008904d1000884d300f20f20000258e1005c
:100b800005003d00c75ddd00f907b20089807500f2
:100b900008007800000006000bf827008b007800a2
:100ba00000000500c70ade00f107b200f50fb20031
:100bb00008003200e1cf4200020032000170a000c4
:100bc00024000500810f70000100320004080500b8
:100bd00044000500810f700002003a001400050077
:100be0008502e9000000400081c04800fcff3b0096
:100bf0000170a000240005000004be00e9ff07000a
:100c00000003be000405be000200be00e5ff0700b1
:100c1000844f7500000006000200be006450e10031
:100c2000050036006420e100020036000968a300d8
:100c300001003a000800be000160a0004f067800e5
:100c40004f05be004f04be0000000600f0ff2f005d
:100c5000f1ff2700f9ff3700889fbe008a9fbe0082
:100c60008c1f7800e4ff0700ebff330003866c0065
:100c70006450e100240032006420e10027003200cb
:100c80006150e100220032006120e10021003200c9
:100c90008b854200eb07b1000134b800003ab80080
:100ca0000804420089844a00013ab8000030b800c4
:100cb0008880400009014a00040033000000400021
:100cc00081804800020149008b05e900c909dd0067
:100cd000830170000100320013002000c814de0000
:100ce0004814dd004709de001200b200c808de002b
:100cf0000884700085ff070001f0a1000cf0a70038
:100d000001f0a000cdff37006120e100cfff3200ed
:100d10000801be000200be00f7ff37006150e1008d
:100d2000fcff3a00c9ff3700889fbe008a9fbe00c3
:100d3000841f7800b0ff07004f00780011003300d7
:100d4000f0ff2f00838f6c0006003b000405650058
:100d50000a00a7000800370009f0a60010002000d4
:100d600008003700820f5400838f5c0003003900b5
:100d70001000200001003e000000200009f0a70044
:100d80000000ea004f05be004f04be000000e00076
:100d900000000600881f7800030478000300e000cc
:100da00007003d0060001000e0801800600119009d
:100db000e081190002003b0001f02d000300370024
:100dc0000400070008f0a70001f0a0004f0478001d
:100dd00000000600889fbe008a9fbe00008270004f
:100de0000402710004827100260032000004be007b
:100df0000200be006011b8006b09200095022000bf
:100e00000182cf000a0039000541b1000082cf0005
:100e1000070039000541b1000982cf000400390004
:100e20000541b1000882cf00010039000541b10041
:100e300005425200120032000a003b00828171001c
:100e4000610164008100d1000080d3008984d30057
:100e50000884d3008b05e8000442e800f7ff3a005d
:100e6000070037000804440089844c000000480053
:100e7000818048008b05e9000442e900f9ff3a004f
:100e800022ff07004f05be004f04be000000060011
:020000040000fa
:100e90000000fa001ad0bf000080fb00cf80de0007
:100ea0000201200003002000820f5000838f5800b1
:100eb0007b003e00000601001000370019003700db
:100ec000220037002e0037002f003700390037008e
:100ed0003a00370044003700450037005200370021
:100ee00053003700600037006d0037006c0037009a
:100ef0006b0037006a0037005d0037001630ef00e6
:100f00001830ef000041eb006000b800ef0307006d
:100f100012c0b3006000b800ec03070010c0b300bb
:100f20001af0b700b2808000c3808000803e2000ad
:100f300001002000800f5100818f59005b003600b6
:100f400020c0b3001af0b70059003700608080005d
:100f5000cf80de00e8fe07000041eb00db03070066
:100f600060808000cf80de00e3fe070012c0b30087
:100f7000d603070030c0b3001af0b7004c003700aa
:100f80004d0007004a00370070808000cf80de00ef
:100f9000d9fe07000041eb00cc03070012c0b300ec
:100fa0006000b800c903070050c0b3001af0b700d2
:100fb0003f003700400007003d0037000041eb00d4
:100fc0006000b800c103070070808000cf80de00a1
:100fd000c9fe070012c0b300bc03070070c0b30015
:100fe0001af0b70032003700330007003000370036
:100ff00070808000cf80de00bffe07000041eb0064
:10100000b2030700708080000000ea00cf80de009d
:10101000b9fe070012c0b300ac03070090c0b300d4
:101020001af0b70022003700230007002000370025
:10103000708080000000ea00cf80de00aefe070076
:101040000041eb00a103070070808000cf80de002c
:10105000a9fe070012c0b3009c030700b0c0b30094
:101060001af0b70012003700130007001000370015
:1010700080808000cf80de009ffe070012c0b3009a
:101080009203070080808000cf80de009afe070078
:101090000041eb008d030700070007000400370044
:1010a0001a70ef000000000001003700000000008f
:1010b0000080fa00000006000200fa00889fbe00cf
:1010c0008a1f78000040eb00004f78008881800084
:1010d00099818000a0808000cf80de0086fe07001e
:1010e0001ac0b3000001be000800be0042fe0700a7
:1010f0000000e000010035000045eb000a04e000bc
:101100000e003200888180009981800090808000ec
:10111000cf80de0078fe07001ac0b3000001be00d9
:101120000800be0036fe07000000e00001003c00a1
:101130000045eb000a04e00038003a00c881800056
:10114000d9818000a0808000cf80de006afe070089
:101150001ac0b3000001be000800be0026fe070052
:101160000000e000010035000045eb000a04e0004b
:101170000e003200c8818000d981800090808000fc
:10118000cf80de005cfe07001ac0b3000001be0085
:101190000800be001afe07000000e00001003c004d
:1011a0000045eb000a04e0001c003a0008828000c1
:1011b00019828000a0808000cf80de004efe0700f4
:1011c0001ac0b3000001be000800be000afe0700fe
:1011d0000000e000010035000045eb000a04e000db
:1011e0001100320008828000198280009080800007
:1011f000cf80de0040fe07001ac0b3000001be0031
:101200000800be00fefd07000000e00001003c00f9
:101210000045eb000a04e0000300320040c0b300c8
:10122000004f78009b003700888180009981800002
:1012300090808000cf80de002ffe07001ac0b30030
:101240000001be000800be00ebfd07000000e0004a
:10125000010035000045eb000a04e00020003200e8
:10126000c8818000d9818000908080006a00500091
:10127000cf80de0020fe07001ac0b3000001be00d0
:101280000800be00defd07000000e00001003c0099
:101290000045eb000a04e0001100320008828000e3
:1012a0001982800090808000cf80de0012fe07004f
:1012b0001ac0b3000001be000800be00d0fd070048
:1012c0000000e00001003c000045eb000a04e000e3
:1012d0000300320020c0b300004f78006d003700db
:1012e000888180009981800090808000cf80de001e
:1012f00001fe07001ac0b3000001be000800be00d6
:10130000bffd07000000e00001003c000045eb00cd
:101310000a04e00020003200c8818000d9818000ea
:10132000908080006a005000cf80de00f2fd070050
:101330001ac0b3000001be000800be00b0fd0700e7
:101340000000e00001003c000045eb000a04e00062
:101350001100320008828000198280009080800095
:10136000cf80de00e4fd07001ac0b3000001be001c
:101370000800be00a0fd07000000e00001003500ed
:101380000045eb000a04e0000300320010c0b30087
:10139000004f78003f003700c8818000d98180006d
:1013a000908080006a005000cf80de00d2fd0700f0
:1013b0001ac0b3000001be000800be008efd070089
:1013c0000000e000010035000045eb000a04e000e9
:1013d0000300320030c0b300004f78002d0037000a
:1013e000888180009981800090808000cf80de001d
:1013f000c1fd07001ac0b3000001be000800be0016
:101400007ffd07000000e00001003c000045eb000c
:101410000a04e0001f003200c8818000d9818000ea
:10142000908080006a005000cf80de00b2fd07008f
:101430001ac0b3000001be000800be0070fd070026
:101440000000e00001003c000045eb000a04e00061
:101450001000320008828000198280009080800095
:10146000cf80de00a4fd07001ac0b3000001be005b
:101470000800be0062fd07000000e00001003c0023
:101480000045eb000a04e000020032000040eb00df
:10149000004f78001e4078000004e00003003a008e
:1014a00020c0b3001bf0b700160037001e407800c4
:1014b000e24f500003003a0040c0b3001bf0b700f9
:1014c000100037001e407800e14f500003003a0042
:1014d00060c0b3001bf0b7000a0037001e40780060
:1014e000e34f500003003a0080c0b3001bf0b70088
:1014f0000400370040c0b300004f780000c1b300c3
:101500001bf0b7001bd0bf008080fb001ad0bf00cb
:101510000080fb000000e900808f500002003200d4
:101520001bd0bf001af0b7004f0578004f04be0073
:101530000080fa00000006000200fa0045030700e0
:101540007f0007000b0107008e01070084030700de
:1015500097010700f50207000100370000000000b6
:10156000340307000004e000fcff320035030700ed
:101570002c030700000f78001e0078001000780090
:101580008000eb005ffd07003233230033052400a9
:10159000b1fd07000200200003582400d4fc07001e
:1015a000d2cc2c00c3042400abfd07000001be0018
:1015b0000000200081202400cdfc07000200200054
:1015c000030a24006cfc0700808188009181880058
:1015d0001e80e800100078008000eb0049fd070045
:1015e00032332300330524009bfd07000200200056
:1015f00003582400befc0700d2cc2c00c3042400f6
:1016000095fd07000001be0000002000812024009d
:10161000b7fc070002002000030a240056fc070064
:10162000a0818800b18188009e007800648040001d
:10163000100078008000eb0032fd070032332300f9
:101640003305240084fd0700020020000358240015
:10165000a7fc0700d2cc2c00c30424007efd0700a9
:101660000001be000000200081202400a0fc070033
:1016700002002000030a24003ffc0700c08188000c
:10168000d18188009e0078006680400010007800bc
:101690008000eb001bfd07003233230033052400dc
:1016a0006dfd0700020020000358240090fc070095
:1016b000d2cc2c00c304240067fd07000001be004b
:1016c000000020008120240089fc07000200200087
:1016d000030a240028fc0700e0818800f1818800cb
:1016e0009e00780068804000100078008000eb00c9
:1016f00004fd0700323323003305240056fd0700a4
:10170000020020000358240079fc0700d2cc2c00f2
:10171000c304240050fd07000001be0000002000ab
:101720008120240072fc070002002000030a24002c
:1017300011fc0700008288001182880088ff3700b2
:101740000000fa0013e1a90011e1a9001061a8004e
:101750001021a90081088000f0fc2f0000806000ab
:10176000800888000a21ef000621ef0020262000d3
:101770007008880000a025006008880021428000d1
:1017800080ff2f00008060000000a0002042880041
:101790000108a9002108a80011e1a8000080fa00b2
:1017a000000006000400fa00881f7800008fbe00c9
:1017b00021088000f0fc2f000080600020088800d5
:1017c0001e0178009e0190000068290081c124005c
:1017d00047fc070018c0b30002f02f00f377240085
:1017e00087fc07000000e00001003c000044eb0023
:1017f0000804e0005400320021088000f0fc2f00b3
:10180000008060000040a000200888001e017800d1
:101810009e0190000068290081c1240034fc07006b
:10182000020020000310240031fc070018c0b300a0
:1018300002f02f00f377240071fc07000000e000a5
:1018400001003c000044eb000804e00032003200dc
:1018500021088000f0fc2f00008060000050a000f4
:10186000200888001e0178009e0190000068290071
:1018700081c124001efc0700020020000328240070
:101880001bfc070018c0b30002f02f00f377240000
:101890005bfc07000000e00001003c000044eb009e
:1018a0000804e0001000320021088000000320003e
:1018b00001007000200888001e0178009e01900041
:1018c0000068290081c1240009fc070002002000f3
:1018d0000338240006fc07004bfc070000007800da
:1018e00010088800200037001e0178009e0190003b
:1018f0000068290081c12400fdfb070002002000d0
:1019000003282400fafb07003ffc070000007800d2
:1019100010088800140037001e0178009e01900016
:101920000068290081c12400f1fb070002002000ab
:1019300003102400eefb070033fc070000007800d2
:1019400010088800080037001e0178009e019000f2
:101950000068290081c12400e5fb07002afc07007c
:1019600000007800100888004f0478000080fa001a
:10197000000006000000fa0005e1a900210880002f
:10198000f0fc2f00008060000050a00020088800bc
:101990000421a90000002000812c240081ff070001
:1019a0000068a9002068a80005e1a8000080fa00ee
:1019b000000006000400fa00881f7800008fbe00b7
:1019c000f1088000f0fc2f0000806000f008880023
:1019d0001e0178009e0190000068290081c124004a
:1019e000c3fb070018c0b30002f02f00f3772400f8
:1019f00003fc07000000e00001003c000044eb0095
:101a00000804e00054003200f1088000f0fc2f00d0
:101a1000008060000040a000f00888001e017800ef
:101a20009e0190000068290081c12400b0fb0700de
:101a30000200200003102400adfb070018c0b30013
:101a400002f02f00f3772400edfb07000000e00018
:101a500001003c000044eb000804e00032003200ca
:101a6000f1088000f0fc2f00008060000050a00012
:101a7000f00888001e0178009e019000006829008f
:101a800081c124009afb07000200200003282400e3
:101a900097fb070018c0b30002f02f00f377240073
:101aa000d7fb07000000e00001003c000044eb0011
:101ab0000804e00010003200f1088000000320005c
:101ac00001007000f00888001e0178009e0190005f
:101ad0000068290081c1240085fb07000200200066
:101ae0000338240082fb0700c7fb070000007800d2
:101af00010088800200037001e0178009e01900029
:101b00000068290081c1240079fb07000200200041
:101b10000328240076fb0700bbfb070000007800c9
:101b200010088800140037001e0178009e01900004
:101b30000068290081c124006dfb0700020020001d
:101b4000031024006afb0700affb070000007800c9
:101b500010088800080037001e0178009e019000e0
:101b60000068290081c1240061fb0700a6fb070073
:101b700000007800100888004f0478000080fa0008
:101b8000000006000000fa001fe1a9001e21a900c4
:101b900000002000a147240086ff07000368a90079
:101ba0002368a8001fe1a8000080fa0000000600da
:101bb0000000fa001160800080ff2f0000806000ac
:101bc0001060880000fa20002060880023aca80084
:101bd000238ca80011618000f03f2f00008060007e
:101be00000a0a00010618800300020002061880063
:101bf000c3aca800c38ca80011668000f03f2f0082
:101c00000080600000a0a000106688003000200066
:101c10002066880001eca8000080fa0000000600a1
:101c20000000fa00889fbe008a9fbe006481800089
:101c300075818000408180005181800018c0b30010
:101c40000001be000400be006bfb07000000e000c6
:101c5000010035000044eb000804e0000f003200f2
:101c600048818000598180006a8180007b818000ea
:101c70001cd0bf000080fb00cf80de009efb070071
:101c80000001be000a00be00bcfa07000801be0049
:101c9000cd00070060818800718188006481800028
:101ca00075818000408180005181800018c0b300a0
:101cb0000001be000400be0051fb07000000e00070
:101cc00001003c000044eb000804e0000f0032007b
:101cd00048818000598180006a8180007b8180007a
:101ce0001cd0bf000080fb00cf80de0082fb07001d
:101cf0000001be000a00be009ffa07000801be00f6
:101d000099000700608188007181880060818000ef
:101d10007181800018c0b3006011b80038fb070063
:101d20000000e00001003c000044eb000804e0007b
:101d300004003200c3cca90024eea800c3eca80024
:101d400003003700c3eca90024cea800c3cca80030
:101d500060818000718180006d000700020020001a
:101d600003222400bcfb070048fb070000007800aa
:101d700030668800248180003581800000818000e9
:101d80001181800018c0b3000001be000400be0035
:101d900019fb07000000e000010035000044eb00e3
:101da0000804e0000f0032000881800019818000e3
:101db0002a8180003b8180001cd0bf000080fb0096
:101dc000cf80de004cfb07000001be000a00be0011
:101dd0006afa07000801be007b0007002081880026
:101de000318188002481800035818000008180005d
:101df0001181800018c0b3000001be000400be00c5
:101e0000fffa07000000e00001003c000044eb0086
:101e10000804e0000f003200088180001981800072
:101e20002a8180003b8180001cd0bf000080fb0025
:101e3000cf80de0030fb07000001be000a00be00bc
:101e40004dfa07000801be00470007002081880006
:101e500031818800208180003181800018c0b3006a
:101e60006011b800e4fa07000000e000010035004e
:101e70000044eb000804e0000400320023cca90079
:101e800015eea80023eca8000300370023eca900fe
:101e900015cea80023cca8002081800031818000cd
:101ea0001b00070002002000032224006afb070039
:101eb000f6fa070000007800306188004f05be0088
:101ec0004f04be000080fa00000006000600fa0081
:101ed000008fbe00424798004e409000e14f5000f6
:101ee00005003a001e0178009e01900002818800e2
:101ef00013818800040037001e0178009e019000c5
:101f000042818800538188000080fa0000000600aa
:101f10000400fa00881f7800008fbe0018c0b300cc
:101f20006011b8001e0078009e009000b4fa07000f
:101f30000000e00001003d000044eb000804e00068
:101f4000030032001e0078009e009000030037005e
:101f50001e0078009e00900001f0a2004f0478005f
:101f60000080fa00000006000800fa00881f7800d0
:101f7000008fbe00220798003307980018c0b300f6
:101f80002e019000be0190001e0078009e0090007f
:101f90009bfa07000000e00001003c000044eb0059
:101fa0000804e000030032001e0078009e0090004c
:101fb000020037002e009000be0090004f04780011
:101fc0000080fa00000006000800fa00881f780070
:101fd000008fbe00220798003307980018c0b30096
:101fe0002e019000be0190001e0078009e0090001f
:101ff00081fa07000000e000010035000044eb001a
:102000000804e000030032001e0078009e009000eb
:10201000020037002e009000be0090004f047800b0
:102020000080fa00000006000c00fa00881f78000b
:10203000008fbe00220798003307980044079800dd
:102040005507980018c0b3004e019000de019000c3
:102050001e0078009e00900069fa07000000e00072
:1020600001003c000044eb000804e00004003200e2
:102070004e019000de019000028fbe000e0037007e
:1020800018c0b3002e019000be0190001e00780021
:102090009e00900058fa07000000e00001003500a3
:1020a0000044eb000804e000030032002e01900021
:1020b000be019000028fbe001e0078009e009000be
:1020c0004f0478000080fa00000006000400fa00c7
:1020d000008fbe00b2fd2000930424001e00780093
:1020e0009e00900002fa0700020020004333240003
:1020f000d9fa07000080fa00000006000400fa0088
:10210000008fbe00b2fd2000930424001e00780062
:102110009e009000d0fa0700020020004333240004
:10212000f3f907000080fa00000006000000fa0042
:1021300021e3a9002143a80001198000f0cf2f005e
:1021400000806000001988002043a9000119800068
:10215000000e200001007000001988001119800095
:10216000f0ff210000806000101988002343a800c0
:1021700011198000f0cf2f00008060001019880036
:102180001119800030f82f00008060000040a0008e
:10219000101988002203a9002223a90025e3a90021
:1021a000f0c0b30024e3b70021198000f00f2e0027
:1021b0008080600000f0200001007000201988007d
:1021c0003303a9002e0ea8002f6ea8006f2ea800c2
:1021d0004feea8000f8ea80030c3a8003163a800fe
:1021e0002e03a80031e3a8003143a8004119800064
:1021f00000fc2f00008060004019880028e3a9003f
:1022000001a8a90021a8a80021e3a8000080fa00e5
:10221000000006000000fa002023a8000080fa0059
:10222000000006000000fa00200021000080fa00f3
:10223000000006000000fa000ad0bf000080fa008b
:10224000000006000000fa000a70ef000080fa00ab
:10225000000006000000fa00f0032000303a880079
:10226000213a8000f0f32f0000806000203a8800bf
:10227000213a800000fe2f00008060000000a000d6
:10228000203a88001200200080072000a1092000c9
:1022900033742000804978008149780082497800b1
:1022a000103a8000000178000200a00060042000c5
:1022b000710520002374200080497800814978004e
:1022c0008249780000000000113a800000002700d9
:1022d0008080600000002100808f5000faff3a00eb
:1022e00000000000113a8000000220000080600021
:1022f0000000e000fbff32000080fa000000060052
:020000040000fa
:102300000c1000000a000000820000001e000a00fd
:10231000000a00001e002800000000001a10000043
:102320000200000080000000161000000400000001
:10233000800000001e100000260000008000000049
:102340001c100000020000008200000001000000dc
:10235000001000000c0000008000000000000000e1
:020000040000fa
:102360000000fa000e2eef001e2eef002e2eef00c2
:102370003e2eef004e2eef005e2eef006e2eef0091
:10238000214ea90060cea90060eea90011cea900df
:1023900011eea90020cea90020eea900102ea80061
:1023a000200ea800216ea800612ea80041eea80012
:0823b0000080fa0000000600a5
:020000040000fa
:02000004000af0
:04afe000cfff00009f
:020000040000fa
:02000004000af0
:04afe400ffff00006b
:020000040000fa
:02000004000af0
:04afe8007fff0000e7
:020000040000fa
:02000004000af0
:04afec005fff000003
:020000040000fa
:02000004000af0
:04aff00038ff000026
:020000040000fa
:02000004000af0
:04aff400ffff00005b
:00000001FF
