:020000040000fa
:080000000002040000000000f2
:020000040000fa
:04000800b60300003b
:020000040000fa
:04000c00b603000037
:020000040000fa
:04001000b603000033
:020000040000fa
:04001400b60300002f
:020000040000fa
:04001800b60300002b
:020000040000fa
:04001c00b603000027
:020000040000fa
:04002000b603000023
:020000040000fa
:04002400b60300001f
:020000040000fa
:04002800b60300001b
:020000040000fa
:04002c00b603000017
:020000040000fa
:04003000b603000013
:020000040000fa
:0400340002030000c3
:020000040000fa
:04003800b60300000b
:020000040000fa
:04003c00b603000007
:020000040000fa
:04004000b603000003
:020000040000fa
:04004400b6030000ff
:020000040000fa
:04004800fa020000b8
:020000040000fa
:04004c00b6030000f7
:020000040000fa
:04005000b6030000f3
:020000040000fa
:04005400b6030000ef
:020000040000fa
:04005800b6030000eb
:020000040000fa
:04005c008803000015
:020000040000fa
:04006000b6030000e3
:020000040000fa
:04006400b6030000df
:020000040000fa
:04006800b6030000db
:020000040000fa
:04006c00b6030000d7
:020000040000fa
:04007000b6030000d3
:020000040000fa
:04007400b6030000cf
:020000040000fa
:04007800b6030000cb
:020000040000fa
:04007c00b6030000c7
:020000040000fa
:04008000b6030000c3
:020000040000fa
:04008400b6030000bf
:020000040000fa
:04008800b6030000bb
:020000040000fa
:04008c00b6030000b7
:020000040000fa
:04009000b6030000b3
:020000040000fa
:040094004003000025
:020000040000fa
:04009800b6030000ab
:020000040000fa
:04009c00b6030000a7
:020000040000fa
:0400a000b6030000a3
:020000040000fa
:0400a400b60300009f
:020000040000fa
:0400a800b60300009b
:020000040000fa
:0400ac00b603000097
:020000040000fa
:0400b000b603000093
:020000040000fa
:0400b400b60300008f
:020000040000fa
:0400b800b60300008b
:020000040000fa
:0400bc00b603000087
:020000040000fa
:0400c000b603000083
:020000040000fa
:0400c400b60300007f
:020000040000fa
:0400c800b60300007b
:020000040000fa
:0400cc00b603000077
:020000040000fa
:0400d000b603000073
:020000040000fa
:0400d400b60300006f
:020000040000fa
:0400d800b60300006b
:020000040000fa
:0400dc00b603000067
:020000040000fa
:0400e000b603000063
:020000040000fa
:0400e400b60300005f
:020000040000fa
:0400e800b60300005b
:020000040000fa
:0400ec00b603000057
:020000040000fa
:0400f000b603000053
:020000040000fa
:0400f400b60300004f
:020000040000fa
:0400f800b60300004b
:020000040000fa
:0400fc00b603000047
:020000040000fa
:04010000b603000042
:020000040000fa
:04010400b60300003e
:020000040000fa
:04010800b60300003a
:020000040000fa
:04010c00b603000036
:020000040000fa
:04011000b603000032
:020000040000fa
:04011400b60300002e
:020000040000fa
:04011800b60300002a
:020000040000fa
:04011c00b603000026
:020000040000fa
:04012000b603000022
:020000040000fa
:04012400b60300001e
:020000040000fa
:04012800b60300001a
:020000040000fa
:04012c00b603000016
:020000040000fa
:04013000b603000012
:020000040000fa
:04013400b60300000e
:020000040000fa
:04013800b60300000a
:020000040000fa
:04013c00b603000006
:020000040000fa
:04014000b603000002
:020000040000fa
:04014400b6030000fe
:020000040000fa
:04014800b6030000fa
:020000040000fa
:04014c00b6030000f6
:020000040000fa
:04015000b6030000f2
:020000040000fa
:04015400b6030000ee
:020000040000fa
:04015800b6030000ea
:020000040000fa
:04015c00b6030000e6
:020000040000fa
:04016000b6030000e2
:020000040000fa
:04016400b6030000de
:020000040000fa
:04016800b6030000da
:020000040000fa
:04016c00b6030000d6
:020000040000fa
:04017000b6030000d2
:020000040000fa
:04017400b6030000ce
:020000040000fa
:04017800b6030000ca
:020000040000fa
:04017c00b6030000c6
:020000040000fa
:04018000b6030000c2
:020000040000fa
:04018400b6030000be
:020000040000fa
:04018800b6030000ba
:020000040000fa
:04018c00b6030000b6
:020000040000fa
:04019000b6030000b2
:020000040000fa
:04019400b6030000ae
:020000040000fa
:04019800b6030000aa
:020000040000fa
:04019c00b6030000a6
:020000040000fa
:0401a000b6030000a2
:020000040000fa
:0401a400b60300009e
:020000040000fa
:0401a800b60300009a
:020000040000fa
:0401ac00b603000096
:020000040000fa
:0401b000b603000092
:020000040000fa
:0401b400b60300008e
:020000040000fa
:0401b800b60300008a
:020000040000fa
:0401bc00b603000086
:020000040000fa
:0401c000b603000082
:020000040000fa
:0401c400b60300007e
:020000040000fa
:0401c800b60300007a
:020000040000fa
:0401cc00b603000076
:020000040000fa
:0401d000b603000072
:020000040000fa
:0401d400b60300006e
:020000040000fa
:0401d800b60300006a
:020000040000fa
:0401dc00b603000066
:020000040000fa
:0401e000b603000062
:020000040000fa
:0401e400b60300005e
:020000040000fa
:0401e800b60300005a
:020000040000fa
:0401ec00b603000056
:020000040000fa
:0401f000b603000052
:020000040000fa
:0401f400b60300004e
:020000040000fa
:0401f800b60300004a
:020000040000fa
:0401fc00b603000046
:020000040000fa
:04020000b603000041
:020000040000fa
:04020400b60300003d
:020000040000fa
:04020800b603000039
:020000040000fa
:04020c00b603000035
:020000040000fa
:04021000b603000031
:020000040000fa
:04021400b60300002d
:020000040000fa
:04021800b603000029
:020000040000fa
:04021c00b603000025
:020000040000fa
:04022000b603000021
:020000040000fa
:04022400b60300001d
:020000040000fa
:04022800b603000019
:020000040000fa
:04022c00b603000015
:020000040000fa
:04023000b603000011
:020000040000fa
:04023400b60300000d
:020000040000fa
:04023800b603000009
:020000040000fa
:04023c00b603000005
:020000040000fa
:04024000b603000001
:020000040000fa
:04024400b6030000fd
:020000040000fa
:04024800b6030000f9
:020000040000fa
:04024c00b6030000f5
:020000040000fa
:04025000b6030000f1
:020000040000fa
:04025400b6030000ed
:020000040000fa
:04025800b6030000e9
:020000040000fa
:04025c00b6030000e5
:020000040000fa
:04026000b6030000e1
:020000040000fa
:04026400b6030000dd
:020000040000fa
:04026800b6030000d9
:020000040000fa
:04026c00b6030000d5
:020000040000fa
:04027000b6030000d1
:020000040000fa
:04027400b6030000cd
:020000040000fa
:04027800b6030000c9
:020000040000fa
:04027c00b6030000c5
:020000040000fa
:04028000b6030000c1
:020000040000fa
:100400004f0521000eff2c000e01880000000000a7
:10041000000020000000e000020032000001200087
:100420002002880014000700d20007000000e0004e
:1004300003003a00c025210001002000020037001f
:100440000000200001002000810f70000100320038
:100450000f000700000020000000e0000200320052
:100460000000020000000000780b02000000000005
:100470000040da000000fe00200020000000e00044
:1004800002003200100020009001880000000600e9
:10049000a1028800800478000000eb001f003700f4
:1004a000e284440054a0b4009905ba00e2844400f8
:1004b00054a0b4009906ba00e284440054a0b400e9
:1004c0000006eb00476fde00fd07b200ae018800ba
:1004d000636ce10003003a000ad801000000eb0061
:1004e0000e003700606ce10008003a00004deb00a0
:1004f0000a05e800020039003420ec000af0a000f0
:100500008b05e900f9ff3e00040037006168e10057
:10051000010032000086eb000b00070019c7ba008b
:100520000e04e0001905ba0003003a000a00e000da
:10053000dbff3a0000000600fe07b200ae028800b2
:100540008a047800f5ff37000cd0a300e20f4d00bd
:100550001c00390089027800354dba000a05e80010
:10056000020039003420ec000af0a0008b05e900fd
:100570000f003200254dba000a05e80002003900dc
:100580003420ec000af0a0008b05e90008003200de
:100590000c00e0000600320015cdba000a05e800a4
:1005a000020039003420ec000af0a0008b05e900bd
:1005b0008984e80054a0b4000b00e000e2ff3a0098
:1005c000000006009902ba00055d78008b05e9007d
:1005d000f7ff3200c82ade00055d78008b05e900d0
:1005e000f3ff32000c00e000f1ff320019ddba0029
:1005f000eeff37000000fa000108a9000080fa00b1
:10060000004006003600f800809fbe00829fbe00ba
:10061000849fbe00869fbe000000fa000068a9000b
:1006200021738000000420000080600000f0a7001b
:100630000000ea000000e9004f00de000040780002
:100640000080fb00610060004600dd002173800037
:100650000160a10001007000207388005b070700a3
:10066000dd0507000080fa004f03be004f02be0008
:100670004f01be004f00be003600f90000400600ea
:100680003600f800809fbe00829fbe00849fbe009f
:10069000869fbe000000fa000368a9002171800057
:1006a000004020000080600000f0a7000000ea0089
:1006b0000000e9004f00de00004078000080fb00f1
:1006c000610060004a00dd002171800001a0a100ee
:1006d000010070002071880090808000a18080005f
:1006e00061004000e080480090808800a180880080
:1006f000e70107000080fa004f03be004f02be0072
:100700004f01be004f00be003600f9000040060059
:10071000809fbe000000fa0001a8a9000118800017
:10072000200021000108780011188000200021001d
:10073000110098002118800020002100210098005d
:1007400031188000200021003100980041188000fd
:10075000200021004100980010c0b3000af0b7004b
:100760000080fa004f00be00004006000040da00a2
:100770000000fe000000050003f0a200889fbe00fc
:100780008a9fbe008c1f78001b01070022013300e6
:100790006450e1004f0032006420e100520032005a
:1007a00003826c0007003b000905d0000306d0005f
:1007b000820f54000c065d00020039000200320076
:1007c00089017800030678008582550004003d0009
:1007d0000003fd008103fd008502ea008b854200d5
:1007e000840f720002003b0060001000e0801800df
:1007f0006011b8000005eb007a28e1000a0039001a
:1008000006007800c75ddd00f707b200878075003d
:100810002d003700828171000a01780061056000b7
:100820008180d1000080d3008502e900f9ff3b0000
:10083000060440008784480002003b006004140066
:10084000e0841c000988a300070032008a8171003f
:1008500082817100610164008904d1000884d300a1
:100860008b05e800170037000978a30013003a0051
:100870000b00e000130034008b05e900080444007d
:1008800089844c000a4474000978a3000d003a00e2
:100890000b00e000070034008b05e9000804440069
:1008a00089844c0001003a000b0020000978a30065
:1008b000f7ff32000001eb00020037008281710077
:1008c0000a017800910007000cf0a70001f0a000d9
:1008d000da0037006420e10002003a00838f6c00e8
:1008e000da0033000801be000200be00d30037006a
:1008f000889fbe008a9fbe008c1f7800be00070044
:10090000c500330003866c006450e1002e00320005
:100910006420e100330032006150e1002f0032001a
:100920006120e1003100320085855500eb07b00001
:1009300009002000080420000500370008044400d6
:1009400089844c000a0031000603430087834b0072
:100950000001530081815b00f8ff33000203be00f9
:100960000800a0000804440089844c00f6ff390008
:10097000c639dd008301730001003200130020003e
:100980008904d1000884d3000998a300050032002f
:100990000800a7000300a0008904d1000884d30048
:1009a0008b05e8008904d1000884d3000001eb0026
:1009b0000281d2005500070001f0a1000cf0a70051
:1009c00001f0a0009d0037006420e1009f0032008c
:1009d0000801be000200be00f7ff37006120e10001
:1009e0009a0032006000b800f3ff370000002000da
:1009f00001f82700f0ff370014002000ca0037007c
:100a0000f4ff2f00c80037000001be00650007009a
:100a10000470a70003f0a1006509b10016003200c0
:100a20000d0035006828e10006003500f0ff2f00ba
:100a3000f1ff27000300e00013003b000100280045
:100a40000000050000004000818048008502e900a8
:100a5000fcff3a0008003700f88f420002003c001b
:100a60008000eb00000005008100d1000080d30071
:100a70008502e800fcff3a000300e00002003b00b2
:100a800060001000e0801800000006000001be00b9
:100a9000440007000470a70003f0a10003f8a300be
:100aa00013003a006509b10010003200090035005a
:100ab0006928e1000200350001002800000005005f
:100ac00000004000818048008502e900fcff3a00f8
:100ad00000000600f88f4200050035008100d100bb
:100ae0000080d3008502e800fcff3a000000060009
:100af0008000eb00000005004f89de0082017800d5
:100b0000a40037006011b800b20037008100200057
:100b1000618055000b003d000b00200061fe2f009e
:100b20000100e1001d003400828171006101640058
:100b30008904d1000884d3000000e800faff3a00dd
:100b4000710020006100640003007000020060007a
:100b50000900320061044400e0844c000988a500cb
:100b6000050032008b05e8006808e10002003a0049
:100b70008904d1000884d300f20f20000258e1005c
:100b800005003d00c75ddd00f907b20089807500f2
:100b900008007800000006000bf827008b007800a2
:100ba00000000500c70ade00f107b200f50fb20031
:100bb00008003200e1cf4200020032000170a000c4
:100bc00024000500810f70000100320004080500b8
:100bd00044000500810f700002003a001400050077
:100be0008502e9000000400081c04800fcff3b0096
:100bf0000170a000240005000004be00e9ff07000a
:100c00000003be000405be000200be00e5ff0700b1
:100c1000844f7500000006000200be006450e10031
:100c2000050036006420e100020036000968a300d8
:100c300001003a000800be000160a0004f067800e5
:100c40004f05be004f04be0000000600f0ff2f005d
:100c5000f1ff2700f9ff3700889fbe008a9fbe0082
:100c60008c1f7800e4ff0700ebff330003866c0065
:100c70006450e100240032006420e10027003200cb
:100c80006150e100220032006120e10021003200c9
:100c90008b854200eb07b1000134b800003ab80080
:100ca0000804420089844a00013ab8000030b800c4
:100cb0008880400009014a00040033000000400021
:100cc00081804800020149008b05e900c909dd0067
:100cd000830170000100320013002000c814de0000
:100ce0004814dd004709de001200b200c808de002b
:100cf0000884700085ff070001f0a1000cf0a70038
:100d000001f0a000cdff37006120e100cfff3200ed
:100d10000801be000200be00f7ff37006150e1008d
:100d2000fcff3a00c9ff3700889fbe008a9fbe00c3
:100d3000841f7800b0ff07004f00780011003300d7
:100d4000f0ff2f00838f6c0006003b000405650058
:100d50000a00a7000800370009f0a60010002000d4
:100d600008003700820f5400838f5c0003003900b5
:100d70001000200001003e000000200009f0a70044
:100d80000000ea004f05be004f04be000000e00076
:100d900000000600881f7800030478000300e000cc
:100da00007003d0060001000e0801800600119009d
:100db000e081190002003b0001f02d000300370024
:100dc0000400070008f0a70001f0a0004f0478001d
:100dd00000000600889fbe008a9fbe00008270004f
:100de0000402710004827100260032000004be007b
:100df0000200be006011b8006b09200095022000bf
:100e00000182cf000a0039000541b1000082cf0005
:100e1000070039000541b1000982cf000400390004
:100e20000541b1000882cf00010039000541b10041
:100e300005425200120032000a003b00828171001c
:100e4000610164008100d1000080d3008984d30057
:100e50000884d3008b05e8000442e800f7ff3a005d
:100e6000070037000804440089844c000000480053
:100e7000818048008b05e9000442e900f9ff3a004f
:100e800022ff07004f05be004f04be000000060011
:020000040000fa
:100e90000000fa0016d0bf000080fb00cf80de000b
:100ea0000201200003002000820f5000838f5800b1
:100eb0007d003e00000601001000370019003700d9
:100ec000220037002e0037002f0037003a0037008d
:100ed0003b0037004600370047003700540037001a
:100ee00055003700620037006f0037006e00370092
:100ef0006d0037006c0037005f0037001230ef00e4
:100f00001430ef000041eb006000b8005d04070002
:100f100012c0b3006000b8005a04070010c0b3004c
:100f200016f0b70092808000a3808000803e2000f1
:100f300001002000800f5100818f59005d003600b4
:100f400020c0b30016f0b7005b003700608080005f
:100f5000cf80de00e8fe07000041eb0049040700f7
:100f600060808000cf80de00e3fe070012c0b30087
:100f70004404070030c0b30016f0b7004e0037003d
:100f80004f0007004c00370070808000cf80de00eb
:100f9000d9fe07000041eb003a04070012c0b3007d
:100fa0000000200001172c003604070050c0b300d9
:100fb00016f0b70040003700410007003e00370040
:100fc0000041eb000000200001172c002d04070059
:100fd00070808000cf80de00c7fe070012c0b30023
:100fe0002804070070c0b30016f0b70032003700c5
:100ff000330007003000370070808000cf80de00b3
:10100000bdfe07000041eb001e0407007080800059
:101010000000ea00cf80de00b7fe070012c0b30078
:101020001804070090c0b30016f0b7002200370084
:101030002300070020003700708080000000ea00d5
:10104000cf80de00acfe07000041eb000d0407007e
:1010500070808000cf80de00a7fe070012c0b300c2
:1010600008040700b0c0b30016f0b7001200370044
:10107000130007001000370080808000cf80de0062
:101080009dfe070012c0b300fe03070080808000b1
:10109000cf80de0098fe07000041eb00f903070057
:1010a00007000700040037001670ef000000000082
:1010b00001003700000000000080fa000000060078
:1010c0000200fa00889fbe008a1f78000040eb00f3
:1010d000004f7800c8818000d98180003082800074
:1010e000cf80de0084fe07001ac0b3000001be00fe
:1010f0000800be0040fe07000000e00001003500cf
:101100000045eb000a04e0000e003200e881800098
:10111000f981800040828000cf80de0076fe0700eb
:101120001ac0b3000001be000800be0032fe070076
:101130000000e000010035000045eb000a04e0007b
:101140001c003a00a8818000b981800020828000c4
:10115000cf80de0068fe07001ac0b3000001be00a9
:101160000800be0024fe07000000e000010035007a
:101170000045eb000a04e00011003200e881800025
:10118000f981800040828000cf80de005afe070097
:101190001ac0b3000001be000800be0016fe070022
:1011a0000000e000010035000045eb000a04e0000b
:1011b0000300320010c0b300004f78002301370055
:1011c000888180009981800010828000cf80de00bd
:1011d00049fe07001ac0b3000001be000800be00af
:1011e00005fe07000000e000010035000045eb00af
:1011f0000a04e0000e0032006881800079818000de
:1012000000828000cf80de003bfe07001ac0b300e2
:101210000001be000800be00f7fd07000000e0006e
:10122000010035000045eb000a04e0001c003a0014
:10123000688180007981800000828000cf80de009c
:101240002dfe07001ac0b3000001be000800be005a
:10125000e9fd07000000e000010035000045eb005b
:101260000a04e00011003200a8818000b9818000ea
:1012700020828000cf80de001ffe07001ac0b3006e
:101280000001be000800be00dbfd07000000e0001a
:10129000010035000045eb000a04e00003003200c5
:1012a00020c0b300004f7800e8003700688180005c
:1012b0007981800050828000cf80de000efe070022
:1012c0001ac0b3000001be000800be00cafd07003e
:1012d0000000e000010035000045eb000a04e000da
:1012e0000e003200688180007981800000828000d9
:1012f000cf80de0000fe07001ac0b3000001be0070
:101300000800be00befd07000000e00001003c0038
:101310000045eb000a04e00070003a00888180007c
:101320009981800060828000cf80de00f2fd07009e
:101330001ac0b3000001be000800be00aefd0700e9
:101340000000e000010035000045eb000a04e00069
:101350000e00320088818000998180001082800018
:10136000cf80de00e4fd07001ac0b3000001be001c
:101370000800be00a2fd07000000e00001003c00e4
:101380000045eb000a04e00054003a00a881800008
:10139000b981800070828000cf80de00d6fd07001a
:1013a0001ac0b3000001be000800be0092fd070095
:1013b0000000e000010035000045eb000a04e000f9
:1013c0000e003200a8818000b98180002082800058
:1013d000cf80de00c8fd07001ac0b3000001be00c8
:1013e0000800be0086fd07000000e00001003c0090
:1013f0000045eb000a04e00038003a00c881800094
:10140000d981800080828000cf80de00bafd070095
:101410001ac0b3000001be000800be0076fd070040
:101420000000e000010035000045eb000a04e00088
:101430000e003200c8818000d98180003082800097
:10144000cf80de00acfd07001ac0b3000001be0073
:101450000800be006afd07000000e00001003c003b
:101460000045eb000a04e0001c003a00e88180001f
:10147000f981800090828000cf80de009efd070011
:101480001ac0b3000001be000800be005afd0700ec
:101490000000e000010035000045eb000a04e00018
:1014a00011003200e8818000f981800040828000d4
:1014b000cf80de0090fd07001ac0b3000001be001f
:1014c0000800be004efd07000000e00001003c00e7
:1014d0000045eb000a04e0000300320040c0b30006
:1014e000004f780059003700a8818000b981800042
:1014f00020828000cf80de007ffd07001ac0b3008d
:101500000001be000800be003bfd07000000e00037
:10151000010035000045eb000a04e0000300320042
:1015200030c0b300004f7800480037006881800069
:101530007981800050828000cf80de006efd070040
:101540001ac0b3000001be000800be002cfd070059
:101550000000e00001003c000045eb000a04e00050
:101560003a0032008881800099818000608280008a
:10157000cf80de0060fd07001ac0b3000001be008e
:101580000800be001efd07000000e00001003c0056
:101590000045eb000a04e0002c003200a881800026
:1015a000b981800070828000cf80de0052fd07008c
:1015b0001ac0b3000001be000800be0010fd070005
:1015c0000000e00001003c000045eb000a04e000e0
:1015d0001e003200c8818000d98180008082800096
:1015e000cf80de0044fd07001ac0b3000001be003a
:1015f0000800be0002fd07000000e00001003c0002
:101600000045eb000a04e00010003200e881800091
:10161000f981800090828000cf80de0036fd0700d7
:101620001ac0b3000001be000800be00f4fc0700b1
:101630000000e00001003c000045eb000a04e0006f
:10164000020032000040eb00004f78001e4078009e
:101650000004e00003003a0020c0b30017f0b70018
:10166000160037001e407800e24f500003003a0099
:1016700040c0b30017f0b700100037001e407800dc
:10168000e14f500003003a0060c0b30017f0b7000c
:101690000a0037001e407800e34f500003003a0074
:1016a00080c0b30017f0b7000400370040c0b3009b
:1016b000004f780000c1b30017f0b70017d0bf008b
:1016c0008080fb0016d0bf000080fb000000e90016
:1016d000808f50000200320017d0bf0016f0b70014
:1016e0004f0578004f04be000080fa00000006009d
:1016f0000200fa00450307007f0007000b01070006
:101700008e0107008c03070097010700f502070010
:101710000100370000000000340307000004e0006f
:10172000fcff3200350307002c030700000f780090
:101730001e007800100078008000eb00f1fc07002c
:10174000323323003305240043fd0700020020004c
:101750000358240066fc0700d2cc2c00c3042400ec
:101760003dfd07000001be00000020008120240094
:101770005ffc070002002000030a2400fefb0700b4
:1017800060818800718188001e80e8001000780068
:101790008000eb00dbfc070032332300330524001c
:1017a0002dfd0700020020000358240050fc070014
:1017b000d2cc2c00c304240027fd07000001be008a
:1017c000000020008120240049fc070002002000c6
:1017d000030a2400e8fb07008081880091818800cb
:1017e0009e00780064804000100078008000eb00cc
:1017f000c4fc0700323323003305240016fd070024
:10180000020020000358240039fc0700d2cc2c0031
:10181000c304240010fd07000001be0000002000ea
:101820008120240032fc070002002000030a24006b
:10183000d1fb0700a0818800b18188009e0078005c
:1018400066804000100078008000eb00adfc0700cf
:101850003233230033052400fffc07000200200080
:101860000358240022fc0700d2cc2c00c30424001f
:10187000f9fc07000001be000000200081202400c8
:101880001bfc070002002000030a2400bafb07002b
:10189000c0818800d18188009e0078006880400067
:1018a000100078008000eb0096fc07003233230024
:1018b00033052400e8fc0700020020000358240040
:1018c0000bfc0700d2cc2c00c3042400e2fc070070
:1018d0000001be00000020008120240004fc07005d
:1018e00002002000030a2400a3fb0700e081880017
:1018f000f181880088ff37000000fa0013e1a90099
:1019000011e1a9001061a8001021a9008108800040
:10191000f0fc2f0000806000800888000a21ef00a2
:101920000621ef00202620007008880000a0250076
:10193000600888002142800080ff2f000080600046
:101940000000a000204288000108a9002108a8008a
:1019500011e1a8000080fa00000006000400fa006f
:10196000881f7800008fbe0021088000f0fc2f0047
:1019700000806000200888001e0178009e01900011
:101980000068290081c12400d9fb070018c0b300fa
:1019900002f02f00f377240019fc07000000e0009c
:1019a00001003c000044eb000804e0005400320059
:1019b00021088000f0fc2f00008060000040a000a3
:1019c000200888001e0178009e0190000068290010
:1019d00081c12400c6fb0700020020000310240080
:1019e000c3fb070018c0b30002f02f00f3772400f8
:1019f00003fc07000000e00001003c000044eb0095
:101a00000804e0003200320021088000f0fc2f00c2
:101a1000008060000050a000200888001e017800af
:101a20009e0190000068290081c12400b0fb0700de
:101a30000200200003282400adfb070018c0b300fb
:101a400002f02f00f3772400edfb07000000e00018
:101a500001003c000044eb000804e00010003200ec
:101a60002108800000032000010070002008880089
:101a70001e0178009e0190000068290081c12400a9
:101a80009bfb0700020020000338240098fb07009e
:101a9000ddfb0700000078001008880020003700f8
:101aa0001e0178009e0190000068290081c1240079
:101ab0008ffb070002002000032824008cfb070096
:101ac000d1fb0700000078001008880014003700e0
:101ad0001e0178009e0190000068290081c1240049
:101ae00083fb0700020020000310240080fb070096
:101af000c5fb0700000078001008880008003700c8
:101b00001e0178009e0190000068290081c1240018
:101b100077fb0700bcfb0700000078001008880076
:101b20004f0478000080fa00000006000000fa0070
:101b300005e1a90021088000f0fc2f000080600072
:101b40000050a000200888000421a9000000200007
:101b5000812c240081ff07000068a9002068a800ec
:101b600005e1a8000080fa00000006000400fa0069
:101b7000881f7800008fbe00f1088000f0fc2f0065
:101b800000806000f00888001e0178009e0190002f
:101b90000068290081c1240055fb070018c0b3006c
:101ba00002f02f00f377240095fb07000000e0000f
:101bb00001003c000044eb000804e0005400320047
:101bc000f1088000f0fc2f00008060000040a000c1
:101bd000f00888001e0178009e019000006829002e
:101be00081c1240042fb07000200200003102400f2
:101bf0003ffb070018c0b30002f02f00f37724006a
:101c00007ffb07000000e00001003c000044eb0007
:101c10000804e00032003200f1088000f0fc2f00e0
:101c2000008060000050a000f00888001e017800cd
:101c30009e0190000068290081c124002cfb070050
:101c4000020020000328240029fb070018c0b3006d
:101c500002f02f00f377240069fb07000000e0008a
:101c600001003c000044eb000804e00010003200da
:101c7000f10880000003200001007000f0088800d7
:101c80001e0178009e0190000068290081c1240097
:101c900017fb0700020020000338240014fb070094
:101ca00059fb07000000780010088800200037006a
:101cb0001e0178009e0190000068290081c1240067
:101cc0000bfb0700020020000328240008fb07008c
:101cd0004dfb070000007800100888001400370052
:101ce0001e0178009e0190000068290081c1240037
:101cf000fffa07000200200003102400fcfa07008e
:101d000041fb070000007800100888000800370039
:101d10001e0178009e0190000068290081c1240006
:101d2000f3fa070038fb070000007800100888006d
:101d30004f0478000080fa00000006000000fa005e
:101d40001fe1a9001e21a90000002000a1472400d6
:101d500086ff07000368a9002368a8001fe1a80008
:101d60000080fa00000006000000fa001160800008
:101d700080ff2f00008060001060880000fa2000c3
:101d80002060880023aca800238ca800116180008b
:101d9000f03f2f000080600000a0a00010618800cc
:101da0003000200020618800c3aca800c38ca800cc
:101db00011668000f03f2f000080600000a0a000ae
:101dc00010668800300020002066880001eca80022
:101dd0000080fa00000006000000fa00889fbe00a4
:101de0008a9fbe0044818000558180002081800050
:101df0003181800018c0b3000001be000400be00a5
:101e0000fdfa07000000e000010035000044eb008f
:101e10000804e0000f003200288180003981800032
:101e20004a8180005b81800018d0bf000080fb00e9
:101e3000cf80de0030fb07000001be000a00be00bc
:101e40004efa07000801be00cd000700408188005f
:101e5000518188004481800055818000208180006c
:101e60003181800018c0b3000001be000400be0034
:101e7000e3fa07000000e00001003c000044eb0032
:101e80000804e0000f0032002881800039818000c2
:101e90004a8180005b81800018d0bf000080fb0079
:101ea000cf80de0014fb07000001be000a00be0068
:101eb00031fa07000801be00990007004081880040
:101ec00051818800408180005181800018c0b3009a
:101ed0006011b800cafa07000000e00001003c00f1
:101ee0000044eb000804e00004003200c3cca90069
:101ef00024eea800c3eca80003003700c3eca9003f
:101f000024cea800c3cca80040818000518180006d
:101f10006d00070002002000032224004efb070092
:101f2000dafa07000000780030668800048180003b
:101f300015818000e0808000f180800018c0b3002f
:101f40000001be000400be00abfa07000000e00084
:101f5000010035000044eb000804e0000f003200ef
:101f6000e8808000f98080000a8180001b81800069
:101f700018d0bf000080fb00cf80de00defa070033
:101f80000001be000a00be00fcf907000801be0007
:101f90007b00070000818800118188000481800097
:101fa00015818000e0808000f180800018c0b300bf
:101fb0000001be000400be0091fa07000000e0002e
:101fc00001003c000044eb000804e0000f00320078
:101fd000e8808000f98080000a8180001b818000f9
:101fe00018d0bf000080fb00cf80de00c2fa0700df
:101ff0000001be000a00be00dff907000801be00b4
:10200000470007000081880011818800008180005e
:102010001181800018c0b3006011b80076fa070083
:102020000000e000010035000044eb000804e0007f
:102030000400320023cca90015eea80023eca80070
:102040000300370023eca90015cea80023cca8007c
:1020500000818000118180001b0007000200200029
:1020600003222400fcfa070088fa07000000780029
:10207000306188004f05be004f04be000080fa00aa
:10208000000006000600fa00008fbe0042479800dc
:102090004e409000e14f500005003a001e017800cc
:1020a0009e019000e2808800f380880004003700e1
:1020b0001e0178009e0190002281880033818800f3
:1020c0000080fa00000006000400fa00881f780073
:1020d000008fbe0018c0b3006011b8001e00780069
:1020e0009e00900046fa07000000e00001003d005d
:1020f0000044eb000804e000030032001e007800fa
:102100009e009000030037001e0078009e009000a3
:1021100001f0a2004f0478000080fa0000000600e1
:102120000800fa00881f7800008fbe002207980080
:102130003307980018c0b3002e019000be01900034
:102140001e0078009e0090002dfa07000000e000bd
:1021500001003c000044eb000804e00003003200f2
:102160001e0078009e009000020037002e009000b4
:10217000be0090004f0478000080fa0000000600c6
:102180000800fa00881f7800008fbe002207980020
:102190003307980018c0b3002e019000be019000d4
:1021a0001e0078009e00900013fa07000000e00077
:1021b000010035000044eb000804e0000300320099
:1021c0001e0078009e009000020037002e00900054
:1021d000be0090004f0478000080fa000000060066
:1021e0000c00fa00881f7800008fbe0022079800bc
:1021f00033079800440798005507980018c0b300ab
:102200004e019000de0190001e0078009e009000bc
:10221000fbf907000000e00001003c000044eb0077
:102220000804e000040032004e019000de0190003e
:10223000028fbe000e00370018c0b3002e019000c0
:10224000be0190001e0078009e009000eaf9070091
:102250000000e000010035000044eb000804e0004d
:10226000030032002e019000be019000028fbe00dc
:102270001e0078009e0090004f0478000080fa0055
:10228000000006000400fa00008fbe00b2fd20002e
:10229000930424001e0078009e00900094f907002b
:1022a00002002000433324006bfa07000080fa008c
:1022b000000006000400fa00008fbe00b2fd2000fe
:1022c000930424001e0078009e00900062fa07002c
:1022d000020020004333240085f907000080fa0043
:1022e000000006000000fa0021e3a9002143a80035
:1022f00001198000f0cf2f000080600000198800d5
:102300002043a90001198000000e20000100700088
:102310000019880011198000f0ff21000080600082
:10232000101988002343a80011198000f0cf2f0056
:1023300000806000101988001119800030f82f000b
:10234000008060000040a000101988002203a9004e
:102350002223a90025e3a900f0c0b30024e3b700bd
:1023600021198000f00f2e008080600000f0200016
:1023700001007000201988003303a9002e0ea80068
:102380002f6ea8006f2ea8004feea8000f8ea80099
:1023900030c3a8003163a8002e03a80031e3a800d1
:1023a0003143a8004119800000fc2f00008060002c
:1023b0004019880028e3a90001a8a90021a8a800c5
:1023c00021e3a8000080fa00000006000000fa00e7
:1023d0002023a8000080fa00000006000000fa0098
:1023e000200021000080fa00000006000000fa0032
:1023f0000ad0bf000080fa00000006000000fa00ca
:102400000a70ef000080fa00000006000000fa00e9
:10241000f0032000303a8800213a8000f0f32f00ca
:1024200000806000203a8800213a800000fe2f00e2
:10243000008060000000a000203a88001200200008
:1024400080072000a1092000337420008049780013
:102450008149780082497800103a800000017800b4
:102460000200a000600420007105200023742000f9
:102470008049780081497800824978000000000096
:10248000113a8000000027008080600000002100d9
:10249000808f5000faff3a0000000000113a8000df
:1024a00000022000008060000000e000fbff32001e
:0824b0000080fa0000000600a4
:020000040000fa
:1024b8004010000014000000820000001400140006
:1024c8000014000014001400003200003200320032
:1024d80000320000320000000c100000060000006e
:1024e800820000001e001e000014000016100000ec
:1024f800020000008000000012100000040000002c
:10250800800000001a100000260000008000000073
:1025180018100000020000008200000014000000f3
:10252800001000000c000000800000000000000007
:020000040000fa
:102538000000fa000e2eef001e2eef002e2eef00e8
:102548003e2eef004e2eef005e2eef006e2eef00b7
:10255800214ea90060cea90060eea90011cea90005
:1025680011eea90020cea90020eea900102ea80087
:10257800200ea800216ea800612ea80041eea80038
:082588000080fa0000000600cb
:020000040000fa
:02000004000af0
:04afe000cfff00009f
:020000040000fa
:02000004000af0
:04afe400ffff00006b
:020000040000fa
:02000004000af0
:04afe8007fff0000e7
:020000040000fa
:02000004000af0
:04afec005fff000003
:020000040000fa
:02000004000af0
:04aff00038ff000026
:020000040000fa
:02000004000af0
:04aff400ffff00005b
:00000001FF
